{
	"DecentralizedLottery.sol": {
		"DecentralizedLottery": {
			"abi": [
				{
					"inputs": [
						{
							"internalType": "uint256",
							"name": "_ticketPrice",
							"type": "uint256"
						}
					],
					"stateMutability": "nonpayable",
					"type": "constructor"
				},
				{
					"anonymous": false,
					"inputs": [
						{
							"indexed": true,
							"internalType": "address",
							"name": "player",
							"type": "address"
						},
						{
							"indexed": false,
							"internalType": "uint256",
							"name": "amount",
							"type": "uint256"
						}
					],
					"name": "TicketPurchased",
					"type": "event"
				},
				{
					"anonymous": false,
					"inputs": [
						{
							"indexed": true,
							"internalType": "address",
							"name": "winner",
							"type": "address"
						},
						{
							"indexed": false,
							"internalType": "uint256",
							"name": "prize",
							"type": "uint256"
						}
					],
					"name": "WinnerSelected",
					"type": "event"
				},
				{
					"inputs": [],
					"name": "InitializeAccounts",
					"outputs": [],
					"stateMutability": "nonpayable",
					"type": "function"
				},
				{
					"inputs": [
						{
							"internalType": "uint256",
							"name": "",
							"type": "uint256"
						}
					],
					"name": "Players",
					"outputs": [
						{
							"internalType": "address",
							"name": "PlayerAddr",
							"type": "address"
						},
						{
							"internalType": "string",
							"name": "accountName",
							"type": "string"
						},
						{
							"internalType": "string",
							"name": "createdOn",
							"type": "string"
						},
						{
							"internalType": "uint256",
							"name": "wins",
							"type": "uint256"
						}
					],
					"stateMutability": "view",
					"type": "function"
				},
				{
					"inputs": [],
					"name": "buyTicket",
					"outputs": [],
					"stateMutability": "payable",
					"type": "function"
				},
				{
					"inputs": [],
					"name": "drawWinner",
					"outputs": [],
					"stateMutability": "nonpayable",
					"type": "function"
				},
				{
					"inputs": [],
					"name": "getPlayer",
					"outputs": [
						{
							"internalType": "address[]",
							"name": "",
							"type": "address[]"
						}
					],
					"stateMutability": "view",
					"type": "function"
				},
				{
					"inputs": [],
					"name": "lotteryOpen",
					"outputs": [
						{
							"internalType": "bool",
							"name": "",
							"type": "bool"
						}
					],
					"stateMutability": "view",
					"type": "function"
				},
				{
					"inputs": [],
					"name": "owner",
					"outputs": [
						{
							"internalType": "address",
							"name": "",
							"type": "address"
						}
					],
					"stateMutability": "view",
					"type": "function"
				},
				{
					"inputs": [
						{
							"internalType": "uint256",
							"name": "",
							"type": "uint256"
						}
					],
					"name": "players",
					"outputs": [
						{
							"internalType": "address",
							"name": "",
							"type": "address"
						}
					],
					"stateMutability": "view",
					"type": "function"
				},
				{
					"inputs": [
						{
							"internalType": "uint256",
							"name": "_ticketPrice",
							"type": "uint256"
						}
					],
					"name": "startNewRound",
					"outputs": [],
					"stateMutability": "nonpayable",
					"type": "function"
				},
				{
					"inputs": [],
					"name": "ticketPrice",
					"outputs": [
						{
							"internalType": "uint256",
							"name": "",
							"type": "uint256"
						}
					],
					"stateMutability": "view",
					"type": "function"
				}
			],
			"devdoc": {
				"kind": "dev",
				"methods": {},
				"version": 1
			},
			"evm": {
				"assembly": "    /* \"DecentralizedLottery.sol\":1669:5281  contract DecentralizedLottery {... */\n  mstore(0x40, 0x80)\n    /* \"DecentralizedLottery.sol\":3196:3325  constructor(uint _ticketPrice){... */\n  callvalue\n  dup1\n  iszero\n  tag_1\n  jumpi\n  0x00\n  dup1\n  revert\ntag_1:\n  pop\n  mload(0x40)\n  sub(codesize, bytecodeSize)\n  dup1\n  bytecodeSize\n  dup4\n  codecopy\n  dup2\n  dup2\n  add\n  0x40\n  mstore\n  dup2\n  add\n  swap1\n  tag_2\n  swap2\n  swap1\n  tag_3\n  jump\t// in\ntag_2:\n    /* \"DecentralizedLottery.sol\":3244:3254  msg.sender */\n  caller\n    /* \"DecentralizedLottery.sol\":3236:3241  owner */\n  0x00\n  dup1\n    /* \"DecentralizedLottery.sol\":3236:3254  owner = msg.sender */\n  0x0100\n  exp\n  dup2\n  sload\n  dup2\n  0xffffffffffffffffffffffffffffffffffffffff\n  mul\n  not\n  and\n  swap1\n  dup4\n  0xffffffffffffffffffffffffffffffffffffffff\n  and\n  mul\n  or\n  swap1\n  sstore\n  pop\n    /* \"DecentralizedLottery.sol\":3278:3290  _ticketPrice */\n  dup1\n    /* \"DecentralizedLottery.sol\":3264:3275  ticketPrice */\n  0x02\n    /* \"DecentralizedLottery.sol\":3264:3290  ticketPrice = _ticketPrice */\n  dup2\n  swap1\n  sstore\n  pop\n    /* \"DecentralizedLottery.sol\":3314:3318  true */\n  0x01\n    /* \"DecentralizedLottery.sol\":3300:3311  lotteryOpen */\n  0x03\n  0x00\n    /* \"DecentralizedLottery.sol\":3300:3318  lotteryOpen = true */\n  0x0100\n  exp\n  dup2\n  sload\n  dup2\n  0xff\n  mul\n  not\n  and\n  swap1\n  dup4\n  iszero\n  iszero\n  mul\n  or\n  swap1\n  sstore\n  pop\n    /* \"DecentralizedLottery.sol\":3196:3325  constructor(uint _ticketPrice){... */\n  pop\n    /* \"DecentralizedLottery.sol\":1669:5281  contract DecentralizedLottery {... */\n  jump(tag_6)\n    /* \"#utility.yul\":88:205   */\ntag_8:\n    /* \"#utility.yul\":197:198   */\n  0x00\n    /* \"#utility.yul\":194:195   */\n  dup1\n    /* \"#utility.yul\":187:199   */\n  revert\n    /* \"#utility.yul\":334:411   */\ntag_10:\n    /* \"#utility.yul\":371:378   */\n  0x00\n    /* \"#utility.yul\":400:405   */\n  dup2\n    /* \"#utility.yul\":389:405   */\n  swap1\n  pop\n    /* \"#utility.yul\":334:411   */\n  swap2\n  swap1\n  pop\n  jump\t// out\n    /* \"#utility.yul\":417:539   */\ntag_11:\n    /* \"#utility.yul\":490:514   */\n  tag_19\n    /* \"#utility.yul\":508:513   */\n  dup2\n    /* \"#utility.yul\":490:514   */\n  tag_10\n  jump\t// in\ntag_19:\n    /* \"#utility.yul\":483:488   */\n  dup2\n    /* \"#utility.yul\":480:515   */\n  eq\n    /* \"#utility.yul\":470:533   */\n  tag_20\n  jumpi\n    /* \"#utility.yul\":529:530   */\n  0x00\n    /* \"#utility.yul\":526:527   */\n  dup1\n    /* \"#utility.yul\":519:531   */\n  revert\n    /* \"#utility.yul\":470:533   */\ntag_20:\n    /* \"#utility.yul\":417:539   */\n  pop\n  jump\t// out\n    /* \"#utility.yul\":545:688   */\ntag_12:\n    /* \"#utility.yul\":602:607   */\n  0x00\n    /* \"#utility.yul\":633:639   */\n  dup2\n    /* \"#utility.yul\":627:640   */\n  mload\n    /* \"#utility.yul\":618:640   */\n  swap1\n  pop\n    /* \"#utility.yul\":649:682   */\n  tag_22\n    /* \"#utility.yul\":676:681   */\n  dup2\n    /* \"#utility.yul\":649:682   */\n  tag_11\n  jump\t// in\ntag_22:\n    /* \"#utility.yul\":545:688   */\n  swap3\n  swap2\n  pop\n  pop\n  jump\t// out\n    /* \"#utility.yul\":694:1045   */\ntag_3:\n    /* \"#utility.yul\":764:770   */\n  0x00\n    /* \"#utility.yul\":813:815   */\n  0x20\n    /* \"#utility.yul\":801:810   */\n  dup3\n    /* \"#utility.yul\":792:799   */\n  dup5\n    /* \"#utility.yul\":788:811   */\n  sub\n    /* \"#utility.yul\":784:816   */\n  slt\n    /* \"#utility.yul\":781:900   */\n  iszero\n  tag_24\n  jumpi\n    /* \"#utility.yul\":819:898   */\n  tag_25\n  tag_8\n  jump\t// in\ntag_25:\n    /* \"#utility.yul\":781:900   */\ntag_24:\n    /* \"#utility.yul\":939:940   */\n  0x00\n    /* \"#utility.yul\":964:1028   */\n  tag_26\n    /* \"#utility.yul\":1020:1027   */\n  dup5\n    /* \"#utility.yul\":1011:1017   */\n  dup3\n    /* \"#utility.yul\":1000:1009   */\n  dup6\n    /* \"#utility.yul\":996:1018   */\n  add\n    /* \"#utility.yul\":964:1028   */\n  tag_12\n  jump\t// in\ntag_26:\n    /* \"#utility.yul\":954:1028   */\n  swap2\n  pop\n    /* \"#utility.yul\":910:1038   */\n  pop\n    /* \"#utility.yul\":694:1045   */\n  swap3\n  swap2\n  pop\n  pop\n  jump\t// out\n    /* \"DecentralizedLottery.sol\":1669:5281  contract DecentralizedLottery {... */\ntag_6:\n  dataSize(sub_0)\n  dup1\n  dataOffset(sub_0)\n  0x00\n  codecopy\n  0x00\n  return\nstop\n\nsub_0: assembly {\n        /* \"DecentralizedLottery.sol\":1669:5281  contract DecentralizedLottery {... */\n      mstore(0x40, 0x80)\n      jumpi(tag_1, lt(calldatasize, 0x04))\n      shr(0xe0, calldataload(0x00))\n      dup1\n      0xb2185bb1\n      gt\n      tag_12\n      jumpi\n      dup1\n      0xb2185bb1\n      eq\n      tag_7\n      jumpi\n      dup1\n      0xc60c4ae9\n      eq\n      tag_8\n      jumpi\n      dup1\n      0xd10b4561\n      eq\n      tag_9\n      jumpi\n      dup1\n      0xedca914c\n      eq\n      tag_10\n      jumpi\n      dup1\n      0xf71d96cb\n      eq\n      tag_11\n      jumpi\n      jump(tag_1)\n    tag_12:\n      dup1\n      0x1209b1f6\n      eq\n      tag_2\n      jumpi\n      dup1\n      0x3308f42d\n      eq\n      tag_3\n      jumpi\n      dup1\n      0x4615102c\n      eq\n      tag_4\n      jumpi\n      dup1\n      0x48ef3f03\n      eq\n      tag_5\n      jumpi\n      dup1\n      0x8da5cb5b\n      eq\n      tag_6\n      jumpi\n    tag_1:\n      0x00\n      dup1\n      revert\n        /* \"DecentralizedLottery.sol\":1761:1784  uint public ticketPrice */\n    tag_2:\n      callvalue\n      dup1\n      iszero\n      tag_13\n      jumpi\n      0x00\n      dup1\n      revert\n    tag_13:\n      pop\n      tag_14\n      tag_15\n      jump\t// in\n    tag_14:\n      mload(0x40)\n      tag_16\n      swap2\n      swap1\n      tag_17\n      jump\t// in\n    tag_16:\n      mload(0x40)\n      dup1\n      swap2\n      sub\n      swap1\n      return\n        /* \"DecentralizedLottery.sol\":5183:5274  function getPlayer() public view returns (address[] memory) {... */\n    tag_3:\n      callvalue\n      dup1\n      iszero\n      tag_18\n      jumpi\n      0x00\n      dup1\n      revert\n    tag_18:\n      pop\n      tag_19\n      tag_20\n      jump\t// in\n    tag_19:\n      mload(0x40)\n      tag_21\n      swap2\n      swap1\n      tag_22\n      jump\t// in\n    tag_21:\n      mload(0x40)\n      dup1\n      swap2\n      sub\n      swap1\n      return\n        /* \"DecentralizedLottery.sol\":4984:5177  function startNewRound(uint _ticketPrice) public onlyOwner {... */\n    tag_4:\n      callvalue\n      dup1\n      iszero\n      tag_23\n      jumpi\n      0x00\n      dup1\n      revert\n    tag_23:\n      pop\n      tag_24\n      0x04\n      dup1\n      calldatasize\n      sub\n      dup2\n      add\n      swap1\n      tag_25\n      swap2\n      swap1\n      tag_26\n      jump\t// in\n    tag_25:\n      tag_27\n      jump\t// in\n    tag_24:\n      stop\n        /* \"DecentralizedLottery.sol\":2205:2237  lotteryAccounts[] public Players */\n    tag_5:\n      callvalue\n      dup1\n      iszero\n      tag_28\n      jumpi\n      0x00\n      dup1\n      revert\n    tag_28:\n      pop\n      tag_29\n      0x04\n      dup1\n      calldatasize\n      sub\n      dup2\n      add\n      swap1\n      tag_30\n      swap2\n      swap1\n      tag_26\n      jump\t// in\n    tag_30:\n      tag_31\n      jump\t// in\n    tag_29:\n      mload(0x40)\n      tag_32\n      swap5\n      swap4\n      swap3\n      swap2\n      swap1\n      tag_33\n      jump\t// in\n    tag_32:\n      mload(0x40)\n      dup1\n      swap2\n      sub\n      swap1\n      return\n        /* \"DecentralizedLottery.sol\":1705:1725  address public owner */\n    tag_6:\n      callvalue\n      dup1\n      iszero\n      tag_34\n      jumpi\n      0x00\n      dup1\n      revert\n    tag_34:\n      pop\n      tag_35\n      tag_36\n      jump\t// in\n    tag_35:\n      mload(0x40)\n      tag_37\n      swap2\n      swap1\n      tag_38\n      jump\t// in\n    tag_37:\n      mload(0x40)\n      dup1\n      swap2\n      sub\n      swap1\n      return\n        /* \"DecentralizedLottery.sol\":4428:4978  function drawWinner() public onlyOwner {... */\n    tag_7:\n      callvalue\n      dup1\n      iszero\n      tag_39\n      jumpi\n      0x00\n      dup1\n      revert\n    tag_39:\n      pop\n      tag_40\n      tag_41\n      jump\t// in\n    tag_40:\n      stop\n        /* \"DecentralizedLottery.sol\":1790:1813  bool public lotteryOpen */\n    tag_8:\n      callvalue\n      dup1\n      iszero\n      tag_42\n      jumpi\n      0x00\n      dup1\n      revert\n    tag_42:\n      pop\n      tag_43\n      tag_44\n      jump\t// in\n    tag_43:\n      mload(0x40)\n      tag_45\n      swap2\n      swap1\n      tag_46\n      jump\t// in\n    tag_45:\n      mload(0x40)\n      dup1\n      swap2\n      sub\n      swap1\n      return\n        /* \"DecentralizedLottery.sol\":2395:2444  function InitializeAccounts() public {... */\n    tag_9:\n      callvalue\n      dup1\n      iszero\n      tag_47\n      jumpi\n      0x00\n      dup1\n      revert\n    tag_47:\n      pop\n      tag_48\n      tag_49\n      jump\t// in\n    tag_48:\n      stop\n        /* \"DecentralizedLottery.sol\":3569:4422  function buyTicket() public payable isLotteryOpen {... */\n    tag_10:\n      tag_50\n      tag_51\n      jump\t// in\n    tag_50:\n      stop\n        /* \"DecentralizedLottery.sol\":1731:1755  address[] public players */\n    tag_11:\n      callvalue\n      dup1\n      iszero\n      tag_52\n      jumpi\n      0x00\n      dup1\n      revert\n    tag_52:\n      pop\n      tag_53\n      0x04\n      dup1\n      calldatasize\n      sub\n      dup2\n      add\n      swap1\n      tag_54\n      swap2\n      swap1\n      tag_26\n      jump\t// in\n    tag_54:\n      tag_55\n      jump\t// in\n    tag_53:\n      mload(0x40)\n      tag_56\n      swap2\n      swap1\n      tag_38\n      jump\t// in\n    tag_56:\n      mload(0x40)\n      dup1\n      swap2\n      sub\n      swap1\n      return\n        /* \"DecentralizedLottery.sol\":1761:1784  uint public ticketPrice */\n    tag_15:\n      sload(0x02)\n      dup2\n      jump\t// out\n        /* \"DecentralizedLottery.sol\":5183:5274  function getPlayer() public view returns (address[] memory) {... */\n    tag_20:\n        /* \"DecentralizedLottery.sol\":5225:5241  address[] memory */\n      0x60\n        /* \"DecentralizedLottery.sol\":5260:5267  players */\n      0x01\n        /* \"DecentralizedLottery.sol\":5253:5267  return players */\n      dup1\n      sload\n      dup1\n      0x20\n      mul\n      0x20\n      add\n      mload(0x40)\n      swap1\n      dup2\n      add\n      0x40\n      mstore\n      dup1\n      swap3\n      swap2\n      swap1\n      dup2\n      dup2\n      mstore\n      0x20\n      add\n      dup3\n      dup1\n      sload\n      dup1\n      iszero\n      tag_58\n      jumpi\n      0x20\n      mul\n      dup3\n      add\n      swap2\n      swap1\n      0x00\n      mstore\n      keccak256(0x00, 0x20)\n      swap1\n    tag_59:\n      dup2\n      0x00\n      swap1\n      sload\n      swap1\n      0x0100\n      exp\n      swap1\n      div\n      0xffffffffffffffffffffffffffffffffffffffff\n      and\n      0xffffffffffffffffffffffffffffffffffffffff\n      and\n      dup2\n      mstore\n      0x20\n      add\n      swap1\n      0x01\n      add\n      swap1\n      dup1\n      dup4\n      gt\n      tag_59\n      jumpi\n    tag_58:\n      pop\n      pop\n      pop\n      pop\n      pop\n      swap1\n      pop\n        /* \"DecentralizedLottery.sol\":5183:5274  function getPlayer() public view returns (address[] memory) {... */\n      swap1\n      jump\t// out\n        /* \"DecentralizedLottery.sol\":4984:5177  function startNewRound(uint _ticketPrice) public onlyOwner {... */\n    tag_27:\n        /* \"DecentralizedLottery.sol\":3384:3389  owner */\n      0x00\n      dup1\n      sload\n      swap1\n      0x0100\n      exp\n      swap1\n      div\n      0xffffffffffffffffffffffffffffffffffffffff\n      and\n        /* \"DecentralizedLottery.sol\":3370:3389  msg.sender == owner */\n      0xffffffffffffffffffffffffffffffffffffffff\n      and\n        /* \"DecentralizedLottery.sol\":3370:3380  msg.sender */\n      caller\n        /* \"DecentralizedLottery.sol\":3370:3389  msg.sender == owner */\n      0xffffffffffffffffffffffffffffffffffffffff\n      and\n      eq\n        /* \"DecentralizedLottery.sol\":3362:3441  require(msg.sender == owner, \"Only the owner can perform this action\"... */\n      tag_61\n      jumpi\n      mload(0x40)\n      0x08c379a000000000000000000000000000000000000000000000000000000000\n      dup2\n      mstore\n      0x04\n      add\n      tag_62\n      swap1\n      tag_63\n      jump\t// in\n    tag_62:\n      mload(0x40)\n      dup1\n      swap2\n      sub\n      swap1\n      revert\n    tag_61:\n        /* \"DecentralizedLottery.sol\":5062:5073  lotteryOpen */\n      0x03\n      0x00\n      swap1\n      sload\n      swap1\n      0x0100\n      exp\n      swap1\n      div\n      0xff\n      and\n        /* \"DecentralizedLottery.sol\":5061:5073  !lotteryOpen */\n      iszero\n        /* \"DecentralizedLottery.sol\":5053:5106  require(!lotteryOpen, \"Current lottery still active\") */\n      tag_65\n      jumpi\n      mload(0x40)\n      0x08c379a000000000000000000000000000000000000000000000000000000000\n      dup2\n      mstore\n      0x04\n      add\n      tag_66\n      swap1\n      tag_67\n      jump\t// in\n    tag_66:\n      mload(0x40)\n      dup1\n      swap2\n      sub\n      swap1\n      revert\n    tag_65:\n        /* \"DecentralizedLottery.sol\":5130:5142  _ticketPrice */\n      dup1\n        /* \"DecentralizedLottery.sol\":5116:5127  ticketPrice */\n      0x02\n        /* \"DecentralizedLottery.sol\":5116:5142  ticketPrice = _ticketPrice */\n      dup2\n      swap1\n      sstore\n      pop\n        /* \"DecentralizedLottery.sol\":5166:5170  true */\n      0x01\n        /* \"DecentralizedLottery.sol\":5152:5163  lotteryOpen */\n      0x03\n      0x00\n        /* \"DecentralizedLottery.sol\":5152:5170  lotteryOpen = true */\n      0x0100\n      exp\n      dup2\n      sload\n      dup2\n      0xff\n      mul\n      not\n      and\n      swap1\n      dup4\n      iszero\n      iszero\n      mul\n      or\n      swap1\n      sstore\n      pop\n        /* \"DecentralizedLottery.sol\":4984:5177  function startNewRound(uint _ticketPrice) public onlyOwner {... */\n      pop\n      jump\t// out\n        /* \"DecentralizedLottery.sol\":2205:2237  lotteryAccounts[] public Players */\n    tag_31:\n      0x05\n      dup2\n      dup2\n      sload\n      dup2\n      lt\n      tag_68\n      jumpi\n      0x00\n      dup1\n      revert\n    tag_68:\n      swap1\n      0x00\n      mstore\n      keccak256(0x00, 0x20)\n      swap1\n      0x04\n      mul\n      add\n      0x00\n      swap2\n      pop\n      swap1\n      pop\n      dup1\n      0x00\n      add\n      0x00\n      swap1\n      sload\n      swap1\n      0x0100\n      exp\n      swap1\n      div\n      0xffffffffffffffffffffffffffffffffffffffff\n      and\n      swap1\n      dup1\n      0x01\n      add\n      dup1\n      sload\n      tag_70\n      swap1\n      tag_71\n      jump\t// in\n    tag_70:\n      dup1\n      0x1f\n      add\n      0x20\n      dup1\n      swap2\n      div\n      mul\n      0x20\n      add\n      mload(0x40)\n      swap1\n      dup2\n      add\n      0x40\n      mstore\n      dup1\n      swap3\n      swap2\n      swap1\n      dup2\n      dup2\n      mstore\n      0x20\n      add\n      dup3\n      dup1\n      sload\n      tag_72\n      swap1\n      tag_71\n      jump\t// in\n    tag_72:\n      dup1\n      iszero\n      tag_73\n      jumpi\n      dup1\n      0x1f\n      lt\n      tag_74\n      jumpi\n      0x0100\n      dup1\n      dup4\n      sload\n      div\n      mul\n      dup4\n      mstore\n      swap2\n      0x20\n      add\n      swap2\n      jump(tag_73)\n    tag_74:\n      dup3\n      add\n      swap2\n      swap1\n      0x00\n      mstore\n      keccak256(0x00, 0x20)\n      swap1\n    tag_75:\n      dup2\n      sload\n      dup2\n      mstore\n      swap1\n      0x01\n      add\n      swap1\n      0x20\n      add\n      dup1\n      dup4\n      gt\n      tag_75\n      jumpi\n      dup3\n      swap1\n      sub\n      0x1f\n      and\n      dup3\n      add\n      swap2\n    tag_73:\n      pop\n      pop\n      pop\n      pop\n      pop\n      swap1\n      dup1\n      0x02\n      add\n      dup1\n      sload\n      tag_76\n      swap1\n      tag_71\n      jump\t// in\n    tag_76:\n      dup1\n      0x1f\n      add\n      0x20\n      dup1\n      swap2\n      div\n      mul\n      0x20\n      add\n      mload(0x40)\n      swap1\n      dup2\n      add\n      0x40\n      mstore\n      dup1\n      swap3\n      swap2\n      swap1\n      dup2\n      dup2\n      mstore\n      0x20\n      add\n      dup3\n      dup1\n      sload\n      tag_77\n      swap1\n      tag_71\n      jump\t// in\n    tag_77:\n      dup1\n      iszero\n      tag_78\n      jumpi\n      dup1\n      0x1f\n      lt\n      tag_79\n      jumpi\n      0x0100\n      dup1\n      dup4\n      sload\n      div\n      mul\n      dup4\n      mstore\n      swap2\n      0x20\n      add\n      swap2\n      jump(tag_78)\n    tag_79:\n      dup3\n      add\n      swap2\n      swap1\n      0x00\n      mstore\n      keccak256(0x00, 0x20)\n      swap1\n    tag_80:\n      dup2\n      sload\n      dup2\n      mstore\n      swap1\n      0x01\n      add\n      swap1\n      0x20\n      add\n      dup1\n      dup4\n      gt\n      tag_80\n      jumpi\n      dup3\n      swap1\n      sub\n      0x1f\n      and\n      dup3\n      add\n      swap2\n    tag_78:\n      pop\n      pop\n      pop\n      pop\n      pop\n      swap1\n      dup1\n      0x03\n      add\n      sload\n      swap1\n      pop\n      dup5\n      jump\t// out\n        /* \"DecentralizedLottery.sol\":1705:1725  address public owner */\n    tag_36:\n      0x00\n      dup1\n      sload\n      swap1\n      0x0100\n      exp\n      swap1\n      div\n      0xffffffffffffffffffffffffffffffffffffffff\n      and\n      dup2\n      jump\t// out\n        /* \"DecentralizedLottery.sol\":4428:4978  function drawWinner() public onlyOwner {... */\n    tag_41:\n        /* \"DecentralizedLottery.sol\":3384:3389  owner */\n      0x00\n      dup1\n      sload\n      swap1\n      0x0100\n      exp\n      swap1\n      div\n      0xffffffffffffffffffffffffffffffffffffffff\n      and\n        /* \"DecentralizedLottery.sol\":3370:3389  msg.sender == owner */\n      0xffffffffffffffffffffffffffffffffffffffff\n      and\n        /* \"DecentralizedLottery.sol\":3370:3380  msg.sender */\n      caller\n        /* \"DecentralizedLottery.sol\":3370:3389  msg.sender == owner */\n      0xffffffffffffffffffffffffffffffffffffffff\n      and\n      eq\n        /* \"DecentralizedLottery.sol\":3362:3441  require(msg.sender == owner, \"Only the owner can perform this action\"... */\n      tag_82\n      jumpi\n      mload(0x40)\n      0x08c379a000000000000000000000000000000000000000000000000000000000\n      dup2\n      mstore\n      0x04\n      add\n      tag_83\n      swap1\n      tag_63\n      jump\t// in\n    tag_83:\n      mload(0x40)\n      dup1\n      swap2\n      sub\n      swap1\n      revert\n    tag_82:\n        /* \"DecentralizedLottery.sol\":4502:4503  0 */\n      0x00\n        /* \"DecentralizedLottery.sol\":4485:4492  players */\n      0x01\n        /* \"DecentralizedLottery.sol\":4485:4499  players.length */\n      dup1\n      sload\n      swap1\n      pop\n        /* \"DecentralizedLottery.sol\":4485:4503  players.length > 0 */\n      gt\n        /* \"DecentralizedLottery.sol\":4477:4533  require(players.length > 0, \"No players in the lottery\") */\n      tag_85\n      jumpi\n      mload(0x40)\n      0x08c379a000000000000000000000000000000000000000000000000000000000\n      dup2\n      mstore\n      0x04\n      add\n      tag_86\n      swap1\n      tag_87\n      jump\t// in\n    tag_86:\n      mload(0x40)\n      dup1\n      swap2\n      sub\n      swap1\n      revert\n    tag_85:\n        /* \"DecentralizedLottery.sol\":4544:4560  uint randomIndex */\n      0x00\n        /* \"DecentralizedLottery.sol\":4643:4650  players */\n      0x01\n        /* \"DecentralizedLottery.sol\":4643:4657  players.length */\n      dup1\n      sload\n      swap1\n      pop\n        /* \"DecentralizedLottery.sol\":4595:4610  block.timestamp */\n      timestamp\n        /* \"DecentralizedLottery.sol\":4612:4628  block.prevrandao */\n      prevrandao\n        /* \"DecentralizedLottery.sol\":4630:4637  players */\n      0x01\n        /* \"DecentralizedLottery.sol\":4578:4638  abi.encodePacked(block.timestamp, block.prevrandao, players) */\n      add(0x20, mload(0x40))\n      tag_88\n      swap4\n      swap3\n      swap2\n      swap1\n      tag_89\n      jump\t// in\n    tag_88:\n      mload(0x40)\n      0x20\n      dup2\n      dup4\n      sub\n      sub\n      dup2\n      mstore\n      swap1\n      0x40\n      mstore\n        /* \"DecentralizedLottery.sol\":4568:4639  keccak256(abi.encodePacked(block.timestamp, block.prevrandao, players)) */\n      dup1\n      mload\n      swap1\n      0x20\n      add\n      keccak256\n        /* \"DecentralizedLottery.sol\":4563:4640  uint(keccak256(abi.encodePacked(block.timestamp, block.prevrandao, players))) */\n      0x00\n      shr\n        /* \"DecentralizedLottery.sol\":4563:4657  uint(keccak256(abi.encodePacked(block.timestamp, block.prevrandao, players))) % players.length */\n      tag_90\n      swap2\n      swap1\n      tag_91\n      jump\t// in\n    tag_90:\n        /* \"DecentralizedLottery.sol\":4544:4657  uint randomIndex = uint(keccak256(abi.encodePacked(block.timestamp, block.prevrandao, players))) % players.length */\n      swap1\n      pop\n        /* \"DecentralizedLottery.sol\":4667:4681  address winner */\n      0x00\n        /* \"DecentralizedLottery.sol\":4684:4691  players */\n      0x01\n        /* \"DecentralizedLottery.sol\":4692:4703  randomIndex */\n      dup3\n        /* \"DecentralizedLottery.sol\":4684:4704  players[randomIndex] */\n      dup2\n      sload\n      dup2\n      lt\n      tag_92\n      jumpi\n      tag_93\n      tag_94\n      jump\t// in\n    tag_93:\n    tag_92:\n      swap1\n      0x00\n      mstore\n      keccak256(0x00, 0x20)\n      add\n      0x00\n      swap1\n      sload\n      swap1\n      0x0100\n      exp\n      swap1\n      div\n      0xffffffffffffffffffffffffffffffffffffffff\n      and\n        /* \"DecentralizedLottery.sol\":4667:4704  address winner = players[randomIndex] */\n      swap1\n      pop\n        /* \"DecentralizedLottery.sol\":4714:4724  uint prize */\n      0x00\n        /* \"DecentralizedLottery.sol\":4727:4748  address(this).balance */\n      selfbalance\n        /* \"DecentralizedLottery.sol\":4714:4748  uint prize = address(this).balance */\n      swap1\n      pop\n        /* \"DecentralizedLottery.sol\":4760:4772  bool success */\n      0x00\n        /* \"DecentralizedLottery.sol\":4778:4784  winner */\n      dup3\n        /* \"DecentralizedLottery.sol\":4778:4789  winner.call */\n      0xffffffffffffffffffffffffffffffffffffffff\n      and\n        /* \"DecentralizedLottery.sol\":4797:4802  prize */\n      dup3\n        /* \"DecentralizedLottery.sol\":4778:4807  winner.call{value: prize}(\"\") */\n      mload(0x40)\n      tag_96\n      swap1\n      tag_97\n      jump\t// in\n    tag_96:\n      0x00\n      mload(0x40)\n      dup1\n      dup4\n      sub\n      dup2\n      dup6\n      dup8\n      gas\n      call\n      swap3\n      pop\n      pop\n      pop\n      returndatasize\n      dup1\n      0x00\n      dup2\n      eq\n      tag_100\n      jumpi\n      mload(0x40)\n      swap2\n      pop\n      and(add(returndatasize, 0x3f), not(0x1f))\n      dup3\n      add\n      0x40\n      mstore\n      returndatasize\n      dup3\n      mstore\n      returndatasize\n      0x00\n      0x20\n      dup5\n      add\n      returndatacopy\n      jump(tag_99)\n    tag_100:\n      0x60\n      swap2\n      pop\n    tag_99:\n      pop\n        /* \"DecentralizedLottery.sol\":4759:4807  (bool success, ) = winner.call{value: prize}(\"\") */\n      pop\n      swap1\n      pop\n        /* \"DecentralizedLottery.sol\":4825:4832  success */\n      dup1\n        /* \"DecentralizedLottery.sol\":4817:4858  require(success, \"Prize transfer failed\") */\n      tag_101\n      jumpi\n      mload(0x40)\n      0x08c379a000000000000000000000000000000000000000000000000000000000\n      dup2\n      mstore\n      0x04\n      add\n      tag_102\n      swap1\n      tag_103\n      jump\t// in\n    tag_102:\n      mload(0x40)\n      dup1\n      swap2\n      sub\n      swap1\n      revert\n    tag_101:\n        /* \"DecentralizedLottery.sol\":4889:4895  winner */\n      dup3\n        /* \"DecentralizedLottery.sol\":4874:4903  WinnerSelected(winner, prize) */\n      0xffffffffffffffffffffffffffffffffffffffff\n      and\n      0x75060f9e79552df167b73353fee6237a75bb5ba8ea022f77224e32f152138bcb\n        /* \"DecentralizedLottery.sol\":4897:4902  prize */\n      dup4\n        /* \"DecentralizedLottery.sol\":4874:4903  WinnerSelected(winner, prize) */\n      mload(0x40)\n      tag_104\n      swap2\n      swap1\n      tag_17\n      jump\t// in\n    tag_104:\n      mload(0x40)\n      dup1\n      swap2\n      sub\n      swap1\n      log2\n        /* \"DecentralizedLottery.sol\":4938:4939  0 */\n      0x00\n        /* \"DecentralizedLottery.sol\":4924:4940  new address[](0) */\n      0xffffffffffffffff\n      dup2\n      gt\n      iszero\n      tag_105\n      jumpi\n      tag_106\n      tag_107\n      jump\t// in\n    tag_106:\n    tag_105:\n      mload(0x40)\n      swap1\n      dup1\n      dup3\n      mstore\n      dup1\n      0x20\n      mul\n      0x20\n      add\n      dup3\n      add\n      0x40\n      mstore\n      dup1\n      iszero\n      tag_108\n      jumpi\n      dup2\n      0x20\n      add\n      0x20\n      dup3\n      mul\n      dup1\n      calldatasize\n      dup4\n      calldatacopy\n      dup1\n      dup3\n      add\n      swap2\n      pop\n      pop\n      swap1\n      pop\n    tag_108:\n      pop\n        /* \"DecentralizedLottery.sol\":4914:4921  players */\n      0x01\n        /* \"DecentralizedLottery.sol\":4914:4940  players = new address[](0) */\n      swap1\n      dup1\n      mload\n      swap1\n      0x20\n      add\n      swap1\n      tag_109\n      swap3\n      swap2\n      swap1\n      tag_110\n      jump\t// in\n    tag_109:\n      pop\n        /* \"DecentralizedLottery.sol\":4966:4971  false */\n      0x00\n        /* \"DecentralizedLottery.sol\":4952:4963  lotteryOpen */\n      0x03\n      0x00\n        /* \"DecentralizedLottery.sol\":4952:4971  lotteryOpen = false */\n      0x0100\n      exp\n      dup2\n      sload\n      dup2\n      0xff\n      mul\n      not\n      and\n      swap1\n      dup4\n      iszero\n      iszero\n      mul\n      or\n      swap1\n      sstore\n      pop\n        /* \"DecentralizedLottery.sol\":4467:4978  {... */\n      pop\n      pop\n      pop\n      pop\n        /* \"DecentralizedLottery.sol\":4428:4978  function drawWinner() public onlyOwner {... */\n      jump\t// out\n        /* \"DecentralizedLottery.sol\":1790:1813  bool public lotteryOpen */\n    tag_44:\n      0x03\n      0x00\n      swap1\n      sload\n      swap1\n      0x0100\n      exp\n      swap1\n      div\n      0xff\n      and\n      dup2\n      jump\t// out\n        /* \"DecentralizedLottery.sol\":2395:2444  function InitializeAccounts() public {... */\n    tag_49:\n      jump\t// out\n        /* \"DecentralizedLottery.sol\":3569:4422  function buyTicket() public payable isLotteryOpen {... */\n    tag_51:\n        /* \"DecentralizedLottery.sol\":3508:3519  lotteryOpen */\n      0x03\n      0x00\n      swap1\n      sload\n      swap1\n      0x0100\n      exp\n      swap1\n      div\n      0xff\n      and\n        /* \"DecentralizedLottery.sol\":3500:3545  require(lotteryOpen, \"The lottery is closed\") */\n      tag_113\n      jumpi\n      mload(0x40)\n      0x08c379a000000000000000000000000000000000000000000000000000000000\n      dup2\n      mstore\n      0x04\n      add\n      tag_114\n      swap1\n      tag_115\n      jump\t// in\n    tag_114:\n      mload(0x40)\n      dup1\n      swap2\n      sub\n      swap1\n      revert\n    tag_113:\n        /* \"DecentralizedLottery.sol\":3998:4009  ticketPrice */\n      sload(0x02)\n        /* \"DecentralizedLottery.sol\":3985:3994  msg.value */\n      callvalue\n        /* \"DecentralizedLottery.sol\":3985:4009  msg.value >= ticketPrice */\n      lt\n      iszero\n        /* \"DecentralizedLottery.sol\":3977:4062  require(msg.value >= ticketPrice, \"Insufficient Funds Available For Ticket Purchase\") */\n      tag_117\n      jumpi\n      mload(0x40)\n      0x08c379a000000000000000000000000000000000000000000000000000000000\n      dup2\n      mstore\n      0x04\n      add\n      tag_118\n      swap1\n      tag_119\n      jump\t// in\n    tag_118:\n      mload(0x40)\n      dup1\n      swap2\n      sub\n      swap1\n      revert\n    tag_117:\n        /* \"DecentralizedLottery.sol\":4193:4200  players */\n      0x01\n        /* \"DecentralizedLottery.sol\":4206:4216  msg.sender */\n      caller\n        /* \"DecentralizedLottery.sol\":4193:4217  players.push(msg.sender) */\n      swap1\n      dup1\n      0x01\n      dup2\n      sload\n      add\n      dup1\n      dup3\n      sstore\n      dup1\n      swap2\n      pop\n      pop\n      0x01\n      swap1\n      sub\n      swap1\n      0x00\n      mstore\n      keccak256(0x00, 0x20)\n      add\n      0x00\n      swap1\n      swap2\n      swap1\n      swap2\n      swap1\n      swap2\n      0x0100\n      exp\n      dup2\n      sload\n      dup2\n      0xffffffffffffffffffffffffffffffffffffffff\n      mul\n      not\n      and\n      swap1\n      dup4\n      0xffffffffffffffffffffffffffffffffffffffff\n      and\n      mul\n      or\n      swap1\n      sstore\n      pop\n        /* \"DecentralizedLottery.sol\":4390:4400  msg.sender */\n      caller\n        /* \"DecentralizedLottery.sol\":4374:4414  TicketPurchased(msg.sender, ticketPrice) */\n      0xffffffffffffffffffffffffffffffffffffffff\n      and\n      0x0668f5b446eb814fe35b3206f43f14bd8567ba04ddaf7a3ee56516929ab22ccb\n        /* \"DecentralizedLottery.sol\":4402:4413  ticketPrice */\n      sload(0x02)\n        /* \"DecentralizedLottery.sol\":4374:4414  TicketPurchased(msg.sender, ticketPrice) */\n      mload(0x40)\n      tag_121\n      swap2\n      swap1\n      tag_17\n      jump\t// in\n    tag_121:\n      mload(0x40)\n      dup1\n      swap2\n      sub\n      swap1\n      log2\n        /* \"DecentralizedLottery.sol\":3569:4422  function buyTicket() public payable isLotteryOpen {... */\n      jump\t// out\n        /* \"DecentralizedLottery.sol\":1731:1755  address[] public players */\n    tag_55:\n      0x01\n      dup2\n      dup2\n      sload\n      dup2\n      lt\n      tag_122\n      jumpi\n      0x00\n      dup1\n      revert\n    tag_122:\n      swap1\n      0x00\n      mstore\n      keccak256(0x00, 0x20)\n      add\n      0x00\n      swap2\n      pop\n      sload\n      swap1\n      0x0100\n      exp\n      swap1\n      div\n      0xffffffffffffffffffffffffffffffffffffffff\n      and\n      dup2\n      jump\t// out\n    tag_110:\n      dup3\n      dup1\n      sload\n      dup3\n      dup3\n      sstore\n      swap1\n      0x00\n      mstore\n      keccak256(0x00, 0x20)\n      swap1\n      dup2\n      add\n      swap3\n      dup3\n      iszero\n      tag_124\n      jumpi\n      swap2\n      0x20\n      mul\n      dup3\n      add\n    tag_125:\n      dup3\n      dup2\n      gt\n      iszero\n      tag_126\n      jumpi\n      dup3\n      mload\n      dup3\n      exp(0x0100, 0x00)\n      dup2\n      sload\n      dup2\n      0xffffffffffffffffffffffffffffffffffffffff\n      mul\n      not\n      and\n      swap1\n      dup4\n      0xffffffffffffffffffffffffffffffffffffffff\n      and\n      mul\n      or\n      swap1\n      sstore\n      pop\n      swap2\n      0x20\n      add\n      swap2\n      swap1\n      0x01\n      add\n      swap1\n      jump(tag_125)\n    tag_126:\n    tag_124:\n      pop\n      swap1\n      pop\n      tag_127\n      swap2\n      swap1\n      tag_128\n      jump\t// in\n    tag_127:\n      pop\n      swap1\n      jump\t// out\n    tag_128:\n    tag_129:\n      dup1\n      dup3\n      gt\n      iszero\n      tag_130\n      jumpi\n      0x00\n      dup2\n      0x00\n      swap1\n      sstore\n      pop\n      0x01\n      add\n      jump(tag_129)\n    tag_130:\n      pop\n      swap1\n      jump\t// out\n        /* \"#utility.yul\":7:84   */\n    tag_131:\n        /* \"#utility.yul\":44:51   */\n      0x00\n        /* \"#utility.yul\":73:78   */\n      dup2\n        /* \"#utility.yul\":62:78   */\n      swap1\n      pop\n        /* \"#utility.yul\":7:84   */\n      swap2\n      swap1\n      pop\n      jump\t// out\n        /* \"#utility.yul\":90:208   */\n    tag_132:\n        /* \"#utility.yul\":177:201   */\n      tag_188\n        /* \"#utility.yul\":195:200   */\n      dup2\n        /* \"#utility.yul\":177:201   */\n      tag_131\n      jump\t// in\n    tag_188:\n        /* \"#utility.yul\":172:175   */\n      dup3\n        /* \"#utility.yul\":165:202   */\n      mstore\n        /* \"#utility.yul\":90:208   */\n      pop\n      pop\n      jump\t// out\n        /* \"#utility.yul\":214:436   */\n    tag_17:\n        /* \"#utility.yul\":307:311   */\n      0x00\n        /* \"#utility.yul\":345:347   */\n      0x20\n        /* \"#utility.yul\":334:343   */\n      dup3\n        /* \"#utility.yul\":330:348   */\n      add\n        /* \"#utility.yul\":322:348   */\n      swap1\n      pop\n        /* \"#utility.yul\":358:429   */\n      tag_190\n        /* \"#utility.yul\":426:427   */\n      0x00\n        /* \"#utility.yul\":415:424   */\n      dup4\n        /* \"#utility.yul\":411:428   */\n      add\n        /* \"#utility.yul\":402:408   */\n      dup5\n        /* \"#utility.yul\":358:429   */\n      tag_132\n      jump\t// in\n    tag_190:\n        /* \"#utility.yul\":214:436   */\n      swap3\n      swap2\n      pop\n      pop\n      jump\t// out\n        /* \"#utility.yul\":442:556   */\n    tag_133:\n        /* \"#utility.yul\":509:515   */\n      0x00\n        /* \"#utility.yul\":543:548   */\n      dup2\n        /* \"#utility.yul\":537:549   */\n      mload\n        /* \"#utility.yul\":527:549   */\n      swap1\n      pop\n        /* \"#utility.yul\":442:556   */\n      swap2\n      swap1\n      pop\n      jump\t// out\n        /* \"#utility.yul\":562:746   */\n    tag_134:\n        /* \"#utility.yul\":661:672   */\n      0x00\n        /* \"#utility.yul\":695:701   */\n      dup3\n        /* \"#utility.yul\":690:693   */\n      dup3\n        /* \"#utility.yul\":683:702   */\n      mstore\n        /* \"#utility.yul\":735:739   */\n      0x20\n        /* \"#utility.yul\":730:733   */\n      dup3\n        /* \"#utility.yul\":726:740   */\n      add\n        /* \"#utility.yul\":711:740   */\n      swap1\n      pop\n        /* \"#utility.yul\":562:746   */\n      swap3\n      swap2\n      pop\n      pop\n      jump\t// out\n        /* \"#utility.yul\":752:884   */\n    tag_135:\n        /* \"#utility.yul\":819:823   */\n      0x00\n        /* \"#utility.yul\":842:845   */\n      dup2\n        /* \"#utility.yul\":834:845   */\n      swap1\n      pop\n        /* \"#utility.yul\":872:876   */\n      0x20\n        /* \"#utility.yul\":867:870   */\n      dup3\n        /* \"#utility.yul\":863:877   */\n      add\n        /* \"#utility.yul\":855:877   */\n      swap1\n      pop\n        /* \"#utility.yul\":752:884   */\n      swap2\n      swap1\n      pop\n      jump\t// out\n        /* \"#utility.yul\":890:1016   */\n    tag_136:\n        /* \"#utility.yul\":927:934   */\n      0x00\n        /* \"#utility.yul\":967:1009   */\n      0xffffffffffffffffffffffffffffffffffffffff\n        /* \"#utility.yul\":960:965   */\n      dup3\n        /* \"#utility.yul\":956:1010   */\n      and\n        /* \"#utility.yul\":945:1010   */\n      swap1\n      pop\n        /* \"#utility.yul\":890:1016   */\n      swap2\n      swap1\n      pop\n      jump\t// out\n        /* \"#utility.yul\":1022:1118   */\n    tag_137:\n        /* \"#utility.yul\":1059:1066   */\n      0x00\n        /* \"#utility.yul\":1088:1112   */\n      tag_196\n        /* \"#utility.yul\":1106:1111   */\n      dup3\n        /* \"#utility.yul\":1088:1112   */\n      tag_136\n      jump\t// in\n    tag_196:\n        /* \"#utility.yul\":1077:1112   */\n      swap1\n      pop\n        /* \"#utility.yul\":1022:1118   */\n      swap2\n      swap1\n      pop\n      jump\t// out\n        /* \"#utility.yul\":1124:1232   */\n    tag_138:\n        /* \"#utility.yul\":1201:1225   */\n      tag_198\n        /* \"#utility.yul\":1219:1224   */\n      dup2\n        /* \"#utility.yul\":1201:1225   */\n      tag_137\n      jump\t// in\n    tag_198:\n        /* \"#utility.yul\":1196:1199   */\n      dup3\n        /* \"#utility.yul\":1189:1226   */\n      mstore\n        /* \"#utility.yul\":1124:1232   */\n      pop\n      pop\n      jump\t// out\n        /* \"#utility.yul\":1238:1417   */\n    tag_139:\n        /* \"#utility.yul\":1307:1317   */\n      0x00\n        /* \"#utility.yul\":1328:1374   */\n      tag_200\n        /* \"#utility.yul\":1370:1373   */\n      dup4\n        /* \"#utility.yul\":1362:1368   */\n      dup4\n        /* \"#utility.yul\":1328:1374   */\n      tag_138\n      jump\t// in\n    tag_200:\n        /* \"#utility.yul\":1406:1410   */\n      0x20\n        /* \"#utility.yul\":1401:1404   */\n      dup4\n        /* \"#utility.yul\":1397:1411   */\n      add\n        /* \"#utility.yul\":1383:1411   */\n      swap1\n      pop\n        /* \"#utility.yul\":1238:1417   */\n      swap3\n      swap2\n      pop\n      pop\n      jump\t// out\n        /* \"#utility.yul\":1423:1536   */\n    tag_140:\n        /* \"#utility.yul\":1493:1497   */\n      0x00\n        /* \"#utility.yul\":1525:1529   */\n      0x20\n        /* \"#utility.yul\":1520:1523   */\n      dup3\n        /* \"#utility.yul\":1516:1530   */\n      add\n        /* \"#utility.yul\":1508:1530   */\n      swap1\n      pop\n        /* \"#utility.yul\":1423:1536   */\n      swap2\n      swap1\n      pop\n      jump\t// out\n        /* \"#utility.yul\":1572:2304   */\n    tag_141:\n        /* \"#utility.yul\":1691:1694   */\n      0x00\n        /* \"#utility.yul\":1720:1774   */\n      tag_203\n        /* \"#utility.yul\":1768:1773   */\n      dup3\n        /* \"#utility.yul\":1720:1774   */\n      tag_133\n      jump\t// in\n    tag_203:\n        /* \"#utility.yul\":1790:1876   */\n      tag_204\n        /* \"#utility.yul\":1869:1875   */\n      dup2\n        /* \"#utility.yul\":1864:1867   */\n      dup6\n        /* \"#utility.yul\":1790:1876   */\n      tag_134\n      jump\t// in\n    tag_204:\n        /* \"#utility.yul\":1783:1876   */\n      swap4\n      pop\n        /* \"#utility.yul\":1900:1956   */\n      tag_205\n        /* \"#utility.yul\":1950:1955   */\n      dup4\n        /* \"#utility.yul\":1900:1956   */\n      tag_135\n      jump\t// in\n    tag_205:\n        /* \"#utility.yul\":1979:1986   */\n      dup1\n        /* \"#utility.yul\":2010:2011   */\n      0x00\n        /* \"#utility.yul\":1995:2279   */\n    tag_206:\n        /* \"#utility.yul\":2020:2026   */\n      dup4\n        /* \"#utility.yul\":2017:2018   */\n      dup2\n        /* \"#utility.yul\":2014:2027   */\n      lt\n        /* \"#utility.yul\":1995:2279   */\n      iszero\n      tag_208\n      jumpi\n        /* \"#utility.yul\":2096:2102   */\n      dup2\n        /* \"#utility.yul\":2090:2103   */\n      mload\n        /* \"#utility.yul\":2123:2186   */\n      tag_209\n        /* \"#utility.yul\":2182:2185   */\n      dup9\n        /* \"#utility.yul\":2167:2180   */\n      dup3\n        /* \"#utility.yul\":2123:2186   */\n      tag_139\n      jump\t// in\n    tag_209:\n        /* \"#utility.yul\":2116:2186   */\n      swap8\n      pop\n        /* \"#utility.yul\":2209:2269   */\n      tag_210\n        /* \"#utility.yul\":2262:2268   */\n      dup4\n        /* \"#utility.yul\":2209:2269   */\n      tag_140\n      jump\t// in\n    tag_210:\n        /* \"#utility.yul\":2199:2269   */\n      swap3\n      pop\n        /* \"#utility.yul\":2055:2279   */\n      pop\n        /* \"#utility.yul\":2042:2043   */\n      0x01\n        /* \"#utility.yul\":2039:2040   */\n      dup2\n        /* \"#utility.yul\":2035:2044   */\n      add\n        /* \"#utility.yul\":2030:2044   */\n      swap1\n      pop\n        /* \"#utility.yul\":1995:2279   */\n      jump(tag_206)\n    tag_208:\n        /* \"#utility.yul\":1999:2013   */\n      pop\n        /* \"#utility.yul\":2295:2298   */\n      dup6\n        /* \"#utility.yul\":2288:2298   */\n      swap4\n      pop\n        /* \"#utility.yul\":1696:2304   */\n      pop\n      pop\n      pop\n        /* \"#utility.yul\":1572:2304   */\n      swap3\n      swap2\n      pop\n      pop\n      jump\t// out\n        /* \"#utility.yul\":2310:2683   */\n    tag_22:\n        /* \"#utility.yul\":2453:2457   */\n      0x00\n        /* \"#utility.yul\":2491:2493   */\n      0x20\n        /* \"#utility.yul\":2480:2489   */\n      dup3\n        /* \"#utility.yul\":2476:2494   */\n      add\n        /* \"#utility.yul\":2468:2494   */\n      swap1\n      pop\n        /* \"#utility.yul\":2540:2549   */\n      dup2\n        /* \"#utility.yul\":2534:2538   */\n      dup2\n        /* \"#utility.yul\":2530:2550   */\n      sub\n        /* \"#utility.yul\":2526:2527   */\n      0x00\n        /* \"#utility.yul\":2515:2524   */\n      dup4\n        /* \"#utility.yul\":2511:2528   */\n      add\n        /* \"#utility.yul\":2504:2551   */\n      mstore\n        /* \"#utility.yul\":2568:2676   */\n      tag_212\n        /* \"#utility.yul\":2671:2675   */\n      dup2\n        /* \"#utility.yul\":2662:2668   */\n      dup5\n        /* \"#utility.yul\":2568:2676   */\n      tag_141\n      jump\t// in\n    tag_212:\n        /* \"#utility.yul\":2560:2676   */\n      swap1\n      pop\n        /* \"#utility.yul\":2310:2683   */\n      swap3\n      swap2\n      pop\n      pop\n      jump\t// out\n        /* \"#utility.yul\":2770:2887   */\n    tag_143:\n        /* \"#utility.yul\":2879:2880   */\n      0x00\n        /* \"#utility.yul\":2876:2877   */\n      dup1\n        /* \"#utility.yul\":2869:2881   */\n      revert\n        /* \"#utility.yul\":3016:3138   */\n    tag_145:\n        /* \"#utility.yul\":3089:3113   */\n      tag_217\n        /* \"#utility.yul\":3107:3112   */\n      dup2\n        /* \"#utility.yul\":3089:3113   */\n      tag_131\n      jump\t// in\n    tag_217:\n        /* \"#utility.yul\":3082:3087   */\n      dup2\n        /* \"#utility.yul\":3079:3114   */\n      eq\n        /* \"#utility.yul\":3069:3132   */\n      tag_218\n      jumpi\n        /* \"#utility.yul\":3128:3129   */\n      0x00\n        /* \"#utility.yul\":3125:3126   */\n      dup1\n        /* \"#utility.yul\":3118:3130   */\n      revert\n        /* \"#utility.yul\":3069:3132   */\n    tag_218:\n        /* \"#utility.yul\":3016:3138   */\n      pop\n      jump\t// out\n        /* \"#utility.yul\":3144:3283   */\n    tag_146:\n        /* \"#utility.yul\":3190:3195   */\n      0x00\n        /* \"#utility.yul\":3228:3234   */\n      dup2\n        /* \"#utility.yul\":3215:3235   */\n      calldataload\n        /* \"#utility.yul\":3206:3235   */\n      swap1\n      pop\n        /* \"#utility.yul\":3244:3277   */\n      tag_220\n        /* \"#utility.yul\":3271:3276   */\n      dup2\n        /* \"#utility.yul\":3244:3277   */\n      tag_145\n      jump\t// in\n    tag_220:\n        /* \"#utility.yul\":3144:3283   */\n      swap3\n      swap2\n      pop\n      pop\n      jump\t// out\n        /* \"#utility.yul\":3289:3618   */\n    tag_26:\n        /* \"#utility.yul\":3348:3354   */\n      0x00\n        /* \"#utility.yul\":3397:3399   */\n      0x20\n        /* \"#utility.yul\":3385:3394   */\n      dup3\n        /* \"#utility.yul\":3376:3383   */\n      dup5\n        /* \"#utility.yul\":3372:3395   */\n      sub\n        /* \"#utility.yul\":3368:3400   */\n      slt\n        /* \"#utility.yul\":3365:3484   */\n      iszero\n      tag_222\n      jumpi\n        /* \"#utility.yul\":3403:3482   */\n      tag_223\n      tag_143\n      jump\t// in\n    tag_223:\n        /* \"#utility.yul\":3365:3484   */\n    tag_222:\n        /* \"#utility.yul\":3523:3524   */\n      0x00\n        /* \"#utility.yul\":3548:3601   */\n      tag_224\n        /* \"#utility.yul\":3593:3600   */\n      dup5\n        /* \"#utility.yul\":3584:3590   */\n      dup3\n        /* \"#utility.yul\":3573:3582   */\n      dup6\n        /* \"#utility.yul\":3569:3591   */\n      add\n        /* \"#utility.yul\":3548:3601   */\n      tag_146\n      jump\t// in\n    tag_224:\n        /* \"#utility.yul\":3538:3601   */\n      swap2\n      pop\n        /* \"#utility.yul\":3494:3611   */\n      pop\n        /* \"#utility.yul\":3289:3618   */\n      swap3\n      swap2\n      pop\n      pop\n      jump\t// out\n        /* \"#utility.yul\":3624:3742   */\n    tag_147:\n        /* \"#utility.yul\":3711:3735   */\n      tag_226\n        /* \"#utility.yul\":3729:3734   */\n      dup2\n        /* \"#utility.yul\":3711:3735   */\n      tag_137\n      jump\t// in\n    tag_226:\n        /* \"#utility.yul\":3706:3709   */\n      dup3\n        /* \"#utility.yul\":3699:3736   */\n      mstore\n        /* \"#utility.yul\":3624:3742   */\n      pop\n      pop\n      jump\t// out\n        /* \"#utility.yul\":3748:3847   */\n    tag_148:\n        /* \"#utility.yul\":3800:3806   */\n      0x00\n        /* \"#utility.yul\":3834:3839   */\n      dup2\n        /* \"#utility.yul\":3828:3840   */\n      mload\n        /* \"#utility.yul\":3818:3840   */\n      swap1\n      pop\n        /* \"#utility.yul\":3748:3847   */\n      swap2\n      swap1\n      pop\n      jump\t// out\n        /* \"#utility.yul\":3853:4022   */\n    tag_149:\n        /* \"#utility.yul\":3937:3948   */\n      0x00\n        /* \"#utility.yul\":3971:3977   */\n      dup3\n        /* \"#utility.yul\":3966:3969   */\n      dup3\n        /* \"#utility.yul\":3959:3978   */\n      mstore\n        /* \"#utility.yul\":4011:4015   */\n      0x20\n        /* \"#utility.yul\":4006:4009   */\n      dup3\n        /* \"#utility.yul\":4002:4016   */\n      add\n        /* \"#utility.yul\":3987:4016   */\n      swap1\n      pop\n        /* \"#utility.yul\":3853:4022   */\n      swap3\n      swap2\n      pop\n      pop\n      jump\t// out\n        /* \"#utility.yul\":4028:4167   */\n    tag_150:\n        /* \"#utility.yul\":4117:4123   */\n      dup3\n        /* \"#utility.yul\":4112:4115   */\n      dup2\n        /* \"#utility.yul\":4107:4110   */\n      dup4\n        /* \"#utility.yul\":4101:4124   */\n      mcopy\n        /* \"#utility.yul\":4158:4159   */\n      0x00\n        /* \"#utility.yul\":4149:4155   */\n      dup4\n        /* \"#utility.yul\":4144:4147   */\n      dup4\n        /* \"#utility.yul\":4140:4156   */\n      add\n        /* \"#utility.yul\":4133:4160   */\n      mstore\n        /* \"#utility.yul\":4028:4167   */\n      pop\n      pop\n      pop\n      jump\t// out\n        /* \"#utility.yul\":4173:4275   */\n    tag_151:\n        /* \"#utility.yul\":4214:4220   */\n      0x00\n        /* \"#utility.yul\":4265:4267   */\n      0x1f\n        /* \"#utility.yul\":4261:4268   */\n      not\n        /* \"#utility.yul\":4256:4258   */\n      0x1f\n        /* \"#utility.yul\":4249:4254   */\n      dup4\n        /* \"#utility.yul\":4245:4259   */\n      add\n        /* \"#utility.yul\":4241:4269   */\n      and\n        /* \"#utility.yul\":4231:4269   */\n      swap1\n      pop\n        /* \"#utility.yul\":4173:4275   */\n      swap2\n      swap1\n      pop\n      jump\t// out\n        /* \"#utility.yul\":4281:4658   */\n    tag_152:\n        /* \"#utility.yul\":4369:4372   */\n      0x00\n        /* \"#utility.yul\":4397:4436   */\n      tag_232\n        /* \"#utility.yul\":4430:4435   */\n      dup3\n        /* \"#utility.yul\":4397:4436   */\n      tag_148\n      jump\t// in\n    tag_232:\n        /* \"#utility.yul\":4452:4523   */\n      tag_233\n        /* \"#utility.yul\":4516:4522   */\n      dup2\n        /* \"#utility.yul\":4511:4514   */\n      dup6\n        /* \"#utility.yul\":4452:4523   */\n      tag_149\n      jump\t// in\n    tag_233:\n        /* \"#utility.yul\":4445:4523   */\n      swap4\n      pop\n        /* \"#utility.yul\":4532:4597   */\n      tag_234\n        /* \"#utility.yul\":4590:4596   */\n      dup2\n        /* \"#utility.yul\":4585:4588   */\n      dup6\n        /* \"#utility.yul\":4578:4582   */\n      0x20\n        /* \"#utility.yul\":4571:4576   */\n      dup7\n        /* \"#utility.yul\":4567:4583   */\n      add\n        /* \"#utility.yul\":4532:4597   */\n      tag_150\n      jump\t// in\n    tag_234:\n        /* \"#utility.yul\":4622:4651   */\n      tag_235\n        /* \"#utility.yul\":4644:4650   */\n      dup2\n        /* \"#utility.yul\":4622:4651   */\n      tag_151\n      jump\t// in\n    tag_235:\n        /* \"#utility.yul\":4617:4620   */\n      dup5\n        /* \"#utility.yul\":4613:4652   */\n      add\n        /* \"#utility.yul\":4606:4652   */\n      swap2\n      pop\n        /* \"#utility.yul\":4373:4658   */\n      pop\n        /* \"#utility.yul\":4281:4658   */\n      swap3\n      swap2\n      pop\n      pop\n      jump\t// out\n        /* \"#utility.yul\":4664:5399   */\n    tag_33:\n        /* \"#utility.yul\":4881:4885   */\n      0x00\n        /* \"#utility.yul\":4919:4922   */\n      0x80\n        /* \"#utility.yul\":4908:4917   */\n      dup3\n        /* \"#utility.yul\":4904:4923   */\n      add\n        /* \"#utility.yul\":4896:4923   */\n      swap1\n      pop\n        /* \"#utility.yul\":4933:5004   */\n      tag_237\n        /* \"#utility.yul\":5001:5002   */\n      0x00\n        /* \"#utility.yul\":4990:4999   */\n      dup4\n        /* \"#utility.yul\":4986:5003   */\n      add\n        /* \"#utility.yul\":4977:4983   */\n      dup8\n        /* \"#utility.yul\":4933:5004   */\n      tag_147\n      jump\t// in\n    tag_237:\n        /* \"#utility.yul\":5051:5060   */\n      dup2\n        /* \"#utility.yul\":5045:5049   */\n      dup2\n        /* \"#utility.yul\":5041:5061   */\n      sub\n        /* \"#utility.yul\":5036:5038   */\n      0x20\n        /* \"#utility.yul\":5025:5034   */\n      dup4\n        /* \"#utility.yul\":5021:5039   */\n      add\n        /* \"#utility.yul\":5014:5062   */\n      mstore\n        /* \"#utility.yul\":5079:5157   */\n      tag_238\n        /* \"#utility.yul\":5152:5156   */\n      dup2\n        /* \"#utility.yul\":5143:5149   */\n      dup7\n        /* \"#utility.yul\":5079:5157   */\n      tag_152\n      jump\t// in\n    tag_238:\n        /* \"#utility.yul\":5071:5157   */\n      swap1\n      pop\n        /* \"#utility.yul\":5204:5213   */\n      dup2\n        /* \"#utility.yul\":5198:5202   */\n      dup2\n        /* \"#utility.yul\":5194:5214   */\n      sub\n        /* \"#utility.yul\":5189:5191   */\n      0x40\n        /* \"#utility.yul\":5178:5187   */\n      dup4\n        /* \"#utility.yul\":5174:5192   */\n      add\n        /* \"#utility.yul\":5167:5215   */\n      mstore\n        /* \"#utility.yul\":5232:5310   */\n      tag_239\n        /* \"#utility.yul\":5305:5309   */\n      dup2\n        /* \"#utility.yul\":5296:5302   */\n      dup6\n        /* \"#utility.yul\":5232:5310   */\n      tag_152\n      jump\t// in\n    tag_239:\n        /* \"#utility.yul\":5224:5310   */\n      swap1\n      pop\n        /* \"#utility.yul\":5320:5392   */\n      tag_240\n        /* \"#utility.yul\":5388:5390   */\n      0x60\n        /* \"#utility.yul\":5377:5386   */\n      dup4\n        /* \"#utility.yul\":5373:5391   */\n      add\n        /* \"#utility.yul\":5364:5370   */\n      dup5\n        /* \"#utility.yul\":5320:5392   */\n      tag_132\n      jump\t// in\n    tag_240:\n        /* \"#utility.yul\":4664:5399   */\n      swap6\n      swap5\n      pop\n      pop\n      pop\n      pop\n      pop\n      jump\t// out\n        /* \"#utility.yul\":5405:5627   */\n    tag_38:\n        /* \"#utility.yul\":5498:5502   */\n      0x00\n        /* \"#utility.yul\":5536:5538   */\n      0x20\n        /* \"#utility.yul\":5525:5534   */\n      dup3\n        /* \"#utility.yul\":5521:5539   */\n      add\n        /* \"#utility.yul\":5513:5539   */\n      swap1\n      pop\n        /* \"#utility.yul\":5549:5620   */\n      tag_242\n        /* \"#utility.yul\":5617:5618   */\n      0x00\n        /* \"#utility.yul\":5606:5615   */\n      dup4\n        /* \"#utility.yul\":5602:5619   */\n      add\n        /* \"#utility.yul\":5593:5599   */\n      dup5\n        /* \"#utility.yul\":5549:5620   */\n      tag_147\n      jump\t// in\n    tag_242:\n        /* \"#utility.yul\":5405:5627   */\n      swap3\n      swap2\n      pop\n      pop\n      jump\t// out\n        /* \"#utility.yul\":5633:5723   */\n    tag_153:\n        /* \"#utility.yul\":5667:5674   */\n      0x00\n        /* \"#utility.yul\":5710:5715   */\n      dup2\n        /* \"#utility.yul\":5703:5716   */\n      iszero\n        /* \"#utility.yul\":5696:5717   */\n      iszero\n        /* \"#utility.yul\":5685:5717   */\n      swap1\n      pop\n        /* \"#utility.yul\":5633:5723   */\n      swap2\n      swap1\n      pop\n      jump\t// out\n        /* \"#utility.yul\":5729:5838   */\n    tag_154:\n        /* \"#utility.yul\":5810:5831   */\n      tag_245\n        /* \"#utility.yul\":5825:5830   */\n      dup2\n        /* \"#utility.yul\":5810:5831   */\n      tag_153\n      jump\t// in\n    tag_245:\n        /* \"#utility.yul\":5805:5808   */\n      dup3\n        /* \"#utility.yul\":5798:5832   */\n      mstore\n        /* \"#utility.yul\":5729:5838   */\n      pop\n      pop\n      jump\t// out\n        /* \"#utility.yul\":5844:6054   */\n    tag_46:\n        /* \"#utility.yul\":5931:5935   */\n      0x00\n        /* \"#utility.yul\":5969:5971   */\n      0x20\n        /* \"#utility.yul\":5958:5967   */\n      dup3\n        /* \"#utility.yul\":5954:5972   */\n      add\n        /* \"#utility.yul\":5946:5972   */\n      swap1\n      pop\n        /* \"#utility.yul\":5982:6047   */\n      tag_247\n        /* \"#utility.yul\":6044:6045   */\n      0x00\n        /* \"#utility.yul\":6033:6042   */\n      dup4\n        /* \"#utility.yul\":6029:6046   */\n      add\n        /* \"#utility.yul\":6020:6026   */\n      dup5\n        /* \"#utility.yul\":5982:6047   */\n      tag_154\n      jump\t// in\n    tag_247:\n        /* \"#utility.yul\":5844:6054   */\n      swap3\n      swap2\n      pop\n      pop\n      jump\t// out\n        /* \"#utility.yul\":6060:6285   */\n    tag_155:\n        /* \"#utility.yul\":6200:6234   */\n      0x4f6e6c7920746865206f776e65722063616e20706572666f726d207468697320\n        /* \"#utility.yul\":6196:6197   */\n      0x00\n        /* \"#utility.yul\":6188:6194   */\n      dup3\n        /* \"#utility.yul\":6184:6198   */\n      add\n        /* \"#utility.yul\":6177:6235   */\n      mstore\n        /* \"#utility.yul\":6269:6277   */\n      0x616374696f6e0000000000000000000000000000000000000000000000000000\n        /* \"#utility.yul\":6264:6266   */\n      0x20\n        /* \"#utility.yul\":6256:6262   */\n      dup3\n        /* \"#utility.yul\":6252:6267   */\n      add\n        /* \"#utility.yul\":6245:6278   */\n      mstore\n        /* \"#utility.yul\":6060:6285   */\n      pop\n      jump\t// out\n        /* \"#utility.yul\":6291:6657   */\n    tag_156:\n        /* \"#utility.yul\":6433:6436   */\n      0x00\n        /* \"#utility.yul\":6454:6521   */\n      tag_250\n        /* \"#utility.yul\":6518:6520   */\n      0x26\n        /* \"#utility.yul\":6513:6516   */\n      dup4\n        /* \"#utility.yul\":6454:6521   */\n      tag_149\n      jump\t// in\n    tag_250:\n        /* \"#utility.yul\":6447:6521   */\n      swap2\n      pop\n        /* \"#utility.yul\":6530:6623   */\n      tag_251\n        /* \"#utility.yul\":6619:6622   */\n      dup3\n        /* \"#utility.yul\":6530:6623   */\n      tag_155\n      jump\t// in\n    tag_251:\n        /* \"#utility.yul\":6648:6650   */\n      0x40\n        /* \"#utility.yul\":6643:6646   */\n      dup3\n        /* \"#utility.yul\":6639:6651   */\n      add\n        /* \"#utility.yul\":6632:6651   */\n      swap1\n      pop\n        /* \"#utility.yul\":6291:6657   */\n      swap2\n      swap1\n      pop\n      jump\t// out\n        /* \"#utility.yul\":6663:7082   */\n    tag_63:\n        /* \"#utility.yul\":6829:6833   */\n      0x00\n        /* \"#utility.yul\":6867:6869   */\n      0x20\n        /* \"#utility.yul\":6856:6865   */\n      dup3\n        /* \"#utility.yul\":6852:6870   */\n      add\n        /* \"#utility.yul\":6844:6870   */\n      swap1\n      pop\n        /* \"#utility.yul\":6916:6925   */\n      dup2\n        /* \"#utility.yul\":6910:6914   */\n      dup2\n        /* \"#utility.yul\":6906:6926   */\n      sub\n        /* \"#utility.yul\":6902:6903   */\n      0x00\n        /* \"#utility.yul\":6891:6900   */\n      dup4\n        /* \"#utility.yul\":6887:6904   */\n      add\n        /* \"#utility.yul\":6880:6927   */\n      mstore\n        /* \"#utility.yul\":6944:7075   */\n      tag_253\n        /* \"#utility.yul\":7070:7074   */\n      dup2\n        /* \"#utility.yul\":6944:7075   */\n      tag_156\n      jump\t// in\n    tag_253:\n        /* \"#utility.yul\":6936:7075   */\n      swap1\n      pop\n        /* \"#utility.yul\":6663:7082   */\n      swap2\n      swap1\n      pop\n      jump\t// out\n        /* \"#utility.yul\":7088:7266   */\n    tag_157:\n        /* \"#utility.yul\":7228:7258   */\n      0x43757272656e74206c6f7474657279207374696c6c2061637469766500000000\n        /* \"#utility.yul\":7224:7225   */\n      0x00\n        /* \"#utility.yul\":7216:7222   */\n      dup3\n        /* \"#utility.yul\":7212:7226   */\n      add\n        /* \"#utility.yul\":7205:7259   */\n      mstore\n        /* \"#utility.yul\":7088:7266   */\n      pop\n      jump\t// out\n        /* \"#utility.yul\":7272:7638   */\n    tag_158:\n        /* \"#utility.yul\":7414:7417   */\n      0x00\n        /* \"#utility.yul\":7435:7502   */\n      tag_256\n        /* \"#utility.yul\":7499:7501   */\n      0x1c\n        /* \"#utility.yul\":7494:7497   */\n      dup4\n        /* \"#utility.yul\":7435:7502   */\n      tag_149\n      jump\t// in\n    tag_256:\n        /* \"#utility.yul\":7428:7502   */\n      swap2\n      pop\n        /* \"#utility.yul\":7511:7604   */\n      tag_257\n        /* \"#utility.yul\":7600:7603   */\n      dup3\n        /* \"#utility.yul\":7511:7604   */\n      tag_157\n      jump\t// in\n    tag_257:\n        /* \"#utility.yul\":7629:7631   */\n      0x20\n        /* \"#utility.yul\":7624:7627   */\n      dup3\n        /* \"#utility.yul\":7620:7632   */\n      add\n        /* \"#utility.yul\":7613:7632   */\n      swap1\n      pop\n        /* \"#utility.yul\":7272:7638   */\n      swap2\n      swap1\n      pop\n      jump\t// out\n        /* \"#utility.yul\":7644:8063   */\n    tag_67:\n        /* \"#utility.yul\":7810:7814   */\n      0x00\n        /* \"#utility.yul\":7848:7850   */\n      0x20\n        /* \"#utility.yul\":7837:7846   */\n      dup3\n        /* \"#utility.yul\":7833:7851   */\n      add\n        /* \"#utility.yul\":7825:7851   */\n      swap1\n      pop\n        /* \"#utility.yul\":7897:7906   */\n      dup2\n        /* \"#utility.yul\":7891:7895   */\n      dup2\n        /* \"#utility.yul\":7887:7907   */\n      sub\n        /* \"#utility.yul\":7883:7884   */\n      0x00\n        /* \"#utility.yul\":7872:7881   */\n      dup4\n        /* \"#utility.yul\":7868:7885   */\n      add\n        /* \"#utility.yul\":7861:7908   */\n      mstore\n        /* \"#utility.yul\":7925:8056   */\n      tag_259\n        /* \"#utility.yul\":8051:8055   */\n      dup2\n        /* \"#utility.yul\":7925:8056   */\n      tag_158\n      jump\t// in\n    tag_259:\n        /* \"#utility.yul\":7917:8056   */\n      swap1\n      pop\n        /* \"#utility.yul\":7644:8063   */\n      swap2\n      swap1\n      pop\n      jump\t// out\n        /* \"#utility.yul\":8069:8249   */\n    tag_159:\n        /* \"#utility.yul\":8117:8194   */\n      0x4e487b7100000000000000000000000000000000000000000000000000000000\n        /* \"#utility.yul\":8114:8115   */\n      0x00\n        /* \"#utility.yul\":8107:8195   */\n      mstore\n        /* \"#utility.yul\":8214:8218   */\n      0x22\n        /* \"#utility.yul\":8211:8212   */\n      0x04\n        /* \"#utility.yul\":8204:8219   */\n      mstore\n        /* \"#utility.yul\":8238:8242   */\n      0x24\n        /* \"#utility.yul\":8235:8236   */\n      0x00\n        /* \"#utility.yul\":8228:8243   */\n      revert\n        /* \"#utility.yul\":8255:8575   */\n    tag_71:\n        /* \"#utility.yul\":8299:8305   */\n      0x00\n        /* \"#utility.yul\":8336:8337   */\n      0x02\n        /* \"#utility.yul\":8330:8334   */\n      dup3\n        /* \"#utility.yul\":8326:8338   */\n      div\n        /* \"#utility.yul\":8316:8338   */\n      swap1\n      pop\n        /* \"#utility.yul\":8383:8384   */\n      0x01\n        /* \"#utility.yul\":8377:8381   */\n      dup3\n        /* \"#utility.yul\":8373:8385   */\n      and\n        /* \"#utility.yul\":8404:8422   */\n      dup1\n        /* \"#utility.yul\":8394:8475   */\n      tag_262\n      jumpi\n        /* \"#utility.yul\":8460:8464   */\n      0x7f\n        /* \"#utility.yul\":8452:8458   */\n      dup3\n        /* \"#utility.yul\":8448:8465   */\n      and\n        /* \"#utility.yul\":8438:8465   */\n      swap2\n      pop\n        /* \"#utility.yul\":8394:8475   */\n    tag_262:\n        /* \"#utility.yul\":8522:8524   */\n      0x20\n        /* \"#utility.yul\":8514:8520   */\n      dup3\n        /* \"#utility.yul\":8511:8525   */\n      lt\n        /* \"#utility.yul\":8491:8509   */\n      dup2\n        /* \"#utility.yul\":8488:8526   */\n      sub\n        /* \"#utility.yul\":8485:8569   */\n      tag_263\n      jumpi\n        /* \"#utility.yul\":8541:8559   */\n      tag_264\n      tag_159\n      jump\t// in\n    tag_264:\n        /* \"#utility.yul\":8485:8569   */\n    tag_263:\n        /* \"#utility.yul\":8306:8575   */\n      pop\n        /* \"#utility.yul\":8255:8575   */\n      swap2\n      swap1\n      pop\n      jump\t// out\n        /* \"#utility.yul\":8581:8756   */\n    tag_160:\n        /* \"#utility.yul\":8721:8748   */\n      0x4e6f20706c617965727320696e20746865206c6f747465727900000000000000\n        /* \"#utility.yul\":8717:8718   */\n      0x00\n        /* \"#utility.yul\":8709:8715   */\n      dup3\n        /* \"#utility.yul\":8705:8719   */\n      add\n        /* \"#utility.yul\":8698:8749   */\n      mstore\n        /* \"#utility.yul\":8581:8756   */\n      pop\n      jump\t// out\n        /* \"#utility.yul\":8762:9128   */\n    tag_161:\n        /* \"#utility.yul\":8904:8907   */\n      0x00\n        /* \"#utility.yul\":8925:8992   */\n      tag_267\n        /* \"#utility.yul\":8989:8991   */\n      0x19\n        /* \"#utility.yul\":8984:8987   */\n      dup4\n        /* \"#utility.yul\":8925:8992   */\n      tag_149\n      jump\t// in\n    tag_267:\n        /* \"#utility.yul\":8918:8992   */\n      swap2\n      pop\n        /* \"#utility.yul\":9001:9094   */\n      tag_268\n        /* \"#utility.yul\":9090:9093   */\n      dup3\n        /* \"#utility.yul\":9001:9094   */\n      tag_160\n      jump\t// in\n    tag_268:\n        /* \"#utility.yul\":9119:9121   */\n      0x20\n        /* \"#utility.yul\":9114:9117   */\n      dup3\n        /* \"#utility.yul\":9110:9122   */\n      add\n        /* \"#utility.yul\":9103:9122   */\n      swap1\n      pop\n        /* \"#utility.yul\":8762:9128   */\n      swap2\n      swap1\n      pop\n      jump\t// out\n        /* \"#utility.yul\":9134:9553   */\n    tag_87:\n        /* \"#utility.yul\":9300:9304   */\n      0x00\n        /* \"#utility.yul\":9338:9340   */\n      0x20\n        /* \"#utility.yul\":9327:9336   */\n      dup3\n        /* \"#utility.yul\":9323:9341   */\n      add\n        /* \"#utility.yul\":9315:9341   */\n      swap1\n      pop\n        /* \"#utility.yul\":9387:9396   */\n      dup2\n        /* \"#utility.yul\":9381:9385   */\n      dup2\n        /* \"#utility.yul\":9377:9397   */\n      sub\n        /* \"#utility.yul\":9373:9374   */\n      0x00\n        /* \"#utility.yul\":9362:9371   */\n      dup4\n        /* \"#utility.yul\":9358:9375   */\n      add\n        /* \"#utility.yul\":9351:9398   */\n      mstore\n        /* \"#utility.yul\":9415:9546   */\n      tag_270\n        /* \"#utility.yul\":9541:9545   */\n      dup2\n        /* \"#utility.yul\":9415:9546   */\n      tag_161\n      jump\t// in\n    tag_270:\n        /* \"#utility.yul\":9407:9546   */\n      swap1\n      pop\n        /* \"#utility.yul\":9134:9553   */\n      swap2\n      swap1\n      pop\n      jump\t// out\n        /* \"#utility.yul\":9559:9638   */\n    tag_162:\n        /* \"#utility.yul\":9598:9605   */\n      0x00\n        /* \"#utility.yul\":9627:9632   */\n      dup2\n        /* \"#utility.yul\":9616:9632   */\n      swap1\n      pop\n        /* \"#utility.yul\":9559:9638   */\n      swap2\n      swap1\n      pop\n      jump\t// out\n        /* \"#utility.yul\":9644:9801   */\n    tag_163:\n        /* \"#utility.yul\":9749:9794   */\n      tag_273\n        /* \"#utility.yul\":9769:9793   */\n      tag_274\n        /* \"#utility.yul\":9787:9792   */\n      dup3\n        /* \"#utility.yul\":9769:9793   */\n      tag_131\n      jump\t// in\n    tag_274:\n        /* \"#utility.yul\":9749:9794   */\n      tag_162\n      jump\t// in\n    tag_273:\n        /* \"#utility.yul\":9744:9747   */\n      dup3\n        /* \"#utility.yul\":9737:9795   */\n      mstore\n        /* \"#utility.yul\":9644:9801   */\n      pop\n      pop\n      jump\t// out\n        /* \"#utility.yul\":9807:9918   */\n    tag_164:\n        /* \"#utility.yul\":9871:9877   */\n      0x00\n        /* \"#utility.yul\":9905:9910   */\n      dup2\n        /* \"#utility.yul\":9899:9911   */\n      sload\n        /* \"#utility.yul\":9889:9911   */\n      swap1\n      pop\n        /* \"#utility.yul\":9807:9918   */\n      swap2\n      swap1\n      pop\n      jump\t// out\n        /* \"#utility.yul\":9924:10087   */\n    tag_165:\n        /* \"#utility.yul\":10041:10052   */\n      0x00\n        /* \"#utility.yul\":10078:10081   */\n      dup2\n        /* \"#utility.yul\":10063:10081   */\n      swap1\n      pop\n        /* \"#utility.yul\":9924:10087   */\n      swap3\n      swap2\n      pop\n      pop\n      jump\t// out\n        /* \"#utility.yul\":10093:10249   */\n    tag_166:\n        /* \"#utility.yul\":10157:10161   */\n      0x00\n        /* \"#utility.yul\":10180:10183   */\n      dup2\n        /* \"#utility.yul\":10172:10183   */\n      swap1\n      pop\n        /* \"#utility.yul\":10203:10206   */\n      dup2\n        /* \"#utility.yul\":10200:10201   */\n      0x00\n        /* \"#utility.yul\":10193:10207   */\n      mstore\n        /* \"#utility.yul\":10237:10241   */\n      0x20\n        /* \"#utility.yul\":10234:10235   */\n      0x00\n        /* \"#utility.yul\":10224:10242   */\n      keccak256\n        /* \"#utility.yul\":10216:10242   */\n      swap1\n      pop\n        /* \"#utility.yul\":10093:10249   */\n      swap2\n      swap1\n      pop\n      jump\t// out\n        /* \"#utility.yul\":10255:10371   */\n    tag_167:\n        /* \"#utility.yul\":10340:10364   */\n      tag_279\n        /* \"#utility.yul\":10358:10363   */\n      dup2\n        /* \"#utility.yul\":10340:10364   */\n      tag_137\n      jump\t// in\n    tag_279:\n        /* \"#utility.yul\":10335:10338   */\n      dup3\n        /* \"#utility.yul\":10328:10365   */\n      mstore\n        /* \"#utility.yul\":10255:10371   */\n      pop\n      pop\n      jump\t// out\n        /* \"#utility.yul\":10377:10572   */\n    tag_168:\n        /* \"#utility.yul\":10454:10464   */\n      0x00\n        /* \"#utility.yul\":10475:10529   */\n      tag_281\n        /* \"#utility.yul\":10525:10528   */\n      dup4\n        /* \"#utility.yul\":10517:10523   */\n      dup4\n        /* \"#utility.yul\":10475:10529   */\n      tag_167\n      jump\t// in\n    tag_281:\n        /* \"#utility.yul\":10561:10565   */\n      0x20\n        /* \"#utility.yul\":10556:10559   */\n      dup4\n        /* \"#utility.yul\":10552:10566   */\n      add\n        /* \"#utility.yul\":10538:10566   */\n      swap1\n      pop\n        /* \"#utility.yul\":10377:10572   */\n      swap3\n      swap2\n      pop\n      pop\n      jump\t// out\n        /* \"#utility.yul\":10578:10680   */\n    tag_169:\n        /* \"#utility.yul\":10620:10628   */\n      0x00\n        /* \"#utility.yul\":10667:10672   */\n      dup2\n        /* \"#utility.yul\":10664:10665   */\n      0x00\n        /* \"#utility.yul\":10660:10673   */\n      shr\n        /* \"#utility.yul\":10639:10673   */\n      swap1\n      pop\n        /* \"#utility.yul\":10578:10680   */\n      swap2\n      swap1\n      pop\n      jump\t// out\n        /* \"#utility.yul\":10686:10825   */\n    tag_170:\n        /* \"#utility.yul\":10736:10743   */\n      0x00\n        /* \"#utility.yul\":10776:10818   */\n      0xffffffffffffffffffffffffffffffffffffffff\n        /* \"#utility.yul\":10769:10774   */\n      dup3\n        /* \"#utility.yul\":10765:10819   */\n      and\n        /* \"#utility.yul\":10754:10819   */\n      swap1\n      pop\n        /* \"#utility.yul\":10686:10825   */\n      swap2\n      swap1\n      pop\n      jump\t// out\n        /* \"#utility.yul\":10831:10997   */\n    tag_171:\n        /* \"#utility.yul\":10900:10905   */\n      0x00\n        /* \"#utility.yul\":10925:10991   */\n      tag_285\n        /* \"#utility.yul\":10956:10990   */\n      tag_286\n        /* \"#utility.yul\":10979:10989   */\n      dup4\n        /* \"#utility.yul\":10956:10990   */\n      tag_169\n      jump\t// in\n    tag_286:\n        /* \"#utility.yul\":10925:10991   */\n      tag_170\n      jump\t// in\n    tag_285:\n        /* \"#utility.yul\":10916:10991   */\n      swap1\n      pop\n        /* \"#utility.yul\":10831:10997   */\n      swap2\n      swap1\n      pop\n      jump\t// out\n        /* \"#utility.yul\":11003:11147   */\n    tag_172:\n        /* \"#utility.yul\":11058:11063   */\n      0x00\n        /* \"#utility.yul\":11083:11140   */\n      tag_288\n        /* \"#utility.yul\":11134:11138   */\n      dup3\n        /* \"#utility.yul\":11128:11139   */\n      sload\n        /* \"#utility.yul\":11083:11140   */\n      tag_171\n      jump\t// in\n    tag_288:\n        /* \"#utility.yul\":11074:11140   */\n      swap1\n      pop\n        /* \"#utility.yul\":11003:11147   */\n      swap2\n      swap1\n      pop\n      jump\t// out\n        /* \"#utility.yul\":11153:11263   */\n    tag_173:\n        /* \"#utility.yul\":11220:11224   */\n      0x00\n        /* \"#utility.yul\":11252:11256   */\n      0x01\n        /* \"#utility.yul\":11247:11250   */\n      dup3\n        /* \"#utility.yul\":11243:11257   */\n      add\n        /* \"#utility.yul\":11235:11257   */\n      swap1\n      pop\n        /* \"#utility.yul\":11153:11263   */\n      swap2\n      swap1\n      pop\n      jump\t// out\n        /* \"#utility.yul\":11299:12094   */\n    tag_174:\n        /* \"#utility.yul\":11433:11436   */\n      0x00\n        /* \"#utility.yul\":11462:11513   */\n      tag_291\n        /* \"#utility.yul\":11507:11512   */\n      dup3\n        /* \"#utility.yul\":11462:11513   */\n      tag_164\n      jump\t// in\n    tag_291:\n        /* \"#utility.yul\":11529:11633   */\n      tag_292\n        /* \"#utility.yul\":11626:11632   */\n      dup2\n        /* \"#utility.yul\":11621:11624   */\n      dup6\n        /* \"#utility.yul\":11529:11633   */\n      tag_165\n      jump\t// in\n    tag_292:\n        /* \"#utility.yul\":11522:11633   */\n      swap4\n      pop\n        /* \"#utility.yul\":11657:11710   */\n      tag_293\n        /* \"#utility.yul\":11704:11709   */\n      dup4\n        /* \"#utility.yul\":11657:11710   */\n      tag_166\n      jump\t// in\n    tag_293:\n        /* \"#utility.yul\":11733:11740   */\n      dup1\n        /* \"#utility.yul\":11764:11765   */\n      0x00\n        /* \"#utility.yul\":11749:12069   */\n    tag_294:\n        /* \"#utility.yul\":11774:11780   */\n      dup4\n        /* \"#utility.yul\":11771:11772   */\n      dup2\n        /* \"#utility.yul\":11768:11781   */\n      lt\n        /* \"#utility.yul\":11749:12069   */\n      iszero\n      tag_296\n      jumpi\n        /* \"#utility.yul\":11844:11888   */\n      tag_297\n        /* \"#utility.yul\":11881:11887   */\n      dup3\n        /* \"#utility.yul\":11844:11888   */\n      tag_172\n      jump\t// in\n    tag_297:\n        /* \"#utility.yul\":11908:11979   */\n      tag_298\n        /* \"#utility.yul\":11975:11978   */\n      dup9\n        /* \"#utility.yul\":11960:11973   */\n      dup3\n        /* \"#utility.yul\":11908:11979   */\n      tag_168\n      jump\t// in\n    tag_298:\n        /* \"#utility.yul\":11901:11979   */\n      swap8\n      pop\n        /* \"#utility.yul\":12002:12059   */\n      tag_299\n        /* \"#utility.yul\":12052:12058   */\n      dup4\n        /* \"#utility.yul\":12002:12059   */\n      tag_173\n      jump\t// in\n    tag_299:\n        /* \"#utility.yul\":11992:12059   */\n      swap3\n      pop\n        /* \"#utility.yul\":11809:12069   */\n      pop\n        /* \"#utility.yul\":11796:11797   */\n      0x01\n        /* \"#utility.yul\":11793:11794   */\n      dup2\n        /* \"#utility.yul\":11789:11798   */\n      add\n        /* \"#utility.yul\":11784:11798   */\n      swap1\n      pop\n        /* \"#utility.yul\":11749:12069   */\n      jump(tag_294)\n    tag_296:\n        /* \"#utility.yul\":11753:11767   */\n      pop\n        /* \"#utility.yul\":12085:12088   */\n      dup6\n        /* \"#utility.yul\":12078:12088   */\n      swap4\n      pop\n        /* \"#utility.yul\":11438:12094   */\n      pop\n      pop\n      pop\n        /* \"#utility.yul\":11299:12094   */\n      swap3\n      swap2\n      pop\n      pop\n      jump\t// out\n        /* \"#utility.yul\":12100:12711   */\n    tag_89:\n        /* \"#utility.yul\":12315:12318   */\n      0x00\n        /* \"#utility.yul\":12330:12405   */\n      tag_301\n        /* \"#utility.yul\":12401:12404   */\n      dup3\n        /* \"#utility.yul\":12392:12398   */\n      dup7\n        /* \"#utility.yul\":12330:12405   */\n      tag_163\n      jump\t// in\n    tag_301:\n        /* \"#utility.yul\":12430:12432   */\n      0x20\n        /* \"#utility.yul\":12425:12428   */\n      dup3\n        /* \"#utility.yul\":12421:12433   */\n      add\n        /* \"#utility.yul\":12414:12433   */\n      swap2\n      pop\n        /* \"#utility.yul\":12443:12518   */\n      tag_302\n        /* \"#utility.yul\":12514:12517   */\n      dup3\n        /* \"#utility.yul\":12505:12511   */\n      dup6\n        /* \"#utility.yul\":12443:12518   */\n      tag_163\n      jump\t// in\n    tag_302:\n        /* \"#utility.yul\":12543:12545   */\n      0x20\n        /* \"#utility.yul\":12538:12541   */\n      dup3\n        /* \"#utility.yul\":12534:12546   */\n      add\n        /* \"#utility.yul\":12527:12546   */\n      swap2\n      pop\n        /* \"#utility.yul\":12563:12685   */\n      tag_303\n        /* \"#utility.yul\":12681:12684   */\n      dup3\n        /* \"#utility.yul\":12672:12678   */\n      dup5\n        /* \"#utility.yul\":12563:12685   */\n      tag_174\n      jump\t// in\n    tag_303:\n        /* \"#utility.yul\":12556:12685   */\n      swap2\n      pop\n        /* \"#utility.yul\":12702:12705   */\n      dup2\n        /* \"#utility.yul\":12695:12705   */\n      swap1\n      pop\n        /* \"#utility.yul\":12100:12711   */\n      swap5\n      swap4\n      pop\n      pop\n      pop\n      pop\n      jump\t// out\n        /* \"#utility.yul\":12717:12897   */\n    tag_175:\n        /* \"#utility.yul\":12765:12842   */\n      0x4e487b7100000000000000000000000000000000000000000000000000000000\n        /* \"#utility.yul\":12762:12763   */\n      0x00\n        /* \"#utility.yul\":12755:12843   */\n      mstore\n        /* \"#utility.yul\":12862:12866   */\n      0x12\n        /* \"#utility.yul\":12859:12860   */\n      0x04\n        /* \"#utility.yul\":12852:12867   */\n      mstore\n        /* \"#utility.yul\":12886:12890   */\n      0x24\n        /* \"#utility.yul\":12883:12884   */\n      0x00\n        /* \"#utility.yul\":12876:12891   */\n      revert\n        /* \"#utility.yul\":12903:13079   */\n    tag_91:\n        /* \"#utility.yul\":12935:12936   */\n      0x00\n        /* \"#utility.yul\":12952:12972   */\n      tag_306\n        /* \"#utility.yul\":12970:12971   */\n      dup3\n        /* \"#utility.yul\":12952:12972   */\n      tag_131\n      jump\t// in\n    tag_306:\n        /* \"#utility.yul\":12947:12972   */\n      swap2\n      pop\n        /* \"#utility.yul\":12986:13006   */\n      tag_307\n        /* \"#utility.yul\":13004:13005   */\n      dup4\n        /* \"#utility.yul\":12986:13006   */\n      tag_131\n      jump\t// in\n    tag_307:\n        /* \"#utility.yul\":12981:13006   */\n      swap3\n      pop\n        /* \"#utility.yul\":13025:13026   */\n      dup3\n        /* \"#utility.yul\":13015:13050   */\n      tag_308\n      jumpi\n        /* \"#utility.yul\":13030:13048   */\n      tag_309\n      tag_175\n      jump\t// in\n    tag_309:\n        /* \"#utility.yul\":13015:13050   */\n    tag_308:\n        /* \"#utility.yul\":13071:13072   */\n      dup3\n        /* \"#utility.yul\":13068:13069   */\n      dup3\n        /* \"#utility.yul\":13064:13073   */\n      mod\n        /* \"#utility.yul\":13059:13073   */\n      swap1\n      pop\n        /* \"#utility.yul\":12903:13079   */\n      swap3\n      swap2\n      pop\n      pop\n      jump\t// out\n        /* \"#utility.yul\":13085:13265   */\n    tag_94:\n        /* \"#utility.yul\":13133:13210   */\n      0x4e487b7100000000000000000000000000000000000000000000000000000000\n        /* \"#utility.yul\":13130:13131   */\n      0x00\n        /* \"#utility.yul\":13123:13211   */\n      mstore\n        /* \"#utility.yul\":13230:13234   */\n      0x32\n        /* \"#utility.yul\":13227:13228   */\n      0x04\n        /* \"#utility.yul\":13220:13235   */\n      mstore\n        /* \"#utility.yul\":13254:13258   */\n      0x24\n        /* \"#utility.yul\":13251:13252   */\n      0x00\n        /* \"#utility.yul\":13244:13259   */\n      revert\n        /* \"#utility.yul\":13271:13418   */\n    tag_176:\n        /* \"#utility.yul\":13372:13383   */\n      0x00\n        /* \"#utility.yul\":13409:13412   */\n      dup2\n        /* \"#utility.yul\":13394:13412   */\n      swap1\n      pop\n        /* \"#utility.yul\":13271:13418   */\n      swap3\n      swap2\n      pop\n      pop\n      jump\t// out\n        /* \"#utility.yul\":13424:13538   */\n    tag_177:\n      pop\n      jump\t// out\n        /* \"#utility.yul\":13544:13942   */\n    tag_178:\n        /* \"#utility.yul\":13703:13706   */\n      0x00\n        /* \"#utility.yul\":13724:13807   */\n      tag_314\n        /* \"#utility.yul\":13805:13806   */\n      0x00\n        /* \"#utility.yul\":13800:13803   */\n      dup4\n        /* \"#utility.yul\":13724:13807   */\n      tag_176\n      jump\t// in\n    tag_314:\n        /* \"#utility.yul\":13717:13807   */\n      swap2\n      pop\n        /* \"#utility.yul\":13816:13909   */\n      tag_315\n        /* \"#utility.yul\":13905:13908   */\n      dup3\n        /* \"#utility.yul\":13816:13909   */\n      tag_177\n      jump\t// in\n    tag_315:\n        /* \"#utility.yul\":13934:13935   */\n      0x00\n        /* \"#utility.yul\":13929:13932   */\n      dup3\n        /* \"#utility.yul\":13925:13936   */\n      add\n        /* \"#utility.yul\":13918:13936   */\n      swap1\n      pop\n        /* \"#utility.yul\":13544:13942   */\n      swap2\n      swap1\n      pop\n      jump\t// out\n        /* \"#utility.yul\":13948:14327   */\n    tag_97:\n        /* \"#utility.yul\":14132:14135   */\n      0x00\n        /* \"#utility.yul\":14154:14301   */\n      tag_317\n        /* \"#utility.yul\":14297:14300   */\n      dup3\n        /* \"#utility.yul\":14154:14301   */\n      tag_178\n      jump\t// in\n    tag_317:\n        /* \"#utility.yul\":14147:14301   */\n      swap2\n      pop\n        /* \"#utility.yul\":14318:14321   */\n      dup2\n        /* \"#utility.yul\":14311:14321   */\n      swap1\n      pop\n        /* \"#utility.yul\":13948:14327   */\n      swap2\n      swap1\n      pop\n      jump\t// out\n        /* \"#utility.yul\":14333:14504   */\n    tag_179:\n        /* \"#utility.yul\":14473:14496   */\n      0x5072697a65207472616e73666572206661696c65640000000000000000000000\n        /* \"#utility.yul\":14469:14470   */\n      0x00\n        /* \"#utility.yul\":14461:14467   */\n      dup3\n        /* \"#utility.yul\":14457:14471   */\n      add\n        /* \"#utility.yul\":14450:14497   */\n      mstore\n        /* \"#utility.yul\":14333:14504   */\n      pop\n      jump\t// out\n        /* \"#utility.yul\":14510:14876   */\n    tag_180:\n        /* \"#utility.yul\":14652:14655   */\n      0x00\n        /* \"#utility.yul\":14673:14740   */\n      tag_320\n        /* \"#utility.yul\":14737:14739   */\n      0x15\n        /* \"#utility.yul\":14732:14735   */\n      dup4\n        /* \"#utility.yul\":14673:14740   */\n      tag_149\n      jump\t// in\n    tag_320:\n        /* \"#utility.yul\":14666:14740   */\n      swap2\n      pop\n        /* \"#utility.yul\":14749:14842   */\n      tag_321\n        /* \"#utility.yul\":14838:14841   */\n      dup3\n        /* \"#utility.yul\":14749:14842   */\n      tag_179\n      jump\t// in\n    tag_321:\n        /* \"#utility.yul\":14867:14869   */\n      0x20\n        /* \"#utility.yul\":14862:14865   */\n      dup3\n        /* \"#utility.yul\":14858:14870   */\n      add\n        /* \"#utility.yul\":14851:14870   */\n      swap1\n      pop\n        /* \"#utility.yul\":14510:14876   */\n      swap2\n      swap1\n      pop\n      jump\t// out\n        /* \"#utility.yul\":14882:15301   */\n    tag_103:\n        /* \"#utility.yul\":15048:15052   */\n      0x00\n        /* \"#utility.yul\":15086:15088   */\n      0x20\n        /* \"#utility.yul\":15075:15084   */\n      dup3\n        /* \"#utility.yul\":15071:15089   */\n      add\n        /* \"#utility.yul\":15063:15089   */\n      swap1\n      pop\n        /* \"#utility.yul\":15135:15144   */\n      dup2\n        /* \"#utility.yul\":15129:15133   */\n      dup2\n        /* \"#utility.yul\":15125:15145   */\n      sub\n        /* \"#utility.yul\":15121:15122   */\n      0x00\n        /* \"#utility.yul\":15110:15119   */\n      dup4\n        /* \"#utility.yul\":15106:15123   */\n      add\n        /* \"#utility.yul\":15099:15146   */\n      mstore\n        /* \"#utility.yul\":15163:15294   */\n      tag_323\n        /* \"#utility.yul\":15289:15293   */\n      dup2\n        /* \"#utility.yul\":15163:15294   */\n      tag_180\n      jump\t// in\n    tag_323:\n        /* \"#utility.yul\":15155:15294   */\n      swap1\n      pop\n        /* \"#utility.yul\":14882:15301   */\n      swap2\n      swap1\n      pop\n      jump\t// out\n        /* \"#utility.yul\":15307:15487   */\n    tag_107:\n        /* \"#utility.yul\":15355:15432   */\n      0x4e487b7100000000000000000000000000000000000000000000000000000000\n        /* \"#utility.yul\":15352:15353   */\n      0x00\n        /* \"#utility.yul\":15345:15433   */\n      mstore\n        /* \"#utility.yul\":15452:15456   */\n      0x41\n        /* \"#utility.yul\":15449:15450   */\n      0x04\n        /* \"#utility.yul\":15442:15457   */\n      mstore\n        /* \"#utility.yul\":15476:15480   */\n      0x24\n        /* \"#utility.yul\":15473:15474   */\n      0x00\n        /* \"#utility.yul\":15466:15481   */\n      revert\n        /* \"#utility.yul\":15493:15664   */\n    tag_181:\n        /* \"#utility.yul\":15633:15656   */\n      0x546865206c6f747465727920697320636c6f7365640000000000000000000000\n        /* \"#utility.yul\":15629:15630   */\n      0x00\n        /* \"#utility.yul\":15621:15627   */\n      dup3\n        /* \"#utility.yul\":15617:15631   */\n      add\n        /* \"#utility.yul\":15610:15657   */\n      mstore\n        /* \"#utility.yul\":15493:15664   */\n      pop\n      jump\t// out\n        /* \"#utility.yul\":15670:16036   */\n    tag_182:\n        /* \"#utility.yul\":15812:15815   */\n      0x00\n        /* \"#utility.yul\":15833:15900   */\n      tag_327\n        /* \"#utility.yul\":15897:15899   */\n      0x15\n        /* \"#utility.yul\":15892:15895   */\n      dup4\n        /* \"#utility.yul\":15833:15900   */\n      tag_149\n      jump\t// in\n    tag_327:\n        /* \"#utility.yul\":15826:15900   */\n      swap2\n      pop\n        /* \"#utility.yul\":15909:16002   */\n      tag_328\n        /* \"#utility.yul\":15998:16001   */\n      dup3\n        /* \"#utility.yul\":15909:16002   */\n      tag_181\n      jump\t// in\n    tag_328:\n        /* \"#utility.yul\":16027:16029   */\n      0x20\n        /* \"#utility.yul\":16022:16025   */\n      dup3\n        /* \"#utility.yul\":16018:16030   */\n      add\n        /* \"#utility.yul\":16011:16030   */\n      swap1\n      pop\n        /* \"#utility.yul\":15670:16036   */\n      swap2\n      swap1\n      pop\n      jump\t// out\n        /* \"#utility.yul\":16042:16461   */\n    tag_115:\n        /* \"#utility.yul\":16208:16212   */\n      0x00\n        /* \"#utility.yul\":16246:16248   */\n      0x20\n        /* \"#utility.yul\":16235:16244   */\n      dup3\n        /* \"#utility.yul\":16231:16249   */\n      add\n        /* \"#utility.yul\":16223:16249   */\n      swap1\n      pop\n        /* \"#utility.yul\":16295:16304   */\n      dup2\n        /* \"#utility.yul\":16289:16293   */\n      dup2\n        /* \"#utility.yul\":16285:16305   */\n      sub\n        /* \"#utility.yul\":16281:16282   */\n      0x00\n        /* \"#utility.yul\":16270:16279   */\n      dup4\n        /* \"#utility.yul\":16266:16283   */\n      add\n        /* \"#utility.yul\":16259:16306   */\n      mstore\n        /* \"#utility.yul\":16323:16454   */\n      tag_330\n        /* \"#utility.yul\":16449:16453   */\n      dup2\n        /* \"#utility.yul\":16323:16454   */\n      tag_182\n      jump\t// in\n    tag_330:\n        /* \"#utility.yul\":16315:16454   */\n      swap1\n      pop\n        /* \"#utility.yul\":16042:16461   */\n      swap2\n      swap1\n      pop\n      jump\t// out\n        /* \"#utility.yul\":16467:16702   */\n    tag_183:\n        /* \"#utility.yul\":16607:16641   */\n      0x496e73756666696369656e742046756e647320417661696c61626c6520466f72\n        /* \"#utility.yul\":16603:16604   */\n      0x00\n        /* \"#utility.yul\":16595:16601   */\n      dup3\n        /* \"#utility.yul\":16591:16605   */\n      add\n        /* \"#utility.yul\":16584:16642   */\n      mstore\n        /* \"#utility.yul\":16676:16694   */\n      0x205469636b657420507572636861736500000000000000000000000000000000\n        /* \"#utility.yul\":16671:16673   */\n      0x20\n        /* \"#utility.yul\":16663:16669   */\n      dup3\n        /* \"#utility.yul\":16659:16674   */\n      add\n        /* \"#utility.yul\":16652:16695   */\n      mstore\n        /* \"#utility.yul\":16467:16702   */\n      pop\n      jump\t// out\n        /* \"#utility.yul\":16708:17074   */\n    tag_184:\n        /* \"#utility.yul\":16850:16853   */\n      0x00\n        /* \"#utility.yul\":16871:16938   */\n      tag_333\n        /* \"#utility.yul\":16935:16937   */\n      0x30\n        /* \"#utility.yul\":16930:16933   */\n      dup4\n        /* \"#utility.yul\":16871:16938   */\n      tag_149\n      jump\t// in\n    tag_333:\n        /* \"#utility.yul\":16864:16938   */\n      swap2\n      pop\n        /* \"#utility.yul\":16947:17040   */\n      tag_334\n        /* \"#utility.yul\":17036:17039   */\n      dup3\n        /* \"#utility.yul\":16947:17040   */\n      tag_183\n      jump\t// in\n    tag_334:\n        /* \"#utility.yul\":17065:17067   */\n      0x40\n        /* \"#utility.yul\":17060:17063   */\n      dup3\n        /* \"#utility.yul\":17056:17068   */\n      add\n        /* \"#utility.yul\":17049:17068   */\n      swap1\n      pop\n        /* \"#utility.yul\":16708:17074   */\n      swap2\n      swap1\n      pop\n      jump\t// out\n        /* \"#utility.yul\":17080:17499   */\n    tag_119:\n        /* \"#utility.yul\":17246:17250   */\n      0x00\n        /* \"#utility.yul\":17284:17286   */\n      0x20\n        /* \"#utility.yul\":17273:17282   */\n      dup3\n        /* \"#utility.yul\":17269:17287   */\n      add\n        /* \"#utility.yul\":17261:17287   */\n      swap1\n      pop\n        /* \"#utility.yul\":17333:17342   */\n      dup2\n        /* \"#utility.yul\":17327:17331   */\n      dup2\n        /* \"#utility.yul\":17323:17343   */\n      sub\n        /* \"#utility.yul\":17319:17320   */\n      0x00\n        /* \"#utility.yul\":17308:17317   */\n      dup4\n        /* \"#utility.yul\":17304:17321   */\n      add\n        /* \"#utility.yul\":17297:17344   */\n      mstore\n        /* \"#utility.yul\":17361:17492   */\n      tag_336\n        /* \"#utility.yul\":17487:17491   */\n      dup2\n        /* \"#utility.yul\":17361:17492   */\n      tag_184\n      jump\t// in\n    tag_336:\n        /* \"#utility.yul\":17353:17492   */\n      swap1\n      pop\n        /* \"#utility.yul\":17080:17499   */\n      swap2\n      swap1\n      pop\n      jump\t// out\n\n    auxdata: 0xa2646970667358221220b9dd2c075a907880a0299eed653f1a104530162f3407eb420da514e25921896364736f6c634300081a0033\n}\n",
				"bytecode": {
					"linkReferences": {},
					"object": "608060405234801561000f575f80fd5b50604051611393380380611393833981810160405281019061003191906100ce565b335f806101000a81548173ffffffffffffffffffffffffffffffffffffffff021916908373ffffffffffffffffffffffffffffffffffffffff16021790555080600281905550600160035f6101000a81548160ff021916908315150217905550506100f9565b5f80fd5b5f819050919050565b6100ad8161009b565b81146100b7575f80fd5b50565b5f815190506100c8816100a4565b92915050565b5f602082840312156100e3576100e2610097565b5b5f6100f0848285016100ba565b91505092915050565b61128d806101065f395ff3fe608060405260043610610090575f3560e01c8063b2185bb111610058578063b2185bb114610179578063c60c4ae91461018f578063d10b4561146101b9578063edca914c146101cf578063f71d96cb146101d957610090565b80631209b1f6146100945780633308f42d146100be5780634615102c146100e857806348ef3f03146101105780638da5cb5b1461014f575b5f80fd5b34801561009f575f80fd5b506100a8610215565b6040516100b59190610a49565b60405180910390f35b3480156100c9575f80fd5b506100d261021b565b6040516100df9190610b49565b60405180910390f35b3480156100f3575f80fd5b5061010e60048036038101906101099190610b97565b6102a6565b005b34801561011b575f80fd5b5061013660048036038101906101319190610b97565b6103a6565b6040516101469493929190610c41565b60405180910390f35b34801561015a575f80fd5b5061016361050c565b6040516101709190610c92565b60405180910390f35b348015610184575f80fd5b5061018d61052f565b005b34801561019a575f80fd5b506101a36107fb565b6040516101b09190610cc5565b60405180910390f35b3480156101c4575f80fd5b506101cd61080d565b005b6101d761080f565b005b3480156101e4575f80fd5b506101ff60048036038101906101fa9190610b97565b610954565b60405161020c9190610c92565b60405180910390f35b60025481565b6060600180548060200260200160405190810160405280929190818152602001828054801561029c57602002820191905f5260205f20905b815f9054906101000a900473ffffffffffffffffffffffffffffffffffffffff1673ffffffffffffffffffffffffffffffffffffffff1681526020019060010190808311610253575b5050505050905090565b5f8054906101000a900473ffffffffffffffffffffffffffffffffffffffff1673ffffffffffffffffffffffffffffffffffffffff163373ffffffffffffffffffffffffffffffffffffffff1614610333576040517f08c379a000000000000000000000000000000000000000000000000000000000815260040161032a90610d4e565b60405180910390fd5b60035f9054906101000a900460ff1615610382576040517f08c379a000000000000000000000000000000000000000000000000000000000815260040161037990610db6565b60405180910390fd5b80600281905550600160035f6101000a81548160ff02191690831515021790555050565b600581815481106103b5575f80fd5b905f5260205f2090600402015f91509050805f015f9054906101000a900473ffffffffffffffffffffffffffffffffffffffff16908060010180546103f990610e01565b80601f016020809104026020016040519081016040528092919081815260200182805461042590610e01565b80156104705780601f1061044757610100808354040283529160200191610470565b820191905f5260205f20905b81548152906001019060200180831161045357829003601f168201915b50505050509080600201805461048590610e01565b80601f01602080910402602001604051908101604052809291908181526020018280546104b190610e01565b80156104fc5780601f106104d3576101008083540402835291602001916104fc565b820191905f5260205f20905b8154815290600101906020018083116104df57829003601f168201915b5050505050908060030154905084565b5f8054906101000a900473ffffffffffffffffffffffffffffffffffffffff1681565b5f8054906101000a900473ffffffffffffffffffffffffffffffffffffffff1673ffffffffffffffffffffffffffffffffffffffff163373ffffffffffffffffffffffffffffffffffffffff16146105bc576040517f08c379a00000000000000000000000000000000000000000000000000000000081526004016105b390610d4e565b60405180910390fd5b5f60018054905011610603576040517f08c379a00000000000000000000000000000000000000000000000000000000081526004016105fa90610e7b565b60405180910390fd5b5f6001805490504244600160405160200161062093929190610fc9565b604051602081830303815290604052805190602001205f1c610642919061102e565b90505f600182815481106106595761065861105e565b5b905f5260205f20015f9054906101000a900473ffffffffffffffffffffffffffffffffffffffff1690505f4790505f8273ffffffffffffffffffffffffffffffffffffffff16826040516106ac906110b8565b5f6040518083038185875af1925050503d805f81146106e6576040519150601f19603f3d011682016040523d82523d5f602084013e6106eb565b606091505b505090508061072f576040517f08c379a000000000000000000000000000000000000000000000000000000000815260040161072690611116565b60405180910390fd5b8273ffffffffffffffffffffffffffffffffffffffff167f75060f9e79552df167b73353fee6237a75bb5ba8ea022f77224e32f152138bcb836040516107759190610a49565b60405180910390a25f67ffffffffffffffff81111561079757610796611134565b5b6040519080825280602002602001820160405280156107c55781602001602082028036833780820191505090505b50600190805190602001906107db92919061098f565b505f60035f6101000a81548160ff02191690831515021790555050505050565b60035f9054906101000a900460ff1681565b565b60035f9054906101000a900460ff1661085d576040517f08c379a0000000000000000000000000000000000000000000000000000000008152600401610854906111ab565b60405180910390fd5b6002543410156108a2576040517f08c379a000000000000000000000000000000000000000000000000000000000815260040161089990611239565b60405180910390fd5b600133908060018154018082558091505060019003905f5260205f20015f9091909190916101000a81548173ffffffffffffffffffffffffffffffffffffffff021916908373ffffffffffffffffffffffffffffffffffffffff1602179055503373ffffffffffffffffffffffffffffffffffffffff167f0668f5b446eb814fe35b3206f43f14bd8567ba04ddaf7a3ee56516929ab22ccb60025460405161094a9190610a49565b60405180910390a2565b60018181548110610963575f80fd5b905f5260205f20015f915054906101000a900473ffffffffffffffffffffffffffffffffffffffff1681565b828054828255905f5260205f20908101928215610a05579160200282015b82811115610a04578251825f6101000a81548173ffffffffffffffffffffffffffffffffffffffff021916908373ffffffffffffffffffffffffffffffffffffffff160217905550916020019190600101906109ad565b5b509050610a129190610a16565b5090565b5b80821115610a2d575f815f905550600101610a17565b5090565b5f819050919050565b610a4381610a31565b82525050565b5f602082019050610a5c5f830184610a3a565b92915050565b5f81519050919050565b5f82825260208201905092915050565b5f819050602082019050919050565b5f73ffffffffffffffffffffffffffffffffffffffff82169050919050565b5f610ab482610a8b565b9050919050565b610ac481610aaa565b82525050565b5f610ad58383610abb565b60208301905092915050565b5f602082019050919050565b5f610af782610a62565b610b018185610a6c565b9350610b0c83610a7c565b805f5b83811015610b3c578151610b238882610aca565b9750610b2e83610ae1565b925050600181019050610b0f565b5085935050505092915050565b5f6020820190508181035f830152610b618184610aed565b905092915050565b5f80fd5b610b7681610a31565b8114610b80575f80fd5b50565b5f81359050610b9181610b6d565b92915050565b5f60208284031215610bac57610bab610b69565b5b5f610bb984828501610b83565b91505092915050565b610bcb81610aaa565b82525050565b5f81519050919050565b5f82825260208201905092915050565b8281835e5f83830152505050565b5f601f19601f8301169050919050565b5f610c1382610bd1565b610c1d8185610bdb565b9350610c2d818560208601610beb565b610c3681610bf9565b840191505092915050565b5f608082019050610c545f830187610bc2565b8181036020830152610c668186610c09565b90508181036040830152610c7a8185610c09565b9050610c896060830184610a3a565b95945050505050565b5f602082019050610ca55f830184610bc2565b92915050565b5f8115159050919050565b610cbf81610cab565b82525050565b5f602082019050610cd85f830184610cb6565b92915050565b7f4f6e6c7920746865206f776e65722063616e20706572666f726d2074686973205f8201527f616374696f6e0000000000000000000000000000000000000000000000000000602082015250565b5f610d38602683610bdb565b9150610d4382610cde565b604082019050919050565b5f6020820190508181035f830152610d6581610d2c565b9050919050565b7f43757272656e74206c6f7474657279207374696c6c20616374697665000000005f82015250565b5f610da0601c83610bdb565b9150610dab82610d6c565b602082019050919050565b5f6020820190508181035f830152610dcd81610d94565b9050919050565b7f4e487b71000000000000000000000000000000000000000000000000000000005f52602260045260245ffd5b5f6002820490506001821680610e1857607f821691505b602082108103610e2b57610e2a610dd4565b5b50919050565b7f4e6f20706c617965727320696e20746865206c6f7474657279000000000000005f82015250565b5f610e65601983610bdb565b9150610e7082610e31565b602082019050919050565b5f6020820190508181035f830152610e9281610e59565b9050919050565b5f819050919050565b610eb3610eae82610a31565b610e99565b82525050565b5f81549050919050565b5f81905092915050565b5f819050815f5260205f209050919050565b610ee881610aaa565b82525050565b5f610ef98383610edf565b60208301905092915050565b5f815f1c9050919050565b5f73ffffffffffffffffffffffffffffffffffffffff82169050919050565b5f610f41610f3c83610f05565b610f10565b9050919050565b5f610f538254610f2f565b9050919050565b5f600182019050919050565b5f610f7082610eb9565b610f7a8185610ec3565b9350610f8583610ecd565b805f5b83811015610fbc57610f9982610f48565b610fa38882610eee565b9750610fae83610f5a565b925050600181019050610f88565b5085935050505092915050565b5f610fd48286610ea2565b602082019150610fe48285610ea2565b602082019150610ff48284610f66565b9150819050949350505050565b7f4e487b71000000000000000000000000000000000000000000000000000000005f52601260045260245ffd5b5f61103882610a31565b915061104383610a31565b92508261105357611052611001565b5b828206905092915050565b7f4e487b71000000000000000000000000000000000000000000000000000000005f52603260045260245ffd5b5f81905092915050565b50565b5f6110a35f8361108b565b91506110ae82611095565b5f82019050919050565b5f6110c282611098565b9150819050919050565b7f5072697a65207472616e73666572206661696c656400000000000000000000005f82015250565b5f611100601583610bdb565b915061110b826110cc565b602082019050919050565b5f6020820190508181035f83015261112d816110f4565b9050919050565b7f4e487b71000000000000000000000000000000000000000000000000000000005f52604160045260245ffd5b7f546865206c6f747465727920697320636c6f73656400000000000000000000005f82015250565b5f611195601583610bdb565b91506111a082611161565b602082019050919050565b5f6020820190508181035f8301526111c281611189565b9050919050565b7f496e73756666696369656e742046756e647320417661696c61626c6520466f725f8201527f205469636b657420507572636861736500000000000000000000000000000000602082015250565b5f611223603083610bdb565b915061122e826111c9565b604082019050919050565b5f6020820190508181035f83015261125081611217565b905091905056fea2646970667358221220b9dd2c075a907880a0299eed653f1a104530162f3407eb420da514e25921896364736f6c634300081a0033",
					"opcodes": "PUSH1 0x80 PUSH1 0x40 MSTORE CALLVALUE DUP1 ISZERO PUSH2 0xF JUMPI PUSH0 DUP1 REVERT JUMPDEST POP PUSH1 0x40 MLOAD PUSH2 0x1393 CODESIZE SUB DUP1 PUSH2 0x1393 DUP4 CODECOPY DUP2 DUP2 ADD PUSH1 0x40 MSTORE DUP2 ADD SWAP1 PUSH2 0x31 SWAP2 SWAP1 PUSH2 0xCE JUMP JUMPDEST CALLER PUSH0 DUP1 PUSH2 0x100 EXP DUP2 SLOAD DUP2 PUSH20 0xFFFFFFFFFFFFFFFFFFFFFFFFFFFFFFFFFFFFFFFF MUL NOT AND SWAP1 DUP4 PUSH20 0xFFFFFFFFFFFFFFFFFFFFFFFFFFFFFFFFFFFFFFFF AND MUL OR SWAP1 SSTORE POP DUP1 PUSH1 0x2 DUP2 SWAP1 SSTORE POP PUSH1 0x1 PUSH1 0x3 PUSH0 PUSH2 0x100 EXP DUP2 SLOAD DUP2 PUSH1 0xFF MUL NOT AND SWAP1 DUP4 ISZERO ISZERO MUL OR SWAP1 SSTORE POP POP PUSH2 0xF9 JUMP JUMPDEST PUSH0 DUP1 REVERT JUMPDEST PUSH0 DUP2 SWAP1 POP SWAP2 SWAP1 POP JUMP JUMPDEST PUSH2 0xAD DUP2 PUSH2 0x9B JUMP JUMPDEST DUP2 EQ PUSH2 0xB7 JUMPI PUSH0 DUP1 REVERT JUMPDEST POP JUMP JUMPDEST PUSH0 DUP2 MLOAD SWAP1 POP PUSH2 0xC8 DUP2 PUSH2 0xA4 JUMP JUMPDEST SWAP3 SWAP2 POP POP JUMP JUMPDEST PUSH0 PUSH1 0x20 DUP3 DUP5 SUB SLT ISZERO PUSH2 0xE3 JUMPI PUSH2 0xE2 PUSH2 0x97 JUMP JUMPDEST JUMPDEST PUSH0 PUSH2 0xF0 DUP5 DUP3 DUP6 ADD PUSH2 0xBA JUMP JUMPDEST SWAP2 POP POP SWAP3 SWAP2 POP POP JUMP JUMPDEST PUSH2 0x128D DUP1 PUSH2 0x106 PUSH0 CODECOPY PUSH0 RETURN INVALID PUSH1 0x80 PUSH1 0x40 MSTORE PUSH1 0x4 CALLDATASIZE LT PUSH2 0x90 JUMPI PUSH0 CALLDATALOAD PUSH1 0xE0 SHR DUP1 PUSH4 0xB2185BB1 GT PUSH2 0x58 JUMPI DUP1 PUSH4 0xB2185BB1 EQ PUSH2 0x179 JUMPI DUP1 PUSH4 0xC60C4AE9 EQ PUSH2 0x18F JUMPI DUP1 PUSH4 0xD10B4561 EQ PUSH2 0x1B9 JUMPI DUP1 PUSH4 0xEDCA914C EQ PUSH2 0x1CF JUMPI DUP1 PUSH4 0xF71D96CB EQ PUSH2 0x1D9 JUMPI PUSH2 0x90 JUMP JUMPDEST DUP1 PUSH4 0x1209B1F6 EQ PUSH2 0x94 JUMPI DUP1 PUSH4 0x3308F42D EQ PUSH2 0xBE JUMPI DUP1 PUSH4 0x4615102C EQ PUSH2 0xE8 JUMPI DUP1 PUSH4 0x48EF3F03 EQ PUSH2 0x110 JUMPI DUP1 PUSH4 0x8DA5CB5B EQ PUSH2 0x14F JUMPI JUMPDEST PUSH0 DUP1 REVERT JUMPDEST CALLVALUE DUP1 ISZERO PUSH2 0x9F JUMPI PUSH0 DUP1 REVERT JUMPDEST POP PUSH2 0xA8 PUSH2 0x215 JUMP JUMPDEST PUSH1 0x40 MLOAD PUSH2 0xB5 SWAP2 SWAP1 PUSH2 0xA49 JUMP JUMPDEST PUSH1 0x40 MLOAD DUP1 SWAP2 SUB SWAP1 RETURN JUMPDEST CALLVALUE DUP1 ISZERO PUSH2 0xC9 JUMPI PUSH0 DUP1 REVERT JUMPDEST POP PUSH2 0xD2 PUSH2 0x21B JUMP JUMPDEST PUSH1 0x40 MLOAD PUSH2 0xDF SWAP2 SWAP1 PUSH2 0xB49 JUMP JUMPDEST PUSH1 0x40 MLOAD DUP1 SWAP2 SUB SWAP1 RETURN JUMPDEST CALLVALUE DUP1 ISZERO PUSH2 0xF3 JUMPI PUSH0 DUP1 REVERT JUMPDEST POP PUSH2 0x10E PUSH1 0x4 DUP1 CALLDATASIZE SUB DUP2 ADD SWAP1 PUSH2 0x109 SWAP2 SWAP1 PUSH2 0xB97 JUMP JUMPDEST PUSH2 0x2A6 JUMP JUMPDEST STOP JUMPDEST CALLVALUE DUP1 ISZERO PUSH2 0x11B JUMPI PUSH0 DUP1 REVERT JUMPDEST POP PUSH2 0x136 PUSH1 0x4 DUP1 CALLDATASIZE SUB DUP2 ADD SWAP1 PUSH2 0x131 SWAP2 SWAP1 PUSH2 0xB97 JUMP JUMPDEST PUSH2 0x3A6 JUMP JUMPDEST PUSH1 0x40 MLOAD PUSH2 0x146 SWAP5 SWAP4 SWAP3 SWAP2 SWAP1 PUSH2 0xC41 JUMP JUMPDEST PUSH1 0x40 MLOAD DUP1 SWAP2 SUB SWAP1 RETURN JUMPDEST CALLVALUE DUP1 ISZERO PUSH2 0x15A JUMPI PUSH0 DUP1 REVERT JUMPDEST POP PUSH2 0x163 PUSH2 0x50C JUMP JUMPDEST PUSH1 0x40 MLOAD PUSH2 0x170 SWAP2 SWAP1 PUSH2 0xC92 JUMP JUMPDEST PUSH1 0x40 MLOAD DUP1 SWAP2 SUB SWAP1 RETURN JUMPDEST CALLVALUE DUP1 ISZERO PUSH2 0x184 JUMPI PUSH0 DUP1 REVERT JUMPDEST POP PUSH2 0x18D PUSH2 0x52F JUMP JUMPDEST STOP JUMPDEST CALLVALUE DUP1 ISZERO PUSH2 0x19A JUMPI PUSH0 DUP1 REVERT JUMPDEST POP PUSH2 0x1A3 PUSH2 0x7FB JUMP JUMPDEST PUSH1 0x40 MLOAD PUSH2 0x1B0 SWAP2 SWAP1 PUSH2 0xCC5 JUMP JUMPDEST PUSH1 0x40 MLOAD DUP1 SWAP2 SUB SWAP1 RETURN JUMPDEST CALLVALUE DUP1 ISZERO PUSH2 0x1C4 JUMPI PUSH0 DUP1 REVERT JUMPDEST POP PUSH2 0x1CD PUSH2 0x80D JUMP JUMPDEST STOP JUMPDEST PUSH2 0x1D7 PUSH2 0x80F JUMP JUMPDEST STOP JUMPDEST CALLVALUE DUP1 ISZERO PUSH2 0x1E4 JUMPI PUSH0 DUP1 REVERT JUMPDEST POP PUSH2 0x1FF PUSH1 0x4 DUP1 CALLDATASIZE SUB DUP2 ADD SWAP1 PUSH2 0x1FA SWAP2 SWAP1 PUSH2 0xB97 JUMP JUMPDEST PUSH2 0x954 JUMP JUMPDEST PUSH1 0x40 MLOAD PUSH2 0x20C SWAP2 SWAP1 PUSH2 0xC92 JUMP JUMPDEST PUSH1 0x40 MLOAD DUP1 SWAP2 SUB SWAP1 RETURN JUMPDEST PUSH1 0x2 SLOAD DUP2 JUMP JUMPDEST PUSH1 0x60 PUSH1 0x1 DUP1 SLOAD DUP1 PUSH1 0x20 MUL PUSH1 0x20 ADD PUSH1 0x40 MLOAD SWAP1 DUP2 ADD PUSH1 0x40 MSTORE DUP1 SWAP3 SWAP2 SWAP1 DUP2 DUP2 MSTORE PUSH1 0x20 ADD DUP3 DUP1 SLOAD DUP1 ISZERO PUSH2 0x29C JUMPI PUSH1 0x20 MUL DUP3 ADD SWAP2 SWAP1 PUSH0 MSTORE PUSH1 0x20 PUSH0 KECCAK256 SWAP1 JUMPDEST DUP2 PUSH0 SWAP1 SLOAD SWAP1 PUSH2 0x100 EXP SWAP1 DIV PUSH20 0xFFFFFFFFFFFFFFFFFFFFFFFFFFFFFFFFFFFFFFFF AND PUSH20 0xFFFFFFFFFFFFFFFFFFFFFFFFFFFFFFFFFFFFFFFF AND DUP2 MSTORE PUSH1 0x20 ADD SWAP1 PUSH1 0x1 ADD SWAP1 DUP1 DUP4 GT PUSH2 0x253 JUMPI JUMPDEST POP POP POP POP POP SWAP1 POP SWAP1 JUMP JUMPDEST PUSH0 DUP1 SLOAD SWAP1 PUSH2 0x100 EXP SWAP1 DIV PUSH20 0xFFFFFFFFFFFFFFFFFFFFFFFFFFFFFFFFFFFFFFFF AND PUSH20 0xFFFFFFFFFFFFFFFFFFFFFFFFFFFFFFFFFFFFFFFF AND CALLER PUSH20 0xFFFFFFFFFFFFFFFFFFFFFFFFFFFFFFFFFFFFFFFF AND EQ PUSH2 0x333 JUMPI PUSH1 0x40 MLOAD PUSH32 0x8C379A000000000000000000000000000000000000000000000000000000000 DUP2 MSTORE PUSH1 0x4 ADD PUSH2 0x32A SWAP1 PUSH2 0xD4E JUMP JUMPDEST PUSH1 0x40 MLOAD DUP1 SWAP2 SUB SWAP1 REVERT JUMPDEST PUSH1 0x3 PUSH0 SWAP1 SLOAD SWAP1 PUSH2 0x100 EXP SWAP1 DIV PUSH1 0xFF AND ISZERO PUSH2 0x382 JUMPI PUSH1 0x40 MLOAD PUSH32 0x8C379A000000000000000000000000000000000000000000000000000000000 DUP2 MSTORE PUSH1 0x4 ADD PUSH2 0x379 SWAP1 PUSH2 0xDB6 JUMP JUMPDEST PUSH1 0x40 MLOAD DUP1 SWAP2 SUB SWAP1 REVERT JUMPDEST DUP1 PUSH1 0x2 DUP2 SWAP1 SSTORE POP PUSH1 0x1 PUSH1 0x3 PUSH0 PUSH2 0x100 EXP DUP2 SLOAD DUP2 PUSH1 0xFF MUL NOT AND SWAP1 DUP4 ISZERO ISZERO MUL OR SWAP1 SSTORE POP POP JUMP JUMPDEST PUSH1 0x5 DUP2 DUP2 SLOAD DUP2 LT PUSH2 0x3B5 JUMPI PUSH0 DUP1 REVERT JUMPDEST SWAP1 PUSH0 MSTORE PUSH1 0x20 PUSH0 KECCAK256 SWAP1 PUSH1 0x4 MUL ADD PUSH0 SWAP2 POP SWAP1 POP DUP1 PUSH0 ADD PUSH0 SWAP1 SLOAD SWAP1 PUSH2 0x100 EXP SWAP1 DIV PUSH20 0xFFFFFFFFFFFFFFFFFFFFFFFFFFFFFFFFFFFFFFFF AND SWAP1 DUP1 PUSH1 0x1 ADD DUP1 SLOAD PUSH2 0x3F9 SWAP1 PUSH2 0xE01 JUMP JUMPDEST DUP1 PUSH1 0x1F ADD PUSH1 0x20 DUP1 SWAP2 DIV MUL PUSH1 0x20 ADD PUSH1 0x40 MLOAD SWAP1 DUP2 ADD PUSH1 0x40 MSTORE DUP1 SWAP3 SWAP2 SWAP1 DUP2 DUP2 MSTORE PUSH1 0x20 ADD DUP3 DUP1 SLOAD PUSH2 0x425 SWAP1 PUSH2 0xE01 JUMP JUMPDEST DUP1 ISZERO PUSH2 0x470 JUMPI DUP1 PUSH1 0x1F LT PUSH2 0x447 JUMPI PUSH2 0x100 DUP1 DUP4 SLOAD DIV MUL DUP4 MSTORE SWAP2 PUSH1 0x20 ADD SWAP2 PUSH2 0x470 JUMP JUMPDEST DUP3 ADD SWAP2 SWAP1 PUSH0 MSTORE PUSH1 0x20 PUSH0 KECCAK256 SWAP1 JUMPDEST DUP2 SLOAD DUP2 MSTORE SWAP1 PUSH1 0x1 ADD SWAP1 PUSH1 0x20 ADD DUP1 DUP4 GT PUSH2 0x453 JUMPI DUP3 SWAP1 SUB PUSH1 0x1F AND DUP3 ADD SWAP2 JUMPDEST POP POP POP POP POP SWAP1 DUP1 PUSH1 0x2 ADD DUP1 SLOAD PUSH2 0x485 SWAP1 PUSH2 0xE01 JUMP JUMPDEST DUP1 PUSH1 0x1F ADD PUSH1 0x20 DUP1 SWAP2 DIV MUL PUSH1 0x20 ADD PUSH1 0x40 MLOAD SWAP1 DUP2 ADD PUSH1 0x40 MSTORE DUP1 SWAP3 SWAP2 SWAP1 DUP2 DUP2 MSTORE PUSH1 0x20 ADD DUP3 DUP1 SLOAD PUSH2 0x4B1 SWAP1 PUSH2 0xE01 JUMP JUMPDEST DUP1 ISZERO PUSH2 0x4FC JUMPI DUP1 PUSH1 0x1F LT PUSH2 0x4D3 JUMPI PUSH2 0x100 DUP1 DUP4 SLOAD DIV MUL DUP4 MSTORE SWAP2 PUSH1 0x20 ADD SWAP2 PUSH2 0x4FC JUMP JUMPDEST DUP3 ADD SWAP2 SWAP1 PUSH0 MSTORE PUSH1 0x20 PUSH0 KECCAK256 SWAP1 JUMPDEST DUP2 SLOAD DUP2 MSTORE SWAP1 PUSH1 0x1 ADD SWAP1 PUSH1 0x20 ADD DUP1 DUP4 GT PUSH2 0x4DF JUMPI DUP3 SWAP1 SUB PUSH1 0x1F AND DUP3 ADD SWAP2 JUMPDEST POP POP POP POP POP SWAP1 DUP1 PUSH1 0x3 ADD SLOAD SWAP1 POP DUP5 JUMP JUMPDEST PUSH0 DUP1 SLOAD SWAP1 PUSH2 0x100 EXP SWAP1 DIV PUSH20 0xFFFFFFFFFFFFFFFFFFFFFFFFFFFFFFFFFFFFFFFF AND DUP2 JUMP JUMPDEST PUSH0 DUP1 SLOAD SWAP1 PUSH2 0x100 EXP SWAP1 DIV PUSH20 0xFFFFFFFFFFFFFFFFFFFFFFFFFFFFFFFFFFFFFFFF AND PUSH20 0xFFFFFFFFFFFFFFFFFFFFFFFFFFFFFFFFFFFFFFFF AND CALLER PUSH20 0xFFFFFFFFFFFFFFFFFFFFFFFFFFFFFFFFFFFFFFFF AND EQ PUSH2 0x5BC JUMPI PUSH1 0x40 MLOAD PUSH32 0x8C379A000000000000000000000000000000000000000000000000000000000 DUP2 MSTORE PUSH1 0x4 ADD PUSH2 0x5B3 SWAP1 PUSH2 0xD4E JUMP JUMPDEST PUSH1 0x40 MLOAD DUP1 SWAP2 SUB SWAP1 REVERT JUMPDEST PUSH0 PUSH1 0x1 DUP1 SLOAD SWAP1 POP GT PUSH2 0x603 JUMPI PUSH1 0x40 MLOAD PUSH32 0x8C379A000000000000000000000000000000000000000000000000000000000 DUP2 MSTORE PUSH1 0x4 ADD PUSH2 0x5FA SWAP1 PUSH2 0xE7B JUMP JUMPDEST PUSH1 0x40 MLOAD DUP1 SWAP2 SUB SWAP1 REVERT JUMPDEST PUSH0 PUSH1 0x1 DUP1 SLOAD SWAP1 POP TIMESTAMP PREVRANDAO PUSH1 0x1 PUSH1 0x40 MLOAD PUSH1 0x20 ADD PUSH2 0x620 SWAP4 SWAP3 SWAP2 SWAP1 PUSH2 0xFC9 JUMP JUMPDEST PUSH1 0x40 MLOAD PUSH1 0x20 DUP2 DUP4 SUB SUB DUP2 MSTORE SWAP1 PUSH1 0x40 MSTORE DUP1 MLOAD SWAP1 PUSH1 0x20 ADD KECCAK256 PUSH0 SHR PUSH2 0x642 SWAP2 SWAP1 PUSH2 0x102E JUMP JUMPDEST SWAP1 POP PUSH0 PUSH1 0x1 DUP3 DUP2 SLOAD DUP2 LT PUSH2 0x659 JUMPI PUSH2 0x658 PUSH2 0x105E JUMP JUMPDEST JUMPDEST SWAP1 PUSH0 MSTORE PUSH1 0x20 PUSH0 KECCAK256 ADD PUSH0 SWAP1 SLOAD SWAP1 PUSH2 0x100 EXP SWAP1 DIV PUSH20 0xFFFFFFFFFFFFFFFFFFFFFFFFFFFFFFFFFFFFFFFF AND SWAP1 POP PUSH0 SELFBALANCE SWAP1 POP PUSH0 DUP3 PUSH20 0xFFFFFFFFFFFFFFFFFFFFFFFFFFFFFFFFFFFFFFFF AND DUP3 PUSH1 0x40 MLOAD PUSH2 0x6AC SWAP1 PUSH2 0x10B8 JUMP JUMPDEST PUSH0 PUSH1 0x40 MLOAD DUP1 DUP4 SUB DUP2 DUP6 DUP8 GAS CALL SWAP3 POP POP POP RETURNDATASIZE DUP1 PUSH0 DUP2 EQ PUSH2 0x6E6 JUMPI PUSH1 0x40 MLOAD SWAP2 POP PUSH1 0x1F NOT PUSH1 0x3F RETURNDATASIZE ADD AND DUP3 ADD PUSH1 0x40 MSTORE RETURNDATASIZE DUP3 MSTORE RETURNDATASIZE PUSH0 PUSH1 0x20 DUP5 ADD RETURNDATACOPY PUSH2 0x6EB JUMP JUMPDEST PUSH1 0x60 SWAP2 POP JUMPDEST POP POP SWAP1 POP DUP1 PUSH2 0x72F JUMPI PUSH1 0x40 MLOAD PUSH32 0x8C379A000000000000000000000000000000000000000000000000000000000 DUP2 MSTORE PUSH1 0x4 ADD PUSH2 0x726 SWAP1 PUSH2 0x1116 JUMP JUMPDEST PUSH1 0x40 MLOAD DUP1 SWAP2 SUB SWAP1 REVERT JUMPDEST DUP3 PUSH20 0xFFFFFFFFFFFFFFFFFFFFFFFFFFFFFFFFFFFFFFFF AND PUSH32 0x75060F9E79552DF167B73353FEE6237A75BB5BA8EA022F77224E32F152138BCB DUP4 PUSH1 0x40 MLOAD PUSH2 0x775 SWAP2 SWAP1 PUSH2 0xA49 JUMP JUMPDEST PUSH1 0x40 MLOAD DUP1 SWAP2 SUB SWAP1 LOG2 PUSH0 PUSH8 0xFFFFFFFFFFFFFFFF DUP2 GT ISZERO PUSH2 0x797 JUMPI PUSH2 0x796 PUSH2 0x1134 JUMP JUMPDEST JUMPDEST PUSH1 0x40 MLOAD SWAP1 DUP1 DUP3 MSTORE DUP1 PUSH1 0x20 MUL PUSH1 0x20 ADD DUP3 ADD PUSH1 0x40 MSTORE DUP1 ISZERO PUSH2 0x7C5 JUMPI DUP2 PUSH1 0x20 ADD PUSH1 0x20 DUP3 MUL DUP1 CALLDATASIZE DUP4 CALLDATACOPY DUP1 DUP3 ADD SWAP2 POP POP SWAP1 POP JUMPDEST POP PUSH1 0x1 SWAP1 DUP1 MLOAD SWAP1 PUSH1 0x20 ADD SWAP1 PUSH2 0x7DB SWAP3 SWAP2 SWAP1 PUSH2 0x98F JUMP JUMPDEST POP PUSH0 PUSH1 0x3 PUSH0 PUSH2 0x100 EXP DUP2 SLOAD DUP2 PUSH1 0xFF MUL NOT AND SWAP1 DUP4 ISZERO ISZERO MUL OR SWAP1 SSTORE POP POP POP POP POP JUMP JUMPDEST PUSH1 0x3 PUSH0 SWAP1 SLOAD SWAP1 PUSH2 0x100 EXP SWAP1 DIV PUSH1 0xFF AND DUP2 JUMP JUMPDEST JUMP JUMPDEST PUSH1 0x3 PUSH0 SWAP1 SLOAD SWAP1 PUSH2 0x100 EXP SWAP1 DIV PUSH1 0xFF AND PUSH2 0x85D JUMPI PUSH1 0x40 MLOAD PUSH32 0x8C379A000000000000000000000000000000000000000000000000000000000 DUP2 MSTORE PUSH1 0x4 ADD PUSH2 0x854 SWAP1 PUSH2 0x11AB JUMP JUMPDEST PUSH1 0x40 MLOAD DUP1 SWAP2 SUB SWAP1 REVERT JUMPDEST PUSH1 0x2 SLOAD CALLVALUE LT ISZERO PUSH2 0x8A2 JUMPI PUSH1 0x40 MLOAD PUSH32 0x8C379A000000000000000000000000000000000000000000000000000000000 DUP2 MSTORE PUSH1 0x4 ADD PUSH2 0x899 SWAP1 PUSH2 0x1239 JUMP JUMPDEST PUSH1 0x40 MLOAD DUP1 SWAP2 SUB SWAP1 REVERT JUMPDEST PUSH1 0x1 CALLER SWAP1 DUP1 PUSH1 0x1 DUP2 SLOAD ADD DUP1 DUP3 SSTORE DUP1 SWAP2 POP POP PUSH1 0x1 SWAP1 SUB SWAP1 PUSH0 MSTORE PUSH1 0x20 PUSH0 KECCAK256 ADD PUSH0 SWAP1 SWAP2 SWAP1 SWAP2 SWAP1 SWAP2 PUSH2 0x100 EXP DUP2 SLOAD DUP2 PUSH20 0xFFFFFFFFFFFFFFFFFFFFFFFFFFFFFFFFFFFFFFFF MUL NOT AND SWAP1 DUP4 PUSH20 0xFFFFFFFFFFFFFFFFFFFFFFFFFFFFFFFFFFFFFFFF AND MUL OR SWAP1 SSTORE POP CALLER PUSH20 0xFFFFFFFFFFFFFFFFFFFFFFFFFFFFFFFFFFFFFFFF AND PUSH32 0x668F5B446EB814FE35B3206F43F14BD8567BA04DDAF7A3EE56516929AB22CCB PUSH1 0x2 SLOAD PUSH1 0x40 MLOAD PUSH2 0x94A SWAP2 SWAP1 PUSH2 0xA49 JUMP JUMPDEST PUSH1 0x40 MLOAD DUP1 SWAP2 SUB SWAP1 LOG2 JUMP JUMPDEST PUSH1 0x1 DUP2 DUP2 SLOAD DUP2 LT PUSH2 0x963 JUMPI PUSH0 DUP1 REVERT JUMPDEST SWAP1 PUSH0 MSTORE PUSH1 0x20 PUSH0 KECCAK256 ADD PUSH0 SWAP2 POP SLOAD SWAP1 PUSH2 0x100 EXP SWAP1 DIV PUSH20 0xFFFFFFFFFFFFFFFFFFFFFFFFFFFFFFFFFFFFFFFF AND DUP2 JUMP JUMPDEST DUP3 DUP1 SLOAD DUP3 DUP3 SSTORE SWAP1 PUSH0 MSTORE PUSH1 0x20 PUSH0 KECCAK256 SWAP1 DUP2 ADD SWAP3 DUP3 ISZERO PUSH2 0xA05 JUMPI SWAP2 PUSH1 0x20 MUL DUP3 ADD JUMPDEST DUP3 DUP2 GT ISZERO PUSH2 0xA04 JUMPI DUP3 MLOAD DUP3 PUSH0 PUSH2 0x100 EXP DUP2 SLOAD DUP2 PUSH20 0xFFFFFFFFFFFFFFFFFFFFFFFFFFFFFFFFFFFFFFFF MUL NOT AND SWAP1 DUP4 PUSH20 0xFFFFFFFFFFFFFFFFFFFFFFFFFFFFFFFFFFFFFFFF AND MUL OR SWAP1 SSTORE POP SWAP2 PUSH1 0x20 ADD SWAP2 SWAP1 PUSH1 0x1 ADD SWAP1 PUSH2 0x9AD JUMP JUMPDEST JUMPDEST POP SWAP1 POP PUSH2 0xA12 SWAP2 SWAP1 PUSH2 0xA16 JUMP JUMPDEST POP SWAP1 JUMP JUMPDEST JUMPDEST DUP1 DUP3 GT ISZERO PUSH2 0xA2D JUMPI PUSH0 DUP2 PUSH0 SWAP1 SSTORE POP PUSH1 0x1 ADD PUSH2 0xA17 JUMP JUMPDEST POP SWAP1 JUMP JUMPDEST PUSH0 DUP2 SWAP1 POP SWAP2 SWAP1 POP JUMP JUMPDEST PUSH2 0xA43 DUP2 PUSH2 0xA31 JUMP JUMPDEST DUP3 MSTORE POP POP JUMP JUMPDEST PUSH0 PUSH1 0x20 DUP3 ADD SWAP1 POP PUSH2 0xA5C PUSH0 DUP4 ADD DUP5 PUSH2 0xA3A JUMP JUMPDEST SWAP3 SWAP2 POP POP JUMP JUMPDEST PUSH0 DUP2 MLOAD SWAP1 POP SWAP2 SWAP1 POP JUMP JUMPDEST PUSH0 DUP3 DUP3 MSTORE PUSH1 0x20 DUP3 ADD SWAP1 POP SWAP3 SWAP2 POP POP JUMP JUMPDEST PUSH0 DUP2 SWAP1 POP PUSH1 0x20 DUP3 ADD SWAP1 POP SWAP2 SWAP1 POP JUMP JUMPDEST PUSH0 PUSH20 0xFFFFFFFFFFFFFFFFFFFFFFFFFFFFFFFFFFFFFFFF DUP3 AND SWAP1 POP SWAP2 SWAP1 POP JUMP JUMPDEST PUSH0 PUSH2 0xAB4 DUP3 PUSH2 0xA8B JUMP JUMPDEST SWAP1 POP SWAP2 SWAP1 POP JUMP JUMPDEST PUSH2 0xAC4 DUP2 PUSH2 0xAAA JUMP JUMPDEST DUP3 MSTORE POP POP JUMP JUMPDEST PUSH0 PUSH2 0xAD5 DUP4 DUP4 PUSH2 0xABB JUMP JUMPDEST PUSH1 0x20 DUP4 ADD SWAP1 POP SWAP3 SWAP2 POP POP JUMP JUMPDEST PUSH0 PUSH1 0x20 DUP3 ADD SWAP1 POP SWAP2 SWAP1 POP JUMP JUMPDEST PUSH0 PUSH2 0xAF7 DUP3 PUSH2 0xA62 JUMP JUMPDEST PUSH2 0xB01 DUP2 DUP6 PUSH2 0xA6C JUMP JUMPDEST SWAP4 POP PUSH2 0xB0C DUP4 PUSH2 0xA7C JUMP JUMPDEST DUP1 PUSH0 JUMPDEST DUP4 DUP2 LT ISZERO PUSH2 0xB3C JUMPI DUP2 MLOAD PUSH2 0xB23 DUP9 DUP3 PUSH2 0xACA JUMP JUMPDEST SWAP8 POP PUSH2 0xB2E DUP4 PUSH2 0xAE1 JUMP JUMPDEST SWAP3 POP POP PUSH1 0x1 DUP2 ADD SWAP1 POP PUSH2 0xB0F JUMP JUMPDEST POP DUP6 SWAP4 POP POP POP POP SWAP3 SWAP2 POP POP JUMP JUMPDEST PUSH0 PUSH1 0x20 DUP3 ADD SWAP1 POP DUP2 DUP2 SUB PUSH0 DUP4 ADD MSTORE PUSH2 0xB61 DUP2 DUP5 PUSH2 0xAED JUMP JUMPDEST SWAP1 POP SWAP3 SWAP2 POP POP JUMP JUMPDEST PUSH0 DUP1 REVERT JUMPDEST PUSH2 0xB76 DUP2 PUSH2 0xA31 JUMP JUMPDEST DUP2 EQ PUSH2 0xB80 JUMPI PUSH0 DUP1 REVERT JUMPDEST POP JUMP JUMPDEST PUSH0 DUP2 CALLDATALOAD SWAP1 POP PUSH2 0xB91 DUP2 PUSH2 0xB6D JUMP JUMPDEST SWAP3 SWAP2 POP POP JUMP JUMPDEST PUSH0 PUSH1 0x20 DUP3 DUP5 SUB SLT ISZERO PUSH2 0xBAC JUMPI PUSH2 0xBAB PUSH2 0xB69 JUMP JUMPDEST JUMPDEST PUSH0 PUSH2 0xBB9 DUP5 DUP3 DUP6 ADD PUSH2 0xB83 JUMP JUMPDEST SWAP2 POP POP SWAP3 SWAP2 POP POP JUMP JUMPDEST PUSH2 0xBCB DUP2 PUSH2 0xAAA JUMP JUMPDEST DUP3 MSTORE POP POP JUMP JUMPDEST PUSH0 DUP2 MLOAD SWAP1 POP SWAP2 SWAP1 POP JUMP JUMPDEST PUSH0 DUP3 DUP3 MSTORE PUSH1 0x20 DUP3 ADD SWAP1 POP SWAP3 SWAP2 POP POP JUMP JUMPDEST DUP3 DUP2 DUP4 MCOPY PUSH0 DUP4 DUP4 ADD MSTORE POP POP POP JUMP JUMPDEST PUSH0 PUSH1 0x1F NOT PUSH1 0x1F DUP4 ADD AND SWAP1 POP SWAP2 SWAP1 POP JUMP JUMPDEST PUSH0 PUSH2 0xC13 DUP3 PUSH2 0xBD1 JUMP JUMPDEST PUSH2 0xC1D DUP2 DUP6 PUSH2 0xBDB JUMP JUMPDEST SWAP4 POP PUSH2 0xC2D DUP2 DUP6 PUSH1 0x20 DUP7 ADD PUSH2 0xBEB JUMP JUMPDEST PUSH2 0xC36 DUP2 PUSH2 0xBF9 JUMP JUMPDEST DUP5 ADD SWAP2 POP POP SWAP3 SWAP2 POP POP JUMP JUMPDEST PUSH0 PUSH1 0x80 DUP3 ADD SWAP1 POP PUSH2 0xC54 PUSH0 DUP4 ADD DUP8 PUSH2 0xBC2 JUMP JUMPDEST DUP2 DUP2 SUB PUSH1 0x20 DUP4 ADD MSTORE PUSH2 0xC66 DUP2 DUP7 PUSH2 0xC09 JUMP JUMPDEST SWAP1 POP DUP2 DUP2 SUB PUSH1 0x40 DUP4 ADD MSTORE PUSH2 0xC7A DUP2 DUP6 PUSH2 0xC09 JUMP JUMPDEST SWAP1 POP PUSH2 0xC89 PUSH1 0x60 DUP4 ADD DUP5 PUSH2 0xA3A JUMP JUMPDEST SWAP6 SWAP5 POP POP POP POP POP JUMP JUMPDEST PUSH0 PUSH1 0x20 DUP3 ADD SWAP1 POP PUSH2 0xCA5 PUSH0 DUP4 ADD DUP5 PUSH2 0xBC2 JUMP JUMPDEST SWAP3 SWAP2 POP POP JUMP JUMPDEST PUSH0 DUP2 ISZERO ISZERO SWAP1 POP SWAP2 SWAP1 POP JUMP JUMPDEST PUSH2 0xCBF DUP2 PUSH2 0xCAB JUMP JUMPDEST DUP3 MSTORE POP POP JUMP JUMPDEST PUSH0 PUSH1 0x20 DUP3 ADD SWAP1 POP PUSH2 0xCD8 PUSH0 DUP4 ADD DUP5 PUSH2 0xCB6 JUMP JUMPDEST SWAP3 SWAP2 POP POP JUMP JUMPDEST PUSH32 0x4F6E6C7920746865206F776E65722063616E20706572666F726D207468697320 PUSH0 DUP3 ADD MSTORE PUSH32 0x616374696F6E0000000000000000000000000000000000000000000000000000 PUSH1 0x20 DUP3 ADD MSTORE POP JUMP JUMPDEST PUSH0 PUSH2 0xD38 PUSH1 0x26 DUP4 PUSH2 0xBDB JUMP JUMPDEST SWAP2 POP PUSH2 0xD43 DUP3 PUSH2 0xCDE JUMP JUMPDEST PUSH1 0x40 DUP3 ADD SWAP1 POP SWAP2 SWAP1 POP JUMP JUMPDEST PUSH0 PUSH1 0x20 DUP3 ADD SWAP1 POP DUP2 DUP2 SUB PUSH0 DUP4 ADD MSTORE PUSH2 0xD65 DUP2 PUSH2 0xD2C JUMP JUMPDEST SWAP1 POP SWAP2 SWAP1 POP JUMP JUMPDEST PUSH32 0x43757272656E74206C6F7474657279207374696C6C2061637469766500000000 PUSH0 DUP3 ADD MSTORE POP JUMP JUMPDEST PUSH0 PUSH2 0xDA0 PUSH1 0x1C DUP4 PUSH2 0xBDB JUMP JUMPDEST SWAP2 POP PUSH2 0xDAB DUP3 PUSH2 0xD6C JUMP JUMPDEST PUSH1 0x20 DUP3 ADD SWAP1 POP SWAP2 SWAP1 POP JUMP JUMPDEST PUSH0 PUSH1 0x20 DUP3 ADD SWAP1 POP DUP2 DUP2 SUB PUSH0 DUP4 ADD MSTORE PUSH2 0xDCD DUP2 PUSH2 0xD94 JUMP JUMPDEST SWAP1 POP SWAP2 SWAP1 POP JUMP JUMPDEST PUSH32 0x4E487B7100000000000000000000000000000000000000000000000000000000 PUSH0 MSTORE PUSH1 0x22 PUSH1 0x4 MSTORE PUSH1 0x24 PUSH0 REVERT JUMPDEST PUSH0 PUSH1 0x2 DUP3 DIV SWAP1 POP PUSH1 0x1 DUP3 AND DUP1 PUSH2 0xE18 JUMPI PUSH1 0x7F DUP3 AND SWAP2 POP JUMPDEST PUSH1 0x20 DUP3 LT DUP2 SUB PUSH2 0xE2B JUMPI PUSH2 0xE2A PUSH2 0xDD4 JUMP JUMPDEST JUMPDEST POP SWAP2 SWAP1 POP JUMP JUMPDEST PUSH32 0x4E6F20706C617965727320696E20746865206C6F747465727900000000000000 PUSH0 DUP3 ADD MSTORE POP JUMP JUMPDEST PUSH0 PUSH2 0xE65 PUSH1 0x19 DUP4 PUSH2 0xBDB JUMP JUMPDEST SWAP2 POP PUSH2 0xE70 DUP3 PUSH2 0xE31 JUMP JUMPDEST PUSH1 0x20 DUP3 ADD SWAP1 POP SWAP2 SWAP1 POP JUMP JUMPDEST PUSH0 PUSH1 0x20 DUP3 ADD SWAP1 POP DUP2 DUP2 SUB PUSH0 DUP4 ADD MSTORE PUSH2 0xE92 DUP2 PUSH2 0xE59 JUMP JUMPDEST SWAP1 POP SWAP2 SWAP1 POP JUMP JUMPDEST PUSH0 DUP2 SWAP1 POP SWAP2 SWAP1 POP JUMP JUMPDEST PUSH2 0xEB3 PUSH2 0xEAE DUP3 PUSH2 0xA31 JUMP JUMPDEST PUSH2 0xE99 JUMP JUMPDEST DUP3 MSTORE POP POP JUMP JUMPDEST PUSH0 DUP2 SLOAD SWAP1 POP SWAP2 SWAP1 POP JUMP JUMPDEST PUSH0 DUP2 SWAP1 POP SWAP3 SWAP2 POP POP JUMP JUMPDEST PUSH0 DUP2 SWAP1 POP DUP2 PUSH0 MSTORE PUSH1 0x20 PUSH0 KECCAK256 SWAP1 POP SWAP2 SWAP1 POP JUMP JUMPDEST PUSH2 0xEE8 DUP2 PUSH2 0xAAA JUMP JUMPDEST DUP3 MSTORE POP POP JUMP JUMPDEST PUSH0 PUSH2 0xEF9 DUP4 DUP4 PUSH2 0xEDF JUMP JUMPDEST PUSH1 0x20 DUP4 ADD SWAP1 POP SWAP3 SWAP2 POP POP JUMP JUMPDEST PUSH0 DUP2 PUSH0 SHR SWAP1 POP SWAP2 SWAP1 POP JUMP JUMPDEST PUSH0 PUSH20 0xFFFFFFFFFFFFFFFFFFFFFFFFFFFFFFFFFFFFFFFF DUP3 AND SWAP1 POP SWAP2 SWAP1 POP JUMP JUMPDEST PUSH0 PUSH2 0xF41 PUSH2 0xF3C DUP4 PUSH2 0xF05 JUMP JUMPDEST PUSH2 0xF10 JUMP JUMPDEST SWAP1 POP SWAP2 SWAP1 POP JUMP JUMPDEST PUSH0 PUSH2 0xF53 DUP3 SLOAD PUSH2 0xF2F JUMP JUMPDEST SWAP1 POP SWAP2 SWAP1 POP JUMP JUMPDEST PUSH0 PUSH1 0x1 DUP3 ADD SWAP1 POP SWAP2 SWAP1 POP JUMP JUMPDEST PUSH0 PUSH2 0xF70 DUP3 PUSH2 0xEB9 JUMP JUMPDEST PUSH2 0xF7A DUP2 DUP6 PUSH2 0xEC3 JUMP JUMPDEST SWAP4 POP PUSH2 0xF85 DUP4 PUSH2 0xECD JUMP JUMPDEST DUP1 PUSH0 JUMPDEST DUP4 DUP2 LT ISZERO PUSH2 0xFBC JUMPI PUSH2 0xF99 DUP3 PUSH2 0xF48 JUMP JUMPDEST PUSH2 0xFA3 DUP9 DUP3 PUSH2 0xEEE JUMP JUMPDEST SWAP8 POP PUSH2 0xFAE DUP4 PUSH2 0xF5A JUMP JUMPDEST SWAP3 POP POP PUSH1 0x1 DUP2 ADD SWAP1 POP PUSH2 0xF88 JUMP JUMPDEST POP DUP6 SWAP4 POP POP POP POP SWAP3 SWAP2 POP POP JUMP JUMPDEST PUSH0 PUSH2 0xFD4 DUP3 DUP7 PUSH2 0xEA2 JUMP JUMPDEST PUSH1 0x20 DUP3 ADD SWAP2 POP PUSH2 0xFE4 DUP3 DUP6 PUSH2 0xEA2 JUMP JUMPDEST PUSH1 0x20 DUP3 ADD SWAP2 POP PUSH2 0xFF4 DUP3 DUP5 PUSH2 0xF66 JUMP JUMPDEST SWAP2 POP DUP2 SWAP1 POP SWAP5 SWAP4 POP POP POP POP JUMP JUMPDEST PUSH32 0x4E487B7100000000000000000000000000000000000000000000000000000000 PUSH0 MSTORE PUSH1 0x12 PUSH1 0x4 MSTORE PUSH1 0x24 PUSH0 REVERT JUMPDEST PUSH0 PUSH2 0x1038 DUP3 PUSH2 0xA31 JUMP JUMPDEST SWAP2 POP PUSH2 0x1043 DUP4 PUSH2 0xA31 JUMP JUMPDEST SWAP3 POP DUP3 PUSH2 0x1053 JUMPI PUSH2 0x1052 PUSH2 0x1001 JUMP JUMPDEST JUMPDEST DUP3 DUP3 MOD SWAP1 POP SWAP3 SWAP2 POP POP JUMP JUMPDEST PUSH32 0x4E487B7100000000000000000000000000000000000000000000000000000000 PUSH0 MSTORE PUSH1 0x32 PUSH1 0x4 MSTORE PUSH1 0x24 PUSH0 REVERT JUMPDEST PUSH0 DUP2 SWAP1 POP SWAP3 SWAP2 POP POP JUMP JUMPDEST POP JUMP JUMPDEST PUSH0 PUSH2 0x10A3 PUSH0 DUP4 PUSH2 0x108B JUMP JUMPDEST SWAP2 POP PUSH2 0x10AE DUP3 PUSH2 0x1095 JUMP JUMPDEST PUSH0 DUP3 ADD SWAP1 POP SWAP2 SWAP1 POP JUMP JUMPDEST PUSH0 PUSH2 0x10C2 DUP3 PUSH2 0x1098 JUMP JUMPDEST SWAP2 POP DUP2 SWAP1 POP SWAP2 SWAP1 POP JUMP JUMPDEST PUSH32 0x5072697A65207472616E73666572206661696C65640000000000000000000000 PUSH0 DUP3 ADD MSTORE POP JUMP JUMPDEST PUSH0 PUSH2 0x1100 PUSH1 0x15 DUP4 PUSH2 0xBDB JUMP JUMPDEST SWAP2 POP PUSH2 0x110B DUP3 PUSH2 0x10CC JUMP JUMPDEST PUSH1 0x20 DUP3 ADD SWAP1 POP SWAP2 SWAP1 POP JUMP JUMPDEST PUSH0 PUSH1 0x20 DUP3 ADD SWAP1 POP DUP2 DUP2 SUB PUSH0 DUP4 ADD MSTORE PUSH2 0x112D DUP2 PUSH2 0x10F4 JUMP JUMPDEST SWAP1 POP SWAP2 SWAP1 POP JUMP JUMPDEST PUSH32 0x4E487B7100000000000000000000000000000000000000000000000000000000 PUSH0 MSTORE PUSH1 0x41 PUSH1 0x4 MSTORE PUSH1 0x24 PUSH0 REVERT JUMPDEST PUSH32 0x546865206C6F747465727920697320636C6F7365640000000000000000000000 PUSH0 DUP3 ADD MSTORE POP JUMP JUMPDEST PUSH0 PUSH2 0x1195 PUSH1 0x15 DUP4 PUSH2 0xBDB JUMP JUMPDEST SWAP2 POP PUSH2 0x11A0 DUP3 PUSH2 0x1161 JUMP JUMPDEST PUSH1 0x20 DUP3 ADD SWAP1 POP SWAP2 SWAP1 POP JUMP JUMPDEST PUSH0 PUSH1 0x20 DUP3 ADD SWAP1 POP DUP2 DUP2 SUB PUSH0 DUP4 ADD MSTORE PUSH2 0x11C2 DUP2 PUSH2 0x1189 JUMP JUMPDEST SWAP1 POP SWAP2 SWAP1 POP JUMP JUMPDEST PUSH32 0x496E73756666696369656E742046756E647320417661696C61626C6520466F72 PUSH0 DUP3 ADD MSTORE PUSH32 0x205469636B657420507572636861736500000000000000000000000000000000 PUSH1 0x20 DUP3 ADD MSTORE POP JUMP JUMPDEST PUSH0 PUSH2 0x1223 PUSH1 0x30 DUP4 PUSH2 0xBDB JUMP JUMPDEST SWAP2 POP PUSH2 0x122E DUP3 PUSH2 0x11C9 JUMP JUMPDEST PUSH1 0x40 DUP3 ADD SWAP1 POP SWAP2 SWAP1 POP JUMP JUMPDEST PUSH0 PUSH1 0x20 DUP3 ADD SWAP1 POP DUP2 DUP2 SUB PUSH0 DUP4 ADD MSTORE PUSH2 0x1250 DUP2 PUSH2 0x1217 JUMP JUMPDEST SWAP1 POP SWAP2 SWAP1 POP JUMP INVALID LOG2 PUSH5 0x6970667358 0x22 SLT KECCAK256 0xB9 0xDD 0x2C SMOD GAS SWAP1 PUSH25 0x80A0299EED653F1A104530162F3407EB420DA514E259218963 PUSH5 0x736F6C6343 STOP ADDMOD BYTE STOP CALLER "
				},
				"gasEstimates": {
					"creation": {
						"codeDepositCost": "949800",
						"executionCost": "infinite",
						"totalCost": "infinite"
					},
					"external": {
						"InitializeAccounts()": "187",
						"Players(uint256)": "infinite",
						"buyTicket()": "56708",
						"drawWinner()": "infinite",
						"getPlayer()": "infinite",
						"lotteryOpen()": "2488",
						"owner()": "2594",
						"players(uint256)": "5032",
						"startNewRound(uint256)": "51147",
						"ticketPrice()": "2426"
					}
				},
				"methodIdentifiers": {
					"InitializeAccounts()": "d10b4561",
					"Players(uint256)": "48ef3f03",
					"buyTicket()": "edca914c",
					"drawWinner()": "b2185bb1",
					"getPlayer()": "3308f42d",
					"lotteryOpen()": "c60c4ae9",
					"owner()": "8da5cb5b",
					"players(uint256)": "f71d96cb",
					"startNewRound(uint256)": "4615102c",
					"ticketPrice()": "1209b1f6"
				}
			},
			"storageLayout": {
				"storage": [
					{
						"astId": 106,
						"contract": "DecentralizedLottery.sol:DecentralizedLottery",
						"label": "owner",
						"offset": 0,
						"slot": "0",
						"type": "t_address"
					},
					{
						"astId": 109,
						"contract": "DecentralizedLottery.sol:DecentralizedLottery",
						"label": "players",
						"offset": 0,
						"slot": "1",
						"type": "t_array(t_address)dyn_storage"
					},
					{
						"astId": 111,
						"contract": "DecentralizedLottery.sol:DecentralizedLottery",
						"label": "ticketPrice",
						"offset": 0,
						"slot": "2",
						"type": "t_uint256"
					},
					{
						"astId": 113,
						"contract": "DecentralizedLottery.sol:DecentralizedLottery",
						"label": "lotteryOpen",
						"offset": 0,
						"slot": "3",
						"type": "t_bool"
					},
					{
						"astId": 117,
						"contract": "DecentralizedLottery.sol:DecentralizedLottery",
						"label": "ExistingPlayers",
						"offset": 0,
						"slot": "4",
						"type": "t_mapping(t_address,t_bool)"
					},
					{
						"astId": 121,
						"contract": "DecentralizedLottery.sol:DecentralizedLottery",
						"label": "Players",
						"offset": 0,
						"slot": "5",
						"type": "t_array(t_struct(lotteryAccounts)130_storage)dyn_storage"
					}
				],
				"types": {
					"t_address": {
						"encoding": "inplace",
						"label": "address",
						"numberOfBytes": "20"
					},
					"t_array(t_address)dyn_storage": {
						"base": "t_address",
						"encoding": "dynamic_array",
						"label": "address[]",
						"numberOfBytes": "32"
					},
					"t_array(t_struct(lotteryAccounts)130_storage)dyn_storage": {
						"base": "t_struct(lotteryAccounts)130_storage",
						"encoding": "dynamic_array",
						"label": "struct DecentralizedLottery.lotteryAccounts[]",
						"numberOfBytes": "32"
					},
					"t_bool": {
						"encoding": "inplace",
						"label": "bool",
						"numberOfBytes": "1"
					},
					"t_mapping(t_address,t_bool)": {
						"encoding": "mapping",
						"key": "t_address",
						"label": "mapping(address => bool)",
						"numberOfBytes": "32",
						"value": "t_bool"
					},
					"t_string_storage": {
						"encoding": "bytes",
						"label": "string",
						"numberOfBytes": "32"
					},
					"t_struct(lotteryAccounts)130_storage": {
						"encoding": "inplace",
						"label": "struct DecentralizedLottery.lotteryAccounts",
						"members": [
							{
								"astId": 123,
								"contract": "DecentralizedLottery.sol:DecentralizedLottery",
								"label": "PlayerAddr",
								"offset": 0,
								"slot": "0",
								"type": "t_address"
							},
							{
								"astId": 125,
								"contract": "DecentralizedLottery.sol:DecentralizedLottery",
								"label": "accountName",
								"offset": 0,
								"slot": "1",
								"type": "t_string_storage"
							},
							{
								"astId": 127,
								"contract": "DecentralizedLottery.sol:DecentralizedLottery",
								"label": "createdOn",
								"offset": 0,
								"slot": "2",
								"type": "t_string_storage"
							},
							{
								"astId": 129,
								"contract": "DecentralizedLottery.sol:DecentralizedLottery",
								"label": "wins",
								"offset": 0,
								"slot": "3",
								"type": "t_uint256"
							}
						],
						"numberOfBytes": "128"
					},
					"t_uint256": {
						"encoding": "inplace",
						"label": "uint256",
						"numberOfBytes": "32"
					}
				}
			},
			"userdoc": {
				"kind": "user",
				"methods": {},
				"version": 1
			}
		}
	}
}