{
	"DecentralizedLottery.sol": {
		"CharityScheme": {
			"abi": [
				{
					"inputs": [
						{
							"internalType": "string",
							"name": "_name",
							"type": "string"
						},
						{
							"internalType": "string",
							"name": "_president",
							"type": "string"
						},
						{
							"internalType": "uint256",
							"name": "_population",
							"type": "uint256"
						}
					],
					"name": "DummyCreatorShelter",
					"outputs": [],
					"stateMutability": "nonpayable",
					"type": "function"
				},
				{
					"inputs": [
						{
							"internalType": "uint256",
							"name": "",
							"type": "uint256"
						}
					],
					"name": "HomelesShelters",
					"outputs": [
						{
							"internalType": "address",
							"name": "accountID",
							"type": "address"
						},
						{
							"internalType": "string",
							"name": "orgName",
							"type": "string"
						},
						{
							"internalType": "string",
							"name": "president",
							"type": "string"
						},
						{
							"internalType": "uint256",
							"name": "population",
							"type": "uint256"
						}
					],
					"stateMutability": "view",
					"type": "function"
				},
				{
					"inputs": [],
					"name": "balance",
					"outputs": [
						{
							"internalType": "uint256",
							"name": "",
							"type": "uint256"
						}
					],
					"stateMutability": "view",
					"type": "function"
				},
				{
					"inputs": [],
					"name": "getSHelterQuota",
					"outputs": [
						{
							"internalType": "uint256",
							"name": "",
							"type": "uint256"
						}
					],
					"stateMutability": "view",
					"type": "function"
				},
				{
					"inputs": [],
					"name": "getShelter",
					"outputs": [
						{
							"components": [
								{
									"internalType": "address",
									"name": "accountID",
									"type": "address"
								},
								{
									"internalType": "string",
									"name": "orgName",
									"type": "string"
								},
								{
									"internalType": "string",
									"name": "president",
									"type": "string"
								},
								{
									"internalType": "uint256",
									"name": "population",
									"type": "uint256"
								}
							],
							"internalType": "struct CharityScheme.shelter[]",
							"name": "",
							"type": "tuple[]"
						}
					],
					"stateMutability": "view",
					"type": "function"
				},
				{
					"inputs": [],
					"name": "getVaultBalance",
					"outputs": [
						{
							"internalType": "uint256",
							"name": "",
							"type": "uint256"
						}
					],
					"stateMutability": "view",
					"type": "function"
				},
				{
					"inputs": [],
					"name": "tip",
					"outputs": [
						{
							"internalType": "uint256",
							"name": "",
							"type": "uint256"
						}
					],
					"stateMutability": "view",
					"type": "function"
				}
			],
			"devdoc": {
				"kind": "dev",
				"methods": {},
				"version": 1
			},
			"evm": {
				"assembly": "    /* \"DecentralizedLottery.sol\":334:1667  contract CharityScheme {... */\n  mstore(0x40, 0x80)\n  callvalue\n  dup1\n  iszero\n  tag_1\n  jumpi\n  0x00\n  dup1\n  revert\ntag_1:\n  pop\n  dataSize(sub_0)\n  dup1\n  dataOffset(sub_0)\n  0x00\n  codecopy\n  0x00\n  return\nstop\n\nsub_0: assembly {\n        /* \"DecentralizedLottery.sol\":334:1667  contract CharityScheme {... */\n      mstore(0x40, 0x80)\n      callvalue\n      dup1\n      iszero\n      tag_1\n      jumpi\n      0x00\n      dup1\n      revert\n    tag_1:\n      pop\n      jumpi(tag_2, lt(calldatasize, 0x04))\n      shr(0xe0, calldataload(0x00))\n      dup1\n      0x5203bdf9\n      gt\n      tag_10\n      jumpi\n      dup1\n      0x5203bdf9\n      eq\n      tag_6\n      jumpi\n      dup1\n      0xb69ef8a8\n      eq\n      tag_7\n      jumpi\n      dup1\n      0xed12e8ef\n      eq\n      tag_8\n      jumpi\n      dup1\n      0xf89e29cd\n      eq\n      tag_9\n      jumpi\n      jump(tag_2)\n    tag_10:\n      dup1\n      0x0cd2890b\n      eq\n      tag_3\n      jumpi\n      dup1\n      0x0df56056\n      eq\n      tag_4\n      jumpi\n      dup1\n      0x2755cd2d\n      eq\n      tag_5\n      jumpi\n    tag_2:\n      0x00\n      dup1\n      revert\n        /* \"DecentralizedLottery.sol\":993:1250  function DummyCreatorShelter( string memory _name ,  string memory _president , uint  _population  )public{... */\n    tag_3:\n      tag_11\n      0x04\n      dup1\n      calldatasize\n      sub\n      dup2\n      add\n      swap1\n      tag_12\n      swap2\n      swap1\n      tag_13\n      jump\t// in\n    tag_12:\n      tag_14\n      jump\t// in\n    tag_11:\n      stop\n        /* \"DecentralizedLottery.sol\":1252:1346  function  getSHelterQuota() public view returns (uint){ ... */\n    tag_4:\n      tag_15\n      tag_16\n      jump\t// in\n    tag_15:\n      mload(0x40)\n      tag_17\n      swap2\n      swap1\n      tag_18\n      jump\t// in\n    tag_17:\n      mload(0x40)\n      dup1\n      swap2\n      sub\n      swap1\n      return\n        /* \"DecentralizedLottery.sol\":394:409  uint public tip */\n    tag_5:\n      tag_19\n      tag_20\n      jump\t// in\n    tag_19:\n      mload(0x40)\n      tag_21\n      swap2\n      swap1\n      tag_18\n      jump\t// in\n    tag_21:\n      mload(0x40)\n      dup1\n      swap2\n      sub\n      swap1\n      return\n        /* \"DecentralizedLottery.sol\":955:987  shelter[] public HomelesShelters */\n    tag_6:\n      tag_22\n      0x04\n      dup1\n      calldatasize\n      sub\n      dup2\n      add\n      swap1\n      tag_23\n      swap2\n      swap1\n      tag_24\n      jump\t// in\n    tag_23:\n      tag_25\n      jump\t// in\n    tag_22:\n      mload(0x40)\n      tag_26\n      swap5\n      swap4\n      swap3\n      swap2\n      swap1\n      tag_27\n      jump\t// in\n    tag_26:\n      mload(0x40)\n      dup1\n      swap2\n      sub\n      swap1\n      return\n        /* \"DecentralizedLottery.sol\":416:435  uint public balance */\n    tag_7:\n      tag_28\n      tag_29\n      jump\t// in\n    tag_28:\n      mload(0x40)\n      tag_30\n      swap2\n      swap1\n      tag_18\n      jump\t// in\n    tag_30:\n      mload(0x40)\n      dup1\n      swap2\n      sub\n      swap1\n      return\n        /* \"DecentralizedLottery.sol\":618:697  function getVaultBalance()public view returns (uint256){... */\n    tag_8:\n      tag_31\n      tag_32\n      jump\t// in\n    tag_31:\n      mload(0x40)\n      tag_33\n      swap2\n      swap1\n      tag_18\n      jump\t// in\n    tag_33:\n      mload(0x40)\n      dup1\n      swap2\n      sub\n      swap1\n      return\n        /* \"DecentralizedLottery.sol\":1408:1663  function getShelter() public view returns (shelter[] memory ){ ... */\n    tag_9:\n      tag_34\n      tag_35\n      jump\t// in\n    tag_34:\n      mload(0x40)\n      tag_36\n      swap2\n      swap1\n      tag_37\n      jump\t// in\n    tag_36:\n      mload(0x40)\n      dup1\n      swap2\n      sub\n      swap1\n      return\n        /* \"DecentralizedLottery.sol\":993:1250  function DummyCreatorShelter( string memory _name ,  string memory _president , uint  _population  )public{... */\n    tag_14:\n        /* \"DecentralizedLottery.sol\":1102:1117  HomelesShelters */\n      0x02\n        /* \"DecentralizedLottery.sol\":1123:1244  shelter({ ... */\n      mload(0x40)\n      dup1\n      0x80\n      add\n      0x40\n      mstore\n      dup1\n        /* \"DecentralizedLottery.sol\":1158:1159  0 */\n      0x00\n        /* \"DecentralizedLottery.sol\":1123:1244  shelter({ ... */\n      0xffffffffffffffffffffffffffffffffffffffff\n      and\n      dup2\n      mstore\n      0x20\n      add\n        /* \"DecentralizedLottery.sol\":1176:1181  _name */\n      dup6\n        /* \"DecentralizedLottery.sol\":1123:1244  shelter({ ... */\n      dup2\n      mstore\n      0x20\n      add\n        /* \"DecentralizedLottery.sol\":1198:1208  _president */\n      dup5\n        /* \"DecentralizedLottery.sol\":1123:1244  shelter({ ... */\n      dup2\n      mstore\n      0x20\n      add\n        /* \"DecentralizedLottery.sol\":1228:1239  _population */\n      dup4\n        /* \"DecentralizedLottery.sol\":1123:1244  shelter({ ... */\n      dup2\n      mstore\n      pop\n        /* \"DecentralizedLottery.sol\":1102:1245  HomelesShelters.push(shelter({ ... */\n      swap1\n      dup1\n      0x01\n      dup2\n      sload\n      add\n      dup1\n      dup3\n      sstore\n      dup1\n      swap2\n      pop\n      pop\n      0x01\n      swap1\n      sub\n      swap1\n      0x00\n      mstore\n      keccak256(0x00, 0x20)\n      swap1\n      0x04\n      mul\n      add\n      0x00\n      swap1\n      swap2\n      swap1\n      swap2\n      swap1\n      swap2\n      pop\n      0x00\n      dup3\n      add\n      mload\n      dup2\n      0x00\n      add\n      exp(0x0100, 0x00)\n      dup2\n      sload\n      dup2\n      0xffffffffffffffffffffffffffffffffffffffff\n      mul\n      not\n      and\n      swap1\n      dup4\n      0xffffffffffffffffffffffffffffffffffffffff\n      and\n      mul\n      or\n      swap1\n      sstore\n      pop\n      0x20\n      dup3\n      add\n      mload\n      dup2\n      0x01\n      add\n      swap1\n      dup2\n      tag_40\n      swap2\n      swap1\n      tag_41\n      jump\t// in\n    tag_40:\n      pop\n      0x40\n      dup3\n      add\n      mload\n      dup2\n      0x02\n      add\n      swap1\n      dup2\n      tag_42\n      swap2\n      swap1\n      tag_41\n      jump\t// in\n    tag_42:\n      pop\n      0x60\n      dup3\n      add\n      mload\n      dup2\n      0x03\n      add\n      sstore\n      pop\n      pop\n        /* \"DecentralizedLottery.sol\":993:1250  function DummyCreatorShelter( string memory _name ,  string memory _president , uint  _population  )public{... */\n      pop\n      pop\n      pop\n      jump\t// out\n        /* \"DecentralizedLottery.sol\":1252:1346  function  getSHelterQuota() public view returns (uint){ ... */\n    tag_16:\n        /* \"DecentralizedLottery.sol\":1301:1305  uint */\n      0x00\n        /* \"DecentralizedLottery.sol\":1318:1333  HomelesShelters */\n      0x02\n        /* \"DecentralizedLottery.sol\":1318:1340  HomelesShelters.length */\n      dup1\n      sload\n      swap1\n      pop\n        /* \"DecentralizedLottery.sol\":1311:1340  return HomelesShelters.length */\n      swap1\n      pop\n        /* \"DecentralizedLottery.sol\":1252:1346  function  getSHelterQuota() public view returns (uint){ ... */\n      swap1\n      jump\t// out\n        /* \"DecentralizedLottery.sol\":394:409  uint public tip */\n    tag_20:\n      sload(0x00)\n      dup2\n      jump\t// out\n        /* \"DecentralizedLottery.sol\":955:987  shelter[] public HomelesShelters */\n    tag_25:\n      0x02\n      dup2\n      dup2\n      sload\n      dup2\n      lt\n      tag_44\n      jumpi\n      0x00\n      dup1\n      revert\n    tag_44:\n      swap1\n      0x00\n      mstore\n      keccak256(0x00, 0x20)\n      swap1\n      0x04\n      mul\n      add\n      0x00\n      swap2\n      pop\n      swap1\n      pop\n      dup1\n      0x00\n      add\n      0x00\n      swap1\n      sload\n      swap1\n      0x0100\n      exp\n      swap1\n      div\n      0xffffffffffffffffffffffffffffffffffffffff\n      and\n      swap1\n      dup1\n      0x01\n      add\n      dup1\n      sload\n      tag_46\n      swap1\n      tag_47\n      jump\t// in\n    tag_46:\n      dup1\n      0x1f\n      add\n      0x20\n      dup1\n      swap2\n      div\n      mul\n      0x20\n      add\n      mload(0x40)\n      swap1\n      dup2\n      add\n      0x40\n      mstore\n      dup1\n      swap3\n      swap2\n      swap1\n      dup2\n      dup2\n      mstore\n      0x20\n      add\n      dup3\n      dup1\n      sload\n      tag_48\n      swap1\n      tag_47\n      jump\t// in\n    tag_48:\n      dup1\n      iszero\n      tag_49\n      jumpi\n      dup1\n      0x1f\n      lt\n      tag_50\n      jumpi\n      0x0100\n      dup1\n      dup4\n      sload\n      div\n      mul\n      dup4\n      mstore\n      swap2\n      0x20\n      add\n      swap2\n      jump(tag_49)\n    tag_50:\n      dup3\n      add\n      swap2\n      swap1\n      0x00\n      mstore\n      keccak256(0x00, 0x20)\n      swap1\n    tag_51:\n      dup2\n      sload\n      dup2\n      mstore\n      swap1\n      0x01\n      add\n      swap1\n      0x20\n      add\n      dup1\n      dup4\n      gt\n      tag_51\n      jumpi\n      dup3\n      swap1\n      sub\n      0x1f\n      and\n      dup3\n      add\n      swap2\n    tag_49:\n      pop\n      pop\n      pop\n      pop\n      pop\n      swap1\n      dup1\n      0x02\n      add\n      dup1\n      sload\n      tag_52\n      swap1\n      tag_47\n      jump\t// in\n    tag_52:\n      dup1\n      0x1f\n      add\n      0x20\n      dup1\n      swap2\n      div\n      mul\n      0x20\n      add\n      mload(0x40)\n      swap1\n      dup2\n      add\n      0x40\n      mstore\n      dup1\n      swap3\n      swap2\n      swap1\n      dup2\n      dup2\n      mstore\n      0x20\n      add\n      dup3\n      dup1\n      sload\n      tag_53\n      swap1\n      tag_47\n      jump\t// in\n    tag_53:\n      dup1\n      iszero\n      tag_54\n      jumpi\n      dup1\n      0x1f\n      lt\n      tag_55\n      jumpi\n      0x0100\n      dup1\n      dup4\n      sload\n      div\n      mul\n      dup4\n      mstore\n      swap2\n      0x20\n      add\n      swap2\n      jump(tag_54)\n    tag_55:\n      dup3\n      add\n      swap2\n      swap1\n      0x00\n      mstore\n      keccak256(0x00, 0x20)\n      swap1\n    tag_56:\n      dup2\n      sload\n      dup2\n      mstore\n      swap1\n      0x01\n      add\n      swap1\n      0x20\n      add\n      dup1\n      dup4\n      gt\n      tag_56\n      jumpi\n      dup3\n      swap1\n      sub\n      0x1f\n      and\n      dup3\n      add\n      swap2\n    tag_54:\n      pop\n      pop\n      pop\n      pop\n      pop\n      swap1\n      dup1\n      0x03\n      add\n      sload\n      swap1\n      pop\n      dup5\n      jump\t// out\n        /* \"DecentralizedLottery.sol\":416:435  uint public balance */\n    tag_29:\n      sload(0x01)\n      dup2\n      jump\t// out\n        /* \"DecentralizedLottery.sol\":618:697  function getVaultBalance()public view returns (uint256){... */\n    tag_32:\n        /* \"DecentralizedLottery.sol\":665:672  uint256 */\n      0x00\n        /* \"DecentralizedLottery.sol\":686:693  balance */\n      sload(0x01)\n        /* \"DecentralizedLottery.sol\":679:693  return balance */\n      swap1\n      pop\n        /* \"DecentralizedLottery.sol\":618:697  function getVaultBalance()public view returns (uint256){... */\n      swap1\n      jump\t// out\n        /* \"DecentralizedLottery.sol\":1408:1663  function getShelter() public view returns (shelter[] memory ){ ... */\n    tag_35:\n        /* \"DecentralizedLottery.sol\":1451:1467  shelter[] memory */\n      0x60\n        /* \"DecentralizedLottery.sol\":1475:1501  shelter[] memory userArray */\n      0x00\n        /* \"DecentralizedLottery.sol\":1518:1533  HomelesShelters */\n      0x02\n        /* \"DecentralizedLottery.sol\":1518:1540  HomelesShelters.length */\n      dup1\n      sload\n      swap1\n      pop\n        /* \"DecentralizedLottery.sol\":1504:1541  new shelter[](HomelesShelters.length) */\n      0xffffffffffffffff\n      dup2\n      gt\n      iszero\n      tag_59\n      jumpi\n      tag_60\n      tag_61\n      jump\t// in\n    tag_60:\n    tag_59:\n      mload(0x40)\n      swap1\n      dup1\n      dup3\n      mstore\n      dup1\n      0x20\n      mul\n      0x20\n      add\n      dup3\n      add\n      0x40\n      mstore\n      dup1\n      iszero\n      tag_62\n      jumpi\n      dup2\n      0x20\n      add\n    tag_63:\n      tag_64\n      tag_65\n      jump\t// in\n    tag_64:\n      dup2\n      mstore\n      0x20\n      add\n      swap1\n      0x01\n      swap1\n      sub\n      swap1\n      dup2\n      tag_63\n      jumpi\n      swap1\n      pop\n    tag_62:\n      pop\n        /* \"DecentralizedLottery.sol\":1475:1541  shelter[] memory userArray = new shelter[](HomelesShelters.length) */\n      swap1\n      pop\n        /* \"DecentralizedLottery.sol\":1551:1557  uint i */\n      0x00\n        /* \"DecentralizedLottery.sol\":1546:1640  for (uint i = 0; i < HomelesShelters.length; i++) {... */\n    tag_66:\n        /* \"DecentralizedLottery.sol\":1567:1582  HomelesShelters */\n      0x02\n        /* \"DecentralizedLottery.sol\":1567:1589  HomelesShelters.length */\n      dup1\n      sload\n      swap1\n      pop\n        /* \"DecentralizedLottery.sol\":1563:1564  i */\n      dup2\n        /* \"DecentralizedLottery.sol\":1563:1589  i < HomelesShelters.length */\n      lt\n        /* \"DecentralizedLottery.sol\":1546:1640  for (uint i = 0; i < HomelesShelters.length; i++) {... */\n      iszero\n      tag_67\n      jumpi\n        /* \"DecentralizedLottery.sol\":1617:1632  HomelesShelters */\n      0x02\n        /* \"DecentralizedLottery.sol\":1633:1634  i */\n      dup2\n        /* \"DecentralizedLottery.sol\":1617:1635  HomelesShelters[i] */\n      dup2\n      sload\n      dup2\n      lt\n      tag_69\n      jumpi\n      tag_70\n      tag_71\n      jump\t// in\n    tag_70:\n    tag_69:\n      swap1\n      0x00\n      mstore\n      keccak256(0x00, 0x20)\n      swap1\n      0x04\n      mul\n      add\n        /* \"DecentralizedLottery.sol\":1602:1635  userArray[i] = HomelesShelters[i] */\n      mload(0x40)\n      dup1\n      0x80\n      add\n      0x40\n      mstore\n      swap1\n      dup2\n      0x00\n      dup3\n      add\n      0x00\n      swap1\n      sload\n      swap1\n      0x0100\n      exp\n      swap1\n      div\n      0xffffffffffffffffffffffffffffffffffffffff\n      and\n      0xffffffffffffffffffffffffffffffffffffffff\n      and\n      0xffffffffffffffffffffffffffffffffffffffff\n      and\n      dup2\n      mstore\n      0x20\n      add\n      0x01\n      dup3\n      add\n      dup1\n      sload\n      tag_73\n      swap1\n      tag_47\n      jump\t// in\n    tag_73:\n      dup1\n      0x1f\n      add\n      0x20\n      dup1\n      swap2\n      div\n      mul\n      0x20\n      add\n      mload(0x40)\n      swap1\n      dup2\n      add\n      0x40\n      mstore\n      dup1\n      swap3\n      swap2\n      swap1\n      dup2\n      dup2\n      mstore\n      0x20\n      add\n      dup3\n      dup1\n      sload\n      tag_74\n      swap1\n      tag_47\n      jump\t// in\n    tag_74:\n      dup1\n      iszero\n      tag_75\n      jumpi\n      dup1\n      0x1f\n      lt\n      tag_76\n      jumpi\n      0x0100\n      dup1\n      dup4\n      sload\n      div\n      mul\n      dup4\n      mstore\n      swap2\n      0x20\n      add\n      swap2\n      jump(tag_75)\n    tag_76:\n      dup3\n      add\n      swap2\n      swap1\n      0x00\n      mstore\n      keccak256(0x00, 0x20)\n      swap1\n    tag_77:\n      dup2\n      sload\n      dup2\n      mstore\n      swap1\n      0x01\n      add\n      swap1\n      0x20\n      add\n      dup1\n      dup4\n      gt\n      tag_77\n      jumpi\n      dup3\n      swap1\n      sub\n      0x1f\n      and\n      dup3\n      add\n      swap2\n    tag_75:\n      pop\n      pop\n      pop\n      pop\n      pop\n      dup2\n      mstore\n      0x20\n      add\n      0x02\n      dup3\n      add\n      dup1\n      sload\n      tag_78\n      swap1\n      tag_47\n      jump\t// in\n    tag_78:\n      dup1\n      0x1f\n      add\n      0x20\n      dup1\n      swap2\n      div\n      mul\n      0x20\n      add\n      mload(0x40)\n      swap1\n      dup2\n      add\n      0x40\n      mstore\n      dup1\n      swap3\n      swap2\n      swap1\n      dup2\n      dup2\n      mstore\n      0x20\n      add\n      dup3\n      dup1\n      sload\n      tag_79\n      swap1\n      tag_47\n      jump\t// in\n    tag_79:\n      dup1\n      iszero\n      tag_80\n      jumpi\n      dup1\n      0x1f\n      lt\n      tag_81\n      jumpi\n      0x0100\n      dup1\n      dup4\n      sload\n      div\n      mul\n      dup4\n      mstore\n      swap2\n      0x20\n      add\n      swap2\n      jump(tag_80)\n    tag_81:\n      dup3\n      add\n      swap2\n      swap1\n      0x00\n      mstore\n      keccak256(0x00, 0x20)\n      swap1\n    tag_82:\n      dup2\n      sload\n      dup2\n      mstore\n      swap1\n      0x01\n      add\n      swap1\n      0x20\n      add\n      dup1\n      dup4\n      gt\n      tag_82\n      jumpi\n      dup3\n      swap1\n      sub\n      0x1f\n      and\n      dup3\n      add\n      swap2\n    tag_80:\n      pop\n      pop\n      pop\n      pop\n      pop\n      dup2\n      mstore\n      0x20\n      add\n      0x03\n      dup3\n      add\n      sload\n      dup2\n      mstore\n      pop\n      pop\n        /* \"DecentralizedLottery.sol\":1602:1611  userArray */\n      dup3\n        /* \"DecentralizedLottery.sol\":1612:1613  i */\n      dup3\n        /* \"DecentralizedLottery.sol\":1602:1614  userArray[i] */\n      dup2\n      mload\n      dup2\n      lt\n      tag_83\n      jumpi\n      tag_84\n      tag_71\n      jump\t// in\n    tag_84:\n    tag_83:\n      0x20\n      mul\n      0x20\n      add\n      add\n        /* \"DecentralizedLottery.sol\":1602:1635  userArray[i] = HomelesShelters[i] */\n      dup2\n      swap1\n      mstore\n      pop\n        /* \"DecentralizedLottery.sol\":1591:1594  i++ */\n      dup1\n      dup1\n      0x01\n      add\n      swap2\n      pop\n      pop\n        /* \"DecentralizedLottery.sol\":1546:1640  for (uint i = 0; i < HomelesShelters.length; i++) {... */\n      jump(tag_66)\n    tag_67:\n      pop\n        /* \"DecentralizedLottery.sol\":1651:1660  userArray */\n      dup1\n        /* \"DecentralizedLottery.sol\":1644:1660  return userArray */\n      swap2\n      pop\n      pop\n        /* \"DecentralizedLottery.sol\":1408:1663  function getShelter() public view returns (shelter[] memory ){ ... */\n      swap1\n      jump\t// out\n    tag_65:\n      mload(0x40)\n      dup1\n      0x80\n      add\n      0x40\n      mstore\n      dup1\n      and(0xffffffffffffffffffffffffffffffffffffffff, 0x00)\n      dup2\n      mstore\n      0x20\n      add\n      0x60\n      dup2\n      mstore\n      0x20\n      add\n      0x60\n      dup2\n      mstore\n      0x20\n      add\n      0x00\n      dup2\n      mstore\n      pop\n      swap1\n      jump\t// out\n        /* \"#utility.yul\":7:82   */\n    tag_85:\n        /* \"#utility.yul\":40:46   */\n      0x00\n        /* \"#utility.yul\":73:75   */\n      0x40\n        /* \"#utility.yul\":67:76   */\n      mload\n        /* \"#utility.yul\":57:76   */\n      swap1\n      pop\n        /* \"#utility.yul\":7:82   */\n      swap1\n      jump\t// out\n        /* \"#utility.yul\":88:205   */\n    tag_86:\n        /* \"#utility.yul\":197:198   */\n      0x00\n        /* \"#utility.yul\":194:195   */\n      dup1\n        /* \"#utility.yul\":187:199   */\n      revert\n        /* \"#utility.yul\":211:328   */\n    tag_87:\n        /* \"#utility.yul\":320:321   */\n      0x00\n        /* \"#utility.yul\":317:318   */\n      dup1\n        /* \"#utility.yul\":310:322   */\n      revert\n        /* \"#utility.yul\":334:451   */\n    tag_88:\n        /* \"#utility.yul\":443:444   */\n      0x00\n        /* \"#utility.yul\":440:441   */\n      dup1\n        /* \"#utility.yul\":433:445   */\n      revert\n        /* \"#utility.yul\":457:574   */\n    tag_89:\n        /* \"#utility.yul\":566:567   */\n      0x00\n        /* \"#utility.yul\":563:564   */\n      dup1\n        /* \"#utility.yul\":556:568   */\n      revert\n        /* \"#utility.yul\":580:682   */\n    tag_90:\n        /* \"#utility.yul\":621:627   */\n      0x00\n        /* \"#utility.yul\":672:674   */\n      0x1f\n        /* \"#utility.yul\":668:675   */\n      not\n        /* \"#utility.yul\":663:665   */\n      0x1f\n        /* \"#utility.yul\":656:661   */\n      dup4\n        /* \"#utility.yul\":652:666   */\n      add\n        /* \"#utility.yul\":648:676   */\n      and\n        /* \"#utility.yul\":638:676   */\n      swap1\n      pop\n        /* \"#utility.yul\":580:682   */\n      swap2\n      swap1\n      pop\n      jump\t// out\n        /* \"#utility.yul\":688:868   */\n    tag_61:\n        /* \"#utility.yul\":736:813   */\n      0x4e487b7100000000000000000000000000000000000000000000000000000000\n        /* \"#utility.yul\":733:734   */\n      0x00\n        /* \"#utility.yul\":726:814   */\n      mstore\n        /* \"#utility.yul\":833:837   */\n      0x41\n        /* \"#utility.yul\":830:831   */\n      0x04\n        /* \"#utility.yul\":823:838   */\n      mstore\n        /* \"#utility.yul\":857:861   */\n      0x24\n        /* \"#utility.yul\":854:855   */\n      0x00\n        /* \"#utility.yul\":847:862   */\n      revert\n        /* \"#utility.yul\":874:1155   */\n    tag_91:\n        /* \"#utility.yul\":957:984   */\n      tag_144\n        /* \"#utility.yul\":979:983   */\n      dup3\n        /* \"#utility.yul\":957:984   */\n      tag_90\n      jump\t// in\n    tag_144:\n        /* \"#utility.yul\":949:955   */\n      dup2\n        /* \"#utility.yul\":945:985   */\n      add\n        /* \"#utility.yul\":1087:1093   */\n      dup2\n        /* \"#utility.yul\":1075:1085   */\n      dup2\n        /* \"#utility.yul\":1072:1094   */\n      lt\n        /* \"#utility.yul\":1051:1069   */\n      0xffffffffffffffff\n        /* \"#utility.yul\":1039:1049   */\n      dup3\n        /* \"#utility.yul\":1036:1070   */\n      gt\n        /* \"#utility.yul\":1033:1095   */\n      or\n        /* \"#utility.yul\":1030:1118   */\n      iszero\n      tag_145\n      jumpi\n        /* \"#utility.yul\":1098:1116   */\n      tag_146\n      tag_61\n      jump\t// in\n    tag_146:\n        /* \"#utility.yul\":1030:1118   */\n    tag_145:\n        /* \"#utility.yul\":1138:1148   */\n      dup1\n        /* \"#utility.yul\":1134:1136   */\n      0x40\n        /* \"#utility.yul\":1127:1149   */\n      mstore\n        /* \"#utility.yul\":917:1155   */\n      pop\n        /* \"#utility.yul\":874:1155   */\n      pop\n      pop\n      jump\t// out\n        /* \"#utility.yul\":1161:1290   */\n    tag_92:\n        /* \"#utility.yul\":1195:1201   */\n      0x00\n        /* \"#utility.yul\":1222:1242   */\n      tag_148\n      tag_85\n      jump\t// in\n    tag_148:\n        /* \"#utility.yul\":1212:1242   */\n      swap1\n      pop\n        /* \"#utility.yul\":1251:1284   */\n      tag_149\n        /* \"#utility.yul\":1279:1283   */\n      dup3\n        /* \"#utility.yul\":1271:1277   */\n      dup3\n        /* \"#utility.yul\":1251:1284   */\n      tag_91\n      jump\t// in\n    tag_149:\n        /* \"#utility.yul\":1161:1290   */\n      swap2\n      swap1\n      pop\n      jump\t// out\n        /* \"#utility.yul\":1296:1604   */\n    tag_93:\n        /* \"#utility.yul\":1358:1362   */\n      0x00\n        /* \"#utility.yul\":1448:1466   */\n      0xffffffffffffffff\n        /* \"#utility.yul\":1440:1446   */\n      dup3\n        /* \"#utility.yul\":1437:1467   */\n      gt\n        /* \"#utility.yul\":1434:1490   */\n      iszero\n      tag_151\n      jumpi\n        /* \"#utility.yul\":1470:1488   */\n      tag_152\n      tag_61\n      jump\t// in\n    tag_152:\n        /* \"#utility.yul\":1434:1490   */\n    tag_151:\n        /* \"#utility.yul\":1508:1537   */\n      tag_153\n        /* \"#utility.yul\":1530:1536   */\n      dup3\n        /* \"#utility.yul\":1508:1537   */\n      tag_90\n      jump\t// in\n    tag_153:\n        /* \"#utility.yul\":1500:1537   */\n      swap1\n      pop\n        /* \"#utility.yul\":1592:1596   */\n      0x20\n        /* \"#utility.yul\":1586:1590   */\n      dup2\n        /* \"#utility.yul\":1582:1597   */\n      add\n        /* \"#utility.yul\":1574:1597   */\n      swap1\n      pop\n        /* \"#utility.yul\":1296:1604   */\n      swap2\n      swap1\n      pop\n      jump\t// out\n        /* \"#utility.yul\":1610:1758   */\n    tag_94:\n        /* \"#utility.yul\":1708:1714   */\n      dup3\n        /* \"#utility.yul\":1703:1706   */\n      dup2\n        /* \"#utility.yul\":1698:1701   */\n      dup4\n        /* \"#utility.yul\":1685:1715   */\n      calldatacopy\n        /* \"#utility.yul\":1749:1750   */\n      0x00\n        /* \"#utility.yul\":1740:1746   */\n      dup4\n        /* \"#utility.yul\":1735:1738   */\n      dup4\n        /* \"#utility.yul\":1731:1747   */\n      add\n        /* \"#utility.yul\":1724:1751   */\n      mstore\n        /* \"#utility.yul\":1610:1758   */\n      pop\n      pop\n      pop\n      jump\t// out\n        /* \"#utility.yul\":1764:2189   */\n    tag_95:\n        /* \"#utility.yul\":1842:1847   */\n      0x00\n        /* \"#utility.yul\":1867:1933   */\n      tag_156\n        /* \"#utility.yul\":1883:1932   */\n      tag_157\n        /* \"#utility.yul\":1925:1931   */\n      dup5\n        /* \"#utility.yul\":1883:1932   */\n      tag_93\n      jump\t// in\n    tag_157:\n        /* \"#utility.yul\":1867:1933   */\n      tag_92\n      jump\t// in\n    tag_156:\n        /* \"#utility.yul\":1858:1933   */\n      swap1\n      pop\n        /* \"#utility.yul\":1956:1962   */\n      dup3\n        /* \"#utility.yul\":1949:1954   */\n      dup2\n        /* \"#utility.yul\":1942:1963   */\n      mstore\n        /* \"#utility.yul\":1994:1998   */\n      0x20\n        /* \"#utility.yul\":1987:1992   */\n      dup2\n        /* \"#utility.yul\":1983:1999   */\n      add\n        /* \"#utility.yul\":2032:2035   */\n      dup5\n        /* \"#utility.yul\":2023:2029   */\n      dup5\n        /* \"#utility.yul\":2018:2021   */\n      dup5\n        /* \"#utility.yul\":2014:2030   */\n      add\n        /* \"#utility.yul\":2011:2036   */\n      gt\n        /* \"#utility.yul\":2008:2120   */\n      iszero\n      tag_158\n      jumpi\n        /* \"#utility.yul\":2039:2118   */\n      tag_159\n      tag_89\n      jump\t// in\n    tag_159:\n        /* \"#utility.yul\":2008:2120   */\n    tag_158:\n        /* \"#utility.yul\":2129:2183   */\n      tag_160\n        /* \"#utility.yul\":2176:2182   */\n      dup5\n        /* \"#utility.yul\":2171:2174   */\n      dup3\n        /* \"#utility.yul\":2166:2169   */\n      dup6\n        /* \"#utility.yul\":2129:2183   */\n      tag_94\n      jump\t// in\n    tag_160:\n        /* \"#utility.yul\":1848:2189   */\n      pop\n        /* \"#utility.yul\":1764:2189   */\n      swap4\n      swap3\n      pop\n      pop\n      pop\n      jump\t// out\n        /* \"#utility.yul\":2209:2549   */\n    tag_96:\n        /* \"#utility.yul\":2265:2270   */\n      0x00\n        /* \"#utility.yul\":2314:2317   */\n      dup3\n        /* \"#utility.yul\":2307:2311   */\n      0x1f\n        /* \"#utility.yul\":2299:2305   */\n      dup4\n        /* \"#utility.yul\":2295:2312   */\n      add\n        /* \"#utility.yul\":2291:2318   */\n      slt\n        /* \"#utility.yul\":2281:2403   */\n      tag_162\n      jumpi\n        /* \"#utility.yul\":2322:2401   */\n      tag_163\n      tag_88\n      jump\t// in\n    tag_163:\n        /* \"#utility.yul\":2281:2403   */\n    tag_162:\n        /* \"#utility.yul\":2439:2445   */\n      dup2\n        /* \"#utility.yul\":2426:2446   */\n      calldataload\n        /* \"#utility.yul\":2464:2543   */\n      tag_164\n        /* \"#utility.yul\":2539:2542   */\n      dup5\n        /* \"#utility.yul\":2531:2537   */\n      dup3\n        /* \"#utility.yul\":2524:2528   */\n      0x20\n        /* \"#utility.yul\":2516:2522   */\n      dup7\n        /* \"#utility.yul\":2512:2529   */\n      add\n        /* \"#utility.yul\":2464:2543   */\n      tag_95\n      jump\t// in\n    tag_164:\n        /* \"#utility.yul\":2455:2543   */\n      swap2\n      pop\n        /* \"#utility.yul\":2271:2549   */\n      pop\n        /* \"#utility.yul\":2209:2549   */\n      swap3\n      swap2\n      pop\n      pop\n      jump\t// out\n        /* \"#utility.yul\":2555:2632   */\n    tag_97:\n        /* \"#utility.yul\":2592:2599   */\n      0x00\n        /* \"#utility.yul\":2621:2626   */\n      dup2\n        /* \"#utility.yul\":2610:2626   */\n      swap1\n      pop\n        /* \"#utility.yul\":2555:2632   */\n      swap2\n      swap1\n      pop\n      jump\t// out\n        /* \"#utility.yul\":2638:2760   */\n    tag_98:\n        /* \"#utility.yul\":2711:2735   */\n      tag_167\n        /* \"#utility.yul\":2729:2734   */\n      dup2\n        /* \"#utility.yul\":2711:2735   */\n      tag_97\n      jump\t// in\n    tag_167:\n        /* \"#utility.yul\":2704:2709   */\n      dup2\n        /* \"#utility.yul\":2701:2736   */\n      eq\n        /* \"#utility.yul\":2691:2754   */\n      tag_168\n      jumpi\n        /* \"#utility.yul\":2750:2751   */\n      0x00\n        /* \"#utility.yul\":2747:2748   */\n      dup1\n        /* \"#utility.yul\":2740:2752   */\n      revert\n        /* \"#utility.yul\":2691:2754   */\n    tag_168:\n        /* \"#utility.yul\":2638:2760   */\n      pop\n      jump\t// out\n        /* \"#utility.yul\":2766:2905   */\n    tag_99:\n        /* \"#utility.yul\":2812:2817   */\n      0x00\n        /* \"#utility.yul\":2850:2856   */\n      dup2\n        /* \"#utility.yul\":2837:2857   */\n      calldataload\n        /* \"#utility.yul\":2828:2857   */\n      swap1\n      pop\n        /* \"#utility.yul\":2866:2899   */\n      tag_170\n        /* \"#utility.yul\":2893:2898   */\n      dup2\n        /* \"#utility.yul\":2866:2899   */\n      tag_98\n      jump\t// in\n    tag_170:\n        /* \"#utility.yul\":2766:2905   */\n      swap3\n      swap2\n      pop\n      pop\n      jump\t// out\n        /* \"#utility.yul\":2911:3890   */\n    tag_13:\n        /* \"#utility.yul\":3008:3014   */\n      0x00\n        /* \"#utility.yul\":3016:3022   */\n      dup1\n        /* \"#utility.yul\":3024:3030   */\n      0x00\n        /* \"#utility.yul\":3073:3075   */\n      0x60\n        /* \"#utility.yul\":3061:3070   */\n      dup5\n        /* \"#utility.yul\":3052:3059   */\n      dup7\n        /* \"#utility.yul\":3048:3071   */\n      sub\n        /* \"#utility.yul\":3044:3076   */\n      slt\n        /* \"#utility.yul\":3041:3160   */\n      iszero\n      tag_172\n      jumpi\n        /* \"#utility.yul\":3079:3158   */\n      tag_173\n      tag_86\n      jump\t// in\n    tag_173:\n        /* \"#utility.yul\":3041:3160   */\n    tag_172:\n        /* \"#utility.yul\":3227:3228   */\n      0x00\n        /* \"#utility.yul\":3216:3225   */\n      dup5\n        /* \"#utility.yul\":3212:3229   */\n      add\n        /* \"#utility.yul\":3199:3230   */\n      calldataload\n        /* \"#utility.yul\":3257:3275   */\n      0xffffffffffffffff\n        /* \"#utility.yul\":3249:3255   */\n      dup2\n        /* \"#utility.yul\":3246:3276   */\n      gt\n        /* \"#utility.yul\":3243:3360   */\n      iszero\n      tag_174\n      jumpi\n        /* \"#utility.yul\":3279:3358   */\n      tag_175\n      tag_87\n      jump\t// in\n    tag_175:\n        /* \"#utility.yul\":3243:3360   */\n    tag_174:\n        /* \"#utility.yul\":3384:3447   */\n      tag_176\n        /* \"#utility.yul\":3439:3446   */\n      dup7\n        /* \"#utility.yul\":3430:3436   */\n      dup3\n        /* \"#utility.yul\":3419:3428   */\n      dup8\n        /* \"#utility.yul\":3415:3437   */\n      add\n        /* \"#utility.yul\":3384:3447   */\n      tag_96\n      jump\t// in\n    tag_176:\n        /* \"#utility.yul\":3374:3447   */\n      swap4\n      pop\n        /* \"#utility.yul\":3170:3457   */\n      pop\n        /* \"#utility.yul\":3524:3526   */\n      0x20\n        /* \"#utility.yul\":3513:3522   */\n      dup5\n        /* \"#utility.yul\":3509:3527   */\n      add\n        /* \"#utility.yul\":3496:3528   */\n      calldataload\n        /* \"#utility.yul\":3555:3573   */\n      0xffffffffffffffff\n        /* \"#utility.yul\":3547:3553   */\n      dup2\n        /* \"#utility.yul\":3544:3574   */\n      gt\n        /* \"#utility.yul\":3541:3658   */\n      iszero\n      tag_177\n      jumpi\n        /* \"#utility.yul\":3577:3656   */\n      tag_178\n      tag_87\n      jump\t// in\n    tag_178:\n        /* \"#utility.yul\":3541:3658   */\n    tag_177:\n        /* \"#utility.yul\":3682:3745   */\n      tag_179\n        /* \"#utility.yul\":3737:3744   */\n      dup7\n        /* \"#utility.yul\":3728:3734   */\n      dup3\n        /* \"#utility.yul\":3717:3726   */\n      dup8\n        /* \"#utility.yul\":3713:3735   */\n      add\n        /* \"#utility.yul\":3682:3745   */\n      tag_96\n      jump\t// in\n    tag_179:\n        /* \"#utility.yul\":3672:3745   */\n      swap3\n      pop\n        /* \"#utility.yul\":3467:3755   */\n      pop\n        /* \"#utility.yul\":3794:3796   */\n      0x40\n        /* \"#utility.yul\":3820:3873   */\n      tag_180\n        /* \"#utility.yul\":3865:3872   */\n      dup7\n        /* \"#utility.yul\":3856:3862   */\n      dup3\n        /* \"#utility.yul\":3845:3854   */\n      dup8\n        /* \"#utility.yul\":3841:3863   */\n      add\n        /* \"#utility.yul\":3820:3873   */\n      tag_99\n      jump\t// in\n    tag_180:\n        /* \"#utility.yul\":3810:3873   */\n      swap2\n      pop\n        /* \"#utility.yul\":3765:3883   */\n      pop\n        /* \"#utility.yul\":2911:3890   */\n      swap3\n      pop\n      swap3\n      pop\n      swap3\n      jump\t// out\n        /* \"#utility.yul\":3896:4014   */\n    tag_100:\n        /* \"#utility.yul\":3983:4007   */\n      tag_182\n        /* \"#utility.yul\":4001:4006   */\n      dup2\n        /* \"#utility.yul\":3983:4007   */\n      tag_97\n      jump\t// in\n    tag_182:\n        /* \"#utility.yul\":3978:3981   */\n      dup3\n        /* \"#utility.yul\":3971:4008   */\n      mstore\n        /* \"#utility.yul\":3896:4014   */\n      pop\n      pop\n      jump\t// out\n        /* \"#utility.yul\":4020:4242   */\n    tag_18:\n        /* \"#utility.yul\":4113:4117   */\n      0x00\n        /* \"#utility.yul\":4151:4153   */\n      0x20\n        /* \"#utility.yul\":4140:4149   */\n      dup3\n        /* \"#utility.yul\":4136:4154   */\n      add\n        /* \"#utility.yul\":4128:4154   */\n      swap1\n      pop\n        /* \"#utility.yul\":4164:4235   */\n      tag_184\n        /* \"#utility.yul\":4232:4233   */\n      0x00\n        /* \"#utility.yul\":4221:4230   */\n      dup4\n        /* \"#utility.yul\":4217:4234   */\n      add\n        /* \"#utility.yul\":4208:4214   */\n      dup5\n        /* \"#utility.yul\":4164:4235   */\n      tag_100\n      jump\t// in\n    tag_184:\n        /* \"#utility.yul\":4020:4242   */\n      swap3\n      swap2\n      pop\n      pop\n      jump\t// out\n        /* \"#utility.yul\":4248:4577   */\n    tag_24:\n        /* \"#utility.yul\":4307:4313   */\n      0x00\n        /* \"#utility.yul\":4356:4358   */\n      0x20\n        /* \"#utility.yul\":4344:4353   */\n      dup3\n        /* \"#utility.yul\":4335:4342   */\n      dup5\n        /* \"#utility.yul\":4331:4354   */\n      sub\n        /* \"#utility.yul\":4327:4359   */\n      slt\n        /* \"#utility.yul\":4324:4443   */\n      iszero\n      tag_186\n      jumpi\n        /* \"#utility.yul\":4362:4441   */\n      tag_187\n      tag_86\n      jump\t// in\n    tag_187:\n        /* \"#utility.yul\":4324:4443   */\n    tag_186:\n        /* \"#utility.yul\":4482:4483   */\n      0x00\n        /* \"#utility.yul\":4507:4560   */\n      tag_188\n        /* \"#utility.yul\":4552:4559   */\n      dup5\n        /* \"#utility.yul\":4543:4549   */\n      dup3\n        /* \"#utility.yul\":4532:4541   */\n      dup6\n        /* \"#utility.yul\":4528:4550   */\n      add\n        /* \"#utility.yul\":4507:4560   */\n      tag_99\n      jump\t// in\n    tag_188:\n        /* \"#utility.yul\":4497:4560   */\n      swap2\n      pop\n        /* \"#utility.yul\":4453:4570   */\n      pop\n        /* \"#utility.yul\":4248:4577   */\n      swap3\n      swap2\n      pop\n      pop\n      jump\t// out\n        /* \"#utility.yul\":4583:4709   */\n    tag_101:\n        /* \"#utility.yul\":4620:4627   */\n      0x00\n        /* \"#utility.yul\":4660:4702   */\n      0xffffffffffffffffffffffffffffffffffffffff\n        /* \"#utility.yul\":4653:4658   */\n      dup3\n        /* \"#utility.yul\":4649:4703   */\n      and\n        /* \"#utility.yul\":4638:4703   */\n      swap1\n      pop\n        /* \"#utility.yul\":4583:4709   */\n      swap2\n      swap1\n      pop\n      jump\t// out\n        /* \"#utility.yul\":4715:4811   */\n    tag_102:\n        /* \"#utility.yul\":4752:4759   */\n      0x00\n        /* \"#utility.yul\":4781:4805   */\n      tag_191\n        /* \"#utility.yul\":4799:4804   */\n      dup3\n        /* \"#utility.yul\":4781:4805   */\n      tag_101\n      jump\t// in\n    tag_191:\n        /* \"#utility.yul\":4770:4805   */\n      swap1\n      pop\n        /* \"#utility.yul\":4715:4811   */\n      swap2\n      swap1\n      pop\n      jump\t// out\n        /* \"#utility.yul\":4817:4935   */\n    tag_103:\n        /* \"#utility.yul\":4904:4928   */\n      tag_193\n        /* \"#utility.yul\":4922:4927   */\n      dup2\n        /* \"#utility.yul\":4904:4928   */\n      tag_102\n      jump\t// in\n    tag_193:\n        /* \"#utility.yul\":4899:4902   */\n      dup3\n        /* \"#utility.yul\":4892:4929   */\n      mstore\n        /* \"#utility.yul\":4817:4935   */\n      pop\n      pop\n      jump\t// out\n        /* \"#utility.yul\":4941:5040   */\n    tag_104:\n        /* \"#utility.yul\":4993:4999   */\n      0x00\n        /* \"#utility.yul\":5027:5032   */\n      dup2\n        /* \"#utility.yul\":5021:5033   */\n      mload\n        /* \"#utility.yul\":5011:5033   */\n      swap1\n      pop\n        /* \"#utility.yul\":4941:5040   */\n      swap2\n      swap1\n      pop\n      jump\t// out\n        /* \"#utility.yul\":5046:5215   */\n    tag_105:\n        /* \"#utility.yul\":5130:5141   */\n      0x00\n        /* \"#utility.yul\":5164:5170   */\n      dup3\n        /* \"#utility.yul\":5159:5162   */\n      dup3\n        /* \"#utility.yul\":5152:5171   */\n      mstore\n        /* \"#utility.yul\":5204:5208   */\n      0x20\n        /* \"#utility.yul\":5199:5202   */\n      dup3\n        /* \"#utility.yul\":5195:5209   */\n      add\n        /* \"#utility.yul\":5180:5209   */\n      swap1\n      pop\n        /* \"#utility.yul\":5046:5215   */\n      swap3\n      swap2\n      pop\n      pop\n      jump\t// out\n        /* \"#utility.yul\":5221:5360   */\n    tag_106:\n        /* \"#utility.yul\":5310:5316   */\n      dup3\n        /* \"#utility.yul\":5305:5308   */\n      dup2\n        /* \"#utility.yul\":5300:5303   */\n      dup4\n        /* \"#utility.yul\":5294:5317   */\n      mcopy\n        /* \"#utility.yul\":5351:5352   */\n      0x00\n        /* \"#utility.yul\":5342:5348   */\n      dup4\n        /* \"#utility.yul\":5337:5340   */\n      dup4\n        /* \"#utility.yul\":5333:5349   */\n      add\n        /* \"#utility.yul\":5326:5353   */\n      mstore\n        /* \"#utility.yul\":5221:5360   */\n      pop\n      pop\n      pop\n      jump\t// out\n        /* \"#utility.yul\":5366:5743   */\n    tag_107:\n        /* \"#utility.yul\":5454:5457   */\n      0x00\n        /* \"#utility.yul\":5482:5521   */\n      tag_198\n        /* \"#utility.yul\":5515:5520   */\n      dup3\n        /* \"#utility.yul\":5482:5521   */\n      tag_104\n      jump\t// in\n    tag_198:\n        /* \"#utility.yul\":5537:5608   */\n      tag_199\n        /* \"#utility.yul\":5601:5607   */\n      dup2\n        /* \"#utility.yul\":5596:5599   */\n      dup6\n        /* \"#utility.yul\":5537:5608   */\n      tag_105\n      jump\t// in\n    tag_199:\n        /* \"#utility.yul\":5530:5608   */\n      swap4\n      pop\n        /* \"#utility.yul\":5617:5682   */\n      tag_200\n        /* \"#utility.yul\":5675:5681   */\n      dup2\n        /* \"#utility.yul\":5670:5673   */\n      dup6\n        /* \"#utility.yul\":5663:5667   */\n      0x20\n        /* \"#utility.yul\":5656:5661   */\n      dup7\n        /* \"#utility.yul\":5652:5668   */\n      add\n        /* \"#utility.yul\":5617:5682   */\n      tag_106\n      jump\t// in\n    tag_200:\n        /* \"#utility.yul\":5707:5736   */\n      tag_201\n        /* \"#utility.yul\":5729:5735   */\n      dup2\n        /* \"#utility.yul\":5707:5736   */\n      tag_90\n      jump\t// in\n    tag_201:\n        /* \"#utility.yul\":5702:5705   */\n      dup5\n        /* \"#utility.yul\":5698:5737   */\n      add\n        /* \"#utility.yul\":5691:5737   */\n      swap2\n      pop\n        /* \"#utility.yul\":5458:5743   */\n      pop\n        /* \"#utility.yul\":5366:5743   */\n      swap3\n      swap2\n      pop\n      pop\n      jump\t// out\n        /* \"#utility.yul\":5749:6484   */\n    tag_27:\n        /* \"#utility.yul\":5966:5970   */\n      0x00\n        /* \"#utility.yul\":6004:6007   */\n      0x80\n        /* \"#utility.yul\":5993:6002   */\n      dup3\n        /* \"#utility.yul\":5989:6008   */\n      add\n        /* \"#utility.yul\":5981:6008   */\n      swap1\n      pop\n        /* \"#utility.yul\":6018:6089   */\n      tag_203\n        /* \"#utility.yul\":6086:6087   */\n      0x00\n        /* \"#utility.yul\":6075:6084   */\n      dup4\n        /* \"#utility.yul\":6071:6088   */\n      add\n        /* \"#utility.yul\":6062:6068   */\n      dup8\n        /* \"#utility.yul\":6018:6089   */\n      tag_103\n      jump\t// in\n    tag_203:\n        /* \"#utility.yul\":6136:6145   */\n      dup2\n        /* \"#utility.yul\":6130:6134   */\n      dup2\n        /* \"#utility.yul\":6126:6146   */\n      sub\n        /* \"#utility.yul\":6121:6123   */\n      0x20\n        /* \"#utility.yul\":6110:6119   */\n      dup4\n        /* \"#utility.yul\":6106:6124   */\n      add\n        /* \"#utility.yul\":6099:6147   */\n      mstore\n        /* \"#utility.yul\":6164:6242   */\n      tag_204\n        /* \"#utility.yul\":6237:6241   */\n      dup2\n        /* \"#utility.yul\":6228:6234   */\n      dup7\n        /* \"#utility.yul\":6164:6242   */\n      tag_107\n      jump\t// in\n    tag_204:\n        /* \"#utility.yul\":6156:6242   */\n      swap1\n      pop\n        /* \"#utility.yul\":6289:6298   */\n      dup2\n        /* \"#utility.yul\":6283:6287   */\n      dup2\n        /* \"#utility.yul\":6279:6299   */\n      sub\n        /* \"#utility.yul\":6274:6276   */\n      0x40\n        /* \"#utility.yul\":6263:6272   */\n      dup4\n        /* \"#utility.yul\":6259:6277   */\n      add\n        /* \"#utility.yul\":6252:6300   */\n      mstore\n        /* \"#utility.yul\":6317:6395   */\n      tag_205\n        /* \"#utility.yul\":6390:6394   */\n      dup2\n        /* \"#utility.yul\":6381:6387   */\n      dup6\n        /* \"#utility.yul\":6317:6395   */\n      tag_107\n      jump\t// in\n    tag_205:\n        /* \"#utility.yul\":6309:6395   */\n      swap1\n      pop\n        /* \"#utility.yul\":6405:6477   */\n      tag_206\n        /* \"#utility.yul\":6473:6475   */\n      0x60\n        /* \"#utility.yul\":6462:6471   */\n      dup4\n        /* \"#utility.yul\":6458:6476   */\n      add\n        /* \"#utility.yul\":6449:6455   */\n      dup5\n        /* \"#utility.yul\":6405:6477   */\n      tag_100\n      jump\t// in\n    tag_206:\n        /* \"#utility.yul\":5749:6484   */\n      swap6\n      swap5\n      pop\n      pop\n      pop\n      pop\n      pop\n      jump\t// out\n        /* \"#utility.yul\":6490:6627   */\n    tag_108:\n        /* \"#utility.yul\":6580:6586   */\n      0x00\n        /* \"#utility.yul\":6614:6619   */\n      dup2\n        /* \"#utility.yul\":6608:6620   */\n      mload\n        /* \"#utility.yul\":6598:6620   */\n      swap1\n      pop\n        /* \"#utility.yul\":6490:6627   */\n      swap2\n      swap1\n      pop\n      jump\t// out\n        /* \"#utility.yul\":6633:6840   */\n    tag_109:\n        /* \"#utility.yul\":6755:6766   */\n      0x00\n        /* \"#utility.yul\":6789:6795   */\n      dup3\n        /* \"#utility.yul\":6784:6787   */\n      dup3\n        /* \"#utility.yul\":6777:6796   */\n      mstore\n        /* \"#utility.yul\":6829:6833   */\n      0x20\n        /* \"#utility.yul\":6824:6827   */\n      dup3\n        /* \"#utility.yul\":6820:6834   */\n      add\n        /* \"#utility.yul\":6805:6834   */\n      swap1\n      pop\n        /* \"#utility.yul\":6633:6840   */\n      swap3\n      swap2\n      pop\n      pop\n      jump\t// out\n        /* \"#utility.yul\":6846:7001   */\n    tag_110:\n        /* \"#utility.yul\":6936:6940   */\n      0x00\n        /* \"#utility.yul\":6959:6962   */\n      dup2\n        /* \"#utility.yul\":6951:6962   */\n      swap1\n      pop\n        /* \"#utility.yul\":6989:6993   */\n      0x20\n        /* \"#utility.yul\":6984:6987   */\n      dup3\n        /* \"#utility.yul\":6980:6994   */\n      add\n        /* \"#utility.yul\":6972:6994   */\n      swap1\n      pop\n        /* \"#utility.yul\":6846:7001   */\n      swap2\n      swap1\n      pop\n      jump\t// out\n        /* \"#utility.yul\":7007:7115   */\n    tag_111:\n        /* \"#utility.yul\":7084:7108   */\n      tag_211\n        /* \"#utility.yul\":7102:7107   */\n      dup2\n        /* \"#utility.yul\":7084:7108   */\n      tag_102\n      jump\t// in\n    tag_211:\n        /* \"#utility.yul\":7079:7082   */\n      dup3\n        /* \"#utility.yul\":7072:7109   */\n      mstore\n        /* \"#utility.yul\":7007:7115   */\n      pop\n      pop\n      jump\t// out\n        /* \"#utility.yul\":7121:7280   */\n    tag_112:\n        /* \"#utility.yul\":7195:7206   */\n      0x00\n        /* \"#utility.yul\":7229:7235   */\n      dup3\n        /* \"#utility.yul\":7224:7227   */\n      dup3\n        /* \"#utility.yul\":7217:7236   */\n      mstore\n        /* \"#utility.yul\":7269:7273   */\n      0x20\n        /* \"#utility.yul\":7264:7267   */\n      dup3\n        /* \"#utility.yul\":7260:7274   */\n      add\n        /* \"#utility.yul\":7245:7274   */\n      swap1\n      pop\n        /* \"#utility.yul\":7121:7280   */\n      swap3\n      swap2\n      pop\n      pop\n      jump\t// out\n        /* \"#utility.yul\":7286:7643   */\n    tag_113:\n        /* \"#utility.yul\":7364:7367   */\n      0x00\n        /* \"#utility.yul\":7392:7431   */\n      tag_214\n        /* \"#utility.yul\":7425:7430   */\n      dup3\n        /* \"#utility.yul\":7392:7431   */\n      tag_104\n      jump\t// in\n    tag_214:\n        /* \"#utility.yul\":7447:7508   */\n      tag_215\n        /* \"#utility.yul\":7501:7507   */\n      dup2\n        /* \"#utility.yul\":7496:7499   */\n      dup6\n        /* \"#utility.yul\":7447:7508   */\n      tag_112\n      jump\t// in\n    tag_215:\n        /* \"#utility.yul\":7440:7508   */\n      swap4\n      pop\n        /* \"#utility.yul\":7517:7582   */\n      tag_216\n        /* \"#utility.yul\":7575:7581   */\n      dup2\n        /* \"#utility.yul\":7570:7573   */\n      dup6\n        /* \"#utility.yul\":7563:7567   */\n      0x20\n        /* \"#utility.yul\":7556:7561   */\n      dup7\n        /* \"#utility.yul\":7552:7568   */\n      add\n        /* \"#utility.yul\":7517:7582   */\n      tag_106\n      jump\t// in\n    tag_216:\n        /* \"#utility.yul\":7607:7636   */\n      tag_217\n        /* \"#utility.yul\":7629:7635   */\n      dup2\n        /* \"#utility.yul\":7607:7636   */\n      tag_90\n      jump\t// in\n    tag_217:\n        /* \"#utility.yul\":7602:7605   */\n      dup5\n        /* \"#utility.yul\":7598:7637   */\n      add\n        /* \"#utility.yul\":7591:7637   */\n      swap2\n      pop\n        /* \"#utility.yul\":7368:7643   */\n      pop\n        /* \"#utility.yul\":7286:7643   */\n      swap3\n      swap2\n      pop\n      pop\n      jump\t// out\n        /* \"#utility.yul\":7649:7757   */\n    tag_114:\n        /* \"#utility.yul\":7726:7750   */\n      tag_219\n        /* \"#utility.yul\":7744:7749   */\n      dup2\n        /* \"#utility.yul\":7726:7750   */\n      tag_97\n      jump\t// in\n    tag_219:\n        /* \"#utility.yul\":7721:7724   */\n      dup3\n        /* \"#utility.yul\":7714:7751   */\n      mstore\n        /* \"#utility.yul\":7649:7757   */\n      pop\n      pop\n      jump\t// out\n        /* \"#utility.yul\":7831:8861   */\n    tag_115:\n        /* \"#utility.yul\":7936:7939   */\n      0x00\n        /* \"#utility.yul\":7972:7976   */\n      0x80\n        /* \"#utility.yul\":7967:7970   */\n      dup4\n        /* \"#utility.yul\":7963:7977   */\n      add\n        /* \"#utility.yul\":8064:8068   */\n      0x00\n        /* \"#utility.yul\":8057:8062   */\n      dup4\n        /* \"#utility.yul\":8053:8069   */\n      add\n        /* \"#utility.yul\":8047:8070   */\n      mload\n        /* \"#utility.yul\":8083:8146   */\n      tag_221\n        /* \"#utility.yul\":8140:8144   */\n      0x00\n        /* \"#utility.yul\":8135:8138   */\n      dup7\n        /* \"#utility.yul\":8131:8145   */\n      add\n        /* \"#utility.yul\":8117:8129   */\n      dup3\n        /* \"#utility.yul\":8083:8146   */\n      tag_111\n      jump\t// in\n    tag_221:\n        /* \"#utility.yul\":7987:8156   */\n      pop\n        /* \"#utility.yul\":8241:8245   */\n      0x20\n        /* \"#utility.yul\":8234:8239   */\n      dup4\n        /* \"#utility.yul\":8230:8246   */\n      add\n        /* \"#utility.yul\":8224:8247   */\n      mload\n        /* \"#utility.yul\":8294:8297   */\n      dup5\n        /* \"#utility.yul\":8288:8292   */\n      dup3\n        /* \"#utility.yul\":8284:8298   */\n      sub\n        /* \"#utility.yul\":8277:8281   */\n      0x20\n        /* \"#utility.yul\":8272:8275   */\n      dup7\n        /* \"#utility.yul\":8268:8282   */\n      add\n        /* \"#utility.yul\":8261:8299   */\n      mstore\n        /* \"#utility.yul\":8320:8393   */\n      tag_222\n        /* \"#utility.yul\":8388:8392   */\n      dup3\n        /* \"#utility.yul\":8374:8386   */\n      dup3\n        /* \"#utility.yul\":8320:8393   */\n      tag_113\n      jump\t// in\n    tag_222:\n        /* \"#utility.yul\":8312:8393   */\n      swap2\n      pop\n        /* \"#utility.yul\":8166:8404   */\n      pop\n        /* \"#utility.yul\":8491:8495   */\n      0x40\n        /* \"#utility.yul\":8484:8489   */\n      dup4\n        /* \"#utility.yul\":8480:8496   */\n      add\n        /* \"#utility.yul\":8474:8497   */\n      mload\n        /* \"#utility.yul\":8544:8547   */\n      dup5\n        /* \"#utility.yul\":8538:8542   */\n      dup3\n        /* \"#utility.yul\":8534:8548   */\n      sub\n        /* \"#utility.yul\":8527:8531   */\n      0x40\n        /* \"#utility.yul\":8522:8525   */\n      dup7\n        /* \"#utility.yul\":8518:8532   */\n      add\n        /* \"#utility.yul\":8511:8549   */\n      mstore\n        /* \"#utility.yul\":8570:8643   */\n      tag_223\n        /* \"#utility.yul\":8638:8642   */\n      dup3\n        /* \"#utility.yul\":8624:8636   */\n      dup3\n        /* \"#utility.yul\":8570:8643   */\n      tag_113\n      jump\t// in\n    tag_223:\n        /* \"#utility.yul\":8562:8643   */\n      swap2\n      pop\n        /* \"#utility.yul\":8414:8654   */\n      pop\n        /* \"#utility.yul\":8742:8746   */\n      0x60\n        /* \"#utility.yul\":8735:8740   */\n      dup4\n        /* \"#utility.yul\":8731:8747   */\n      add\n        /* \"#utility.yul\":8725:8748   */\n      mload\n        /* \"#utility.yul\":8761:8824   */\n      tag_224\n        /* \"#utility.yul\":8818:8822   */\n      0x60\n        /* \"#utility.yul\":8813:8816   */\n      dup7\n        /* \"#utility.yul\":8809:8823   */\n      add\n        /* \"#utility.yul\":8795:8807   */\n      dup3\n        /* \"#utility.yul\":8761:8824   */\n      tag_114\n      jump\t// in\n    tag_224:\n        /* \"#utility.yul\":8664:8834   */\n      pop\n        /* \"#utility.yul\":8851:8855   */\n      dup1\n        /* \"#utility.yul\":8844:8855   */\n      swap2\n      pop\n        /* \"#utility.yul\":7941:8861   */\n      pop\n        /* \"#utility.yul\":7831:8861   */\n      swap3\n      swap2\n      pop\n      pop\n      jump\t// out\n        /* \"#utility.yul\":8867:9115   */\n    tag_116:\n        /* \"#utility.yul\":8982:8992   */\n      0x00\n        /* \"#utility.yul\":9017:9109   */\n      tag_226\n        /* \"#utility.yul\":9105:9108   */\n      dup4\n        /* \"#utility.yul\":9097:9103   */\n      dup4\n        /* \"#utility.yul\":9017:9109   */\n      tag_115\n      jump\t// in\n    tag_226:\n        /* \"#utility.yul\":9003:9109   */\n      swap1\n      pop\n        /* \"#utility.yul\":8867:9115   */\n      swap3\n      swap2\n      pop\n      pop\n      jump\t// out\n        /* \"#utility.yul\":9121:9257   */\n    tag_117:\n        /* \"#utility.yul\":9214:9218   */\n      0x00\n        /* \"#utility.yul\":9246:9250   */\n      0x20\n        /* \"#utility.yul\":9241:9244   */\n      dup3\n        /* \"#utility.yul\":9237:9251   */\n      add\n        /* \"#utility.yul\":9229:9251   */\n      swap1\n      pop\n        /* \"#utility.yul\":9121:9257   */\n      swap2\n      swap1\n      pop\n      jump\t// out\n        /* \"#utility.yul\":9335:10430   */\n    tag_118:\n        /* \"#utility.yul\":9500:9503   */\n      0x00\n        /* \"#utility.yul\":9529:9606   */\n      tag_229\n        /* \"#utility.yul\":9600:9605   */\n      dup3\n        /* \"#utility.yul\":9529:9606   */\n      tag_108\n      jump\t// in\n    tag_229:\n        /* \"#utility.yul\":9622:9731   */\n      tag_230\n        /* \"#utility.yul\":9724:9730   */\n      dup2\n        /* \"#utility.yul\":9719:9722   */\n      dup6\n        /* \"#utility.yul\":9622:9731   */\n      tag_109\n      jump\t// in\n    tag_230:\n        /* \"#utility.yul\":9615:9731   */\n      swap4\n      pop\n        /* \"#utility.yul\":9757:9760   */\n      dup4\n        /* \"#utility.yul\":9802:9806   */\n      0x20\n        /* \"#utility.yul\":9794:9800   */\n      dup3\n        /* \"#utility.yul\":9790:9807   */\n      mul\n        /* \"#utility.yul\":9785:9788   */\n      dup6\n        /* \"#utility.yul\":9781:9808   */\n      add\n        /* \"#utility.yul\":9832:9911   */\n      tag_231\n        /* \"#utility.yul\":9905:9910   */\n      dup6\n        /* \"#utility.yul\":9832:9911   */\n      tag_110\n      jump\t// in\n    tag_231:\n        /* \"#utility.yul\":9934:9941   */\n      dup1\n        /* \"#utility.yul\":9965:9966   */\n      0x00\n        /* \"#utility.yul\":9950:10385   */\n    tag_232:\n        /* \"#utility.yul\":9975:9981   */\n      dup6\n        /* \"#utility.yul\":9972:9973   */\n      dup2\n        /* \"#utility.yul\":9969:9982   */\n      lt\n        /* \"#utility.yul\":9950:10385   */\n      iszero\n      tag_234\n      jumpi\n        /* \"#utility.yul\":10046:10055   */\n      dup5\n        /* \"#utility.yul\":10040:10044   */\n      dup5\n        /* \"#utility.yul\":10036:10056   */\n      sub\n        /* \"#utility.yul\":10031:10034   */\n      dup10\n        /* \"#utility.yul\":10024:10057   */\n      mstore\n        /* \"#utility.yul\":10097:10103   */\n      dup2\n        /* \"#utility.yul\":10091:10104   */\n      mload\n        /* \"#utility.yul\":10125:10235   */\n      tag_235\n        /* \"#utility.yul\":10230:10234   */\n      dup6\n        /* \"#utility.yul\":10215:10228   */\n      dup3\n        /* \"#utility.yul\":10125:10235   */\n      tag_116\n      jump\t// in\n    tag_235:\n        /* \"#utility.yul\":10117:10235   */\n      swap5\n      pop\n        /* \"#utility.yul\":10258:10341   */\n      tag_236\n        /* \"#utility.yul\":10334:10340   */\n      dup4\n        /* \"#utility.yul\":10258:10341   */\n      tag_117\n      jump\t// in\n    tag_236:\n        /* \"#utility.yul\":10248:10341   */\n      swap3\n      pop\n        /* \"#utility.yul\":10370:10374   */\n      0x20\n        /* \"#utility.yul\":10365:10368   */\n      dup11\n        /* \"#utility.yul\":10361:10375   */\n      add\n        /* \"#utility.yul\":10354:10375   */\n      swap10\n      pop\n        /* \"#utility.yul\":10010:10385   */\n      pop\n        /* \"#utility.yul\":9997:9998   */\n      0x01\n        /* \"#utility.yul\":9994:9995   */\n      dup2\n        /* \"#utility.yul\":9990:9999   */\n      add\n        /* \"#utility.yul\":9985:9999   */\n      swap1\n      pop\n        /* \"#utility.yul\":9950:10385   */\n      jump(tag_232)\n    tag_234:\n        /* \"#utility.yul\":9954:9968   */\n      pop\n        /* \"#utility.yul\":10401:10405   */\n      dup3\n        /* \"#utility.yul\":10394:10405   */\n      swap8\n      pop\n        /* \"#utility.yul\":10421:10424   */\n      dup8\n        /* \"#utility.yul\":10414:10424   */\n      swap6\n      pop\n        /* \"#utility.yul\":9505:10430   */\n      pop\n      pop\n      pop\n      pop\n      pop\n        /* \"#utility.yul\":9335:10430   */\n      swap3\n      swap2\n      pop\n      pop\n      jump\t// out\n        /* \"#utility.yul\":10436:10901   */\n    tag_37:\n        /* \"#utility.yul\":10625:10629   */\n      0x00\n        /* \"#utility.yul\":10663:10665   */\n      0x20\n        /* \"#utility.yul\":10652:10661   */\n      dup3\n        /* \"#utility.yul\":10648:10666   */\n      add\n        /* \"#utility.yul\":10640:10666   */\n      swap1\n      pop\n        /* \"#utility.yul\":10712:10721   */\n      dup2\n        /* \"#utility.yul\":10706:10710   */\n      dup2\n        /* \"#utility.yul\":10702:10722   */\n      sub\n        /* \"#utility.yul\":10698:10699   */\n      0x00\n        /* \"#utility.yul\":10687:10696   */\n      dup4\n        /* \"#utility.yul\":10683:10700   */\n      add\n        /* \"#utility.yul\":10676:10723   */\n      mstore\n        /* \"#utility.yul\":10740:10894   */\n      tag_238\n        /* \"#utility.yul\":10889:10893   */\n      dup2\n        /* \"#utility.yul\":10880:10886   */\n      dup5\n        /* \"#utility.yul\":10740:10894   */\n      tag_118\n      jump\t// in\n    tag_238:\n        /* \"#utility.yul\":10732:10894   */\n      swap1\n      pop\n        /* \"#utility.yul\":10436:10901   */\n      swap3\n      swap2\n      pop\n      pop\n      jump\t// out\n        /* \"#utility.yul\":10907:11087   */\n    tag_119:\n        /* \"#utility.yul\":10955:11032   */\n      0x4e487b7100000000000000000000000000000000000000000000000000000000\n        /* \"#utility.yul\":10952:10953   */\n      0x00\n        /* \"#utility.yul\":10945:11033   */\n      mstore\n        /* \"#utility.yul\":11052:11056   */\n      0x22\n        /* \"#utility.yul\":11049:11050   */\n      0x04\n        /* \"#utility.yul\":11042:11057   */\n      mstore\n        /* \"#utility.yul\":11076:11080   */\n      0x24\n        /* \"#utility.yul\":11073:11074   */\n      0x00\n        /* \"#utility.yul\":11066:11081   */\n      revert\n        /* \"#utility.yul\":11093:11413   */\n    tag_47:\n        /* \"#utility.yul\":11137:11143   */\n      0x00\n        /* \"#utility.yul\":11174:11175   */\n      0x02\n        /* \"#utility.yul\":11168:11172   */\n      dup3\n        /* \"#utility.yul\":11164:11176   */\n      div\n        /* \"#utility.yul\":11154:11176   */\n      swap1\n      pop\n        /* \"#utility.yul\":11221:11222   */\n      0x01\n        /* \"#utility.yul\":11215:11219   */\n      dup3\n        /* \"#utility.yul\":11211:11223   */\n      and\n        /* \"#utility.yul\":11242:11260   */\n      dup1\n        /* \"#utility.yul\":11232:11313   */\n      tag_241\n      jumpi\n        /* \"#utility.yul\":11298:11302   */\n      0x7f\n        /* \"#utility.yul\":11290:11296   */\n      dup3\n        /* \"#utility.yul\":11286:11303   */\n      and\n        /* \"#utility.yul\":11276:11303   */\n      swap2\n      pop\n        /* \"#utility.yul\":11232:11313   */\n    tag_241:\n        /* \"#utility.yul\":11360:11362   */\n      0x20\n        /* \"#utility.yul\":11352:11358   */\n      dup3\n        /* \"#utility.yul\":11349:11363   */\n      lt\n        /* \"#utility.yul\":11329:11347   */\n      dup2\n        /* \"#utility.yul\":11326:11364   */\n      sub\n        /* \"#utility.yul\":11323:11407   */\n      tag_242\n      jumpi\n        /* \"#utility.yul\":11379:11397   */\n      tag_243\n      tag_119\n      jump\t// in\n    tag_243:\n        /* \"#utility.yul\":11323:11407   */\n    tag_242:\n        /* \"#utility.yul\":11144:11413   */\n      pop\n        /* \"#utility.yul\":11093:11413   */\n      swap2\n      swap1\n      pop\n      jump\t// out\n        /* \"#utility.yul\":11419:11560   */\n    tag_120:\n        /* \"#utility.yul\":11468:11472   */\n      0x00\n        /* \"#utility.yul\":11491:11494   */\n      dup2\n        /* \"#utility.yul\":11483:11494   */\n      swap1\n      pop\n        /* \"#utility.yul\":11514:11517   */\n      dup2\n        /* \"#utility.yul\":11511:11512   */\n      0x00\n        /* \"#utility.yul\":11504:11518   */\n      mstore\n        /* \"#utility.yul\":11548:11552   */\n      0x20\n        /* \"#utility.yul\":11545:11546   */\n      0x00\n        /* \"#utility.yul\":11535:11553   */\n      keccak256\n        /* \"#utility.yul\":11527:11553   */\n      swap1\n      pop\n        /* \"#utility.yul\":11419:11560   */\n      swap2\n      swap1\n      pop\n      jump\t// out\n        /* \"#utility.yul\":11566:11659   */\n    tag_121:\n        /* \"#utility.yul\":11603:11609   */\n      0x00\n        /* \"#utility.yul\":11650:11652   */\n      0x20\n        /* \"#utility.yul\":11645:11647   */\n      0x1f\n        /* \"#utility.yul\":11638:11643   */\n      dup4\n        /* \"#utility.yul\":11634:11648   */\n      add\n        /* \"#utility.yul\":11630:11653   */\n      div\n        /* \"#utility.yul\":11620:11653   */\n      swap1\n      pop\n        /* \"#utility.yul\":11566:11659   */\n      swap2\n      swap1\n      pop\n      jump\t// out\n        /* \"#utility.yul\":11665:11772   */\n    tag_122:\n        /* \"#utility.yul\":11709:11717   */\n      0x00\n        /* \"#utility.yul\":11759:11764   */\n      dup3\n        /* \"#utility.yul\":11753:11757   */\n      dup3\n        /* \"#utility.yul\":11749:11765   */\n      shl\n        /* \"#utility.yul\":11728:11765   */\n      swap1\n      pop\n        /* \"#utility.yul\":11665:11772   */\n      swap3\n      swap2\n      pop\n      pop\n      jump\t// out\n        /* \"#utility.yul\":11778:12171   */\n    tag_123:\n        /* \"#utility.yul\":11847:11853   */\n      0x00\n        /* \"#utility.yul\":11897:11898   */\n      0x08\n        /* \"#utility.yul\":11885:11895   */\n      dup4\n        /* \"#utility.yul\":11881:11899   */\n      mul\n        /* \"#utility.yul\":11920:12017   */\n      tag_248\n        /* \"#utility.yul\":11950:12016   */\n      0xffffffffffffffffffffffffffffffffffffffffffffffffffffffffffffffff\n        /* \"#utility.yul\":11939:11948   */\n      dup3\n        /* \"#utility.yul\":11920:12017   */\n      tag_122\n      jump\t// in\n    tag_248:\n        /* \"#utility.yul\":12038:12077   */\n      tag_249\n        /* \"#utility.yul\":12068:12076   */\n      dup7\n        /* \"#utility.yul\":12057:12066   */\n      dup4\n        /* \"#utility.yul\":12038:12077   */\n      tag_122\n      jump\t// in\n    tag_249:\n        /* \"#utility.yul\":12026:12077   */\n      swap6\n      pop\n        /* \"#utility.yul\":12110:12114   */\n      dup1\n        /* \"#utility.yul\":12106:12115   */\n      not\n        /* \"#utility.yul\":12099:12104   */\n      dup5\n        /* \"#utility.yul\":12095:12116   */\n      and\n        /* \"#utility.yul\":12086:12116   */\n      swap4\n      pop\n        /* \"#utility.yul\":12159:12163   */\n      dup1\n        /* \"#utility.yul\":12149:12157   */\n      dup7\n        /* \"#utility.yul\":12145:12164   */\n      and\n        /* \"#utility.yul\":12138:12143   */\n      dup5\n        /* \"#utility.yul\":12135:12165   */\n      or\n        /* \"#utility.yul\":12125:12165   */\n      swap3\n      pop\n        /* \"#utility.yul\":11854:12171   */\n      pop\n      pop\n        /* \"#utility.yul\":11778:12171   */\n      swap4\n      swap3\n      pop\n      pop\n      pop\n      jump\t// out\n        /* \"#utility.yul\":12177:12237   */\n    tag_124:\n        /* \"#utility.yul\":12205:12208   */\n      0x00\n        /* \"#utility.yul\":12226:12231   */\n      dup2\n        /* \"#utility.yul\":12219:12231   */\n      swap1\n      pop\n        /* \"#utility.yul\":12177:12237   */\n      swap2\n      swap1\n      pop\n      jump\t// out\n        /* \"#utility.yul\":12243:12385   */\n    tag_125:\n        /* \"#utility.yul\":12293:12302   */\n      0x00\n        /* \"#utility.yul\":12326:12379   */\n      tag_252\n        /* \"#utility.yul\":12344:12378   */\n      tag_253\n        /* \"#utility.yul\":12353:12377   */\n      tag_254\n        /* \"#utility.yul\":12371:12376   */\n      dup5\n        /* \"#utility.yul\":12353:12377   */\n      tag_97\n      jump\t// in\n    tag_254:\n        /* \"#utility.yul\":12344:12378   */\n      tag_124\n      jump\t// in\n    tag_253:\n        /* \"#utility.yul\":12326:12379   */\n      tag_97\n      jump\t// in\n    tag_252:\n        /* \"#utility.yul\":12313:12379   */\n      swap1\n      pop\n        /* \"#utility.yul\":12243:12385   */\n      swap2\n      swap1\n      pop\n      jump\t// out\n        /* \"#utility.yul\":12391:12466   */\n    tag_126:\n        /* \"#utility.yul\":12434:12437   */\n      0x00\n        /* \"#utility.yul\":12455:12460   */\n      dup2\n        /* \"#utility.yul\":12448:12460   */\n      swap1\n      pop\n        /* \"#utility.yul\":12391:12466   */\n      swap2\n      swap1\n      pop\n      jump\t// out\n        /* \"#utility.yul\":12472:12741   */\n    tag_127:\n        /* \"#utility.yul\":12582:12621   */\n      tag_257\n        /* \"#utility.yul\":12613:12620   */\n      dup4\n        /* \"#utility.yul\":12582:12621   */\n      tag_125\n      jump\t// in\n    tag_257:\n        /* \"#utility.yul\":12643:12734   */\n      tag_258\n        /* \"#utility.yul\":12692:12733   */\n      tag_259\n        /* \"#utility.yul\":12716:12732   */\n      dup3\n        /* \"#utility.yul\":12692:12733   */\n      tag_126\n      jump\t// in\n    tag_259:\n        /* \"#utility.yul\":12684:12690   */\n      dup5\n        /* \"#utility.yul\":12677:12681   */\n      dup5\n        /* \"#utility.yul\":12671:12682   */\n      sload\n        /* \"#utility.yul\":12643:12734   */\n      tag_123\n      jump\t// in\n    tag_258:\n        /* \"#utility.yul\":12637:12641   */\n      dup3\n        /* \"#utility.yul\":12630:12735   */\n      sstore\n        /* \"#utility.yul\":12548:12741   */\n      pop\n        /* \"#utility.yul\":12472:12741   */\n      pop\n      pop\n      pop\n      jump\t// out\n        /* \"#utility.yul\":12747:12820   */\n    tag_128:\n        /* \"#utility.yul\":12792:12795   */\n      0x00\n        /* \"#utility.yul\":12747:12820   */\n      swap1\n      jump\t// out\n        /* \"#utility.yul\":12826:13015   */\n    tag_129:\n        /* \"#utility.yul\":12903:12935   */\n      tag_262\n      tag_128\n      jump\t// in\n    tag_262:\n        /* \"#utility.yul\":12944:13009   */\n      tag_263\n        /* \"#utility.yul\":13002:13008   */\n      dup2\n        /* \"#utility.yul\":12994:13000   */\n      dup5\n        /* \"#utility.yul\":12988:12992   */\n      dup5\n        /* \"#utility.yul\":12944:13009   */\n      tag_127\n      jump\t// in\n    tag_263:\n        /* \"#utility.yul\":12879:13015   */\n      pop\n        /* \"#utility.yul\":12826:13015   */\n      pop\n      pop\n      jump\t// out\n        /* \"#utility.yul\":13021:13207   */\n    tag_130:\n        /* \"#utility.yul\":13081:13201   */\n    tag_265:\n        /* \"#utility.yul\":13098:13101   */\n      dup2\n        /* \"#utility.yul\":13091:13096   */\n      dup2\n        /* \"#utility.yul\":13088:13102   */\n      lt\n        /* \"#utility.yul\":13081:13201   */\n      iszero\n      tag_267\n      jumpi\n        /* \"#utility.yul\":13152:13191   */\n      tag_268\n        /* \"#utility.yul\":13189:13190   */\n      0x00\n        /* \"#utility.yul\":13182:13187   */\n      dup3\n        /* \"#utility.yul\":13152:13191   */\n      tag_129\n      jump\t// in\n    tag_268:\n        /* \"#utility.yul\":13125:13126   */\n      0x01\n        /* \"#utility.yul\":13118:13123   */\n      dup2\n        /* \"#utility.yul\":13114:13127   */\n      add\n        /* \"#utility.yul\":13105:13127   */\n      swap1\n      pop\n        /* \"#utility.yul\":13081:13201   */\n      jump(tag_265)\n    tag_267:\n        /* \"#utility.yul\":13021:13207   */\n      pop\n      pop\n      jump\t// out\n        /* \"#utility.yul\":13213:13756   */\n    tag_131:\n        /* \"#utility.yul\":13314:13316   */\n      0x1f\n        /* \"#utility.yul\":13309:13312   */\n      dup3\n        /* \"#utility.yul\":13306:13317   */\n      gt\n        /* \"#utility.yul\":13303:13749   */\n      iszero\n      tag_270\n      jumpi\n        /* \"#utility.yul\":13348:13386   */\n      tag_271\n        /* \"#utility.yul\":13380:13385   */\n      dup2\n        /* \"#utility.yul\":13348:13386   */\n      tag_120\n      jump\t// in\n    tag_271:\n        /* \"#utility.yul\":13432:13461   */\n      tag_272\n        /* \"#utility.yul\":13450:13460   */\n      dup5\n        /* \"#utility.yul\":13432:13461   */\n      tag_121\n      jump\t// in\n    tag_272:\n        /* \"#utility.yul\":13422:13430   */\n      dup2\n        /* \"#utility.yul\":13418:13462   */\n      add\n        /* \"#utility.yul\":13615:13617   */\n      0x20\n        /* \"#utility.yul\":13603:13613   */\n      dup6\n        /* \"#utility.yul\":13600:13618   */\n      lt\n        /* \"#utility.yul\":13597:13646   */\n      iszero\n      tag_273\n      jumpi\n        /* \"#utility.yul\":13636:13644   */\n      dup2\n        /* \"#utility.yul\":13621:13644   */\n      swap1\n      pop\n        /* \"#utility.yul\":13597:13646   */\n    tag_273:\n        /* \"#utility.yul\":13659:13739   */\n      tag_274\n        /* \"#utility.yul\":13715:13737   */\n      tag_275\n        /* \"#utility.yul\":13733:13736   */\n      dup6\n        /* \"#utility.yul\":13715:13737   */\n      tag_121\n      jump\t// in\n    tag_275:\n        /* \"#utility.yul\":13705:13713   */\n      dup4\n        /* \"#utility.yul\":13701:13738   */\n      add\n        /* \"#utility.yul\":13688:13699   */\n      dup3\n        /* \"#utility.yul\":13659:13739   */\n      tag_130\n      jump\t// in\n    tag_274:\n        /* \"#utility.yul\":13318:13749   */\n      pop\n      pop\n        /* \"#utility.yul\":13303:13749   */\n    tag_270:\n        /* \"#utility.yul\":13213:13756   */\n      pop\n      pop\n      pop\n      jump\t// out\n        /* \"#utility.yul\":13762:13879   */\n    tag_132:\n        /* \"#utility.yul\":13816:13824   */\n      0x00\n        /* \"#utility.yul\":13866:13871   */\n      dup3\n        /* \"#utility.yul\":13860:13864   */\n      dup3\n        /* \"#utility.yul\":13856:13872   */\n      shr\n        /* \"#utility.yul\":13835:13872   */\n      swap1\n      pop\n        /* \"#utility.yul\":13762:13879   */\n      swap3\n      swap2\n      pop\n      pop\n      jump\t// out\n        /* \"#utility.yul\":13885:14054   */\n    tag_133:\n        /* \"#utility.yul\":13929:13935   */\n      0x00\n        /* \"#utility.yul\":13962:14013   */\n      tag_278\n        /* \"#utility.yul\":14010:14011   */\n      0x00\n        /* \"#utility.yul\":14006:14012   */\n      not\n        /* \"#utility.yul\":13998:14003   */\n      dup5\n        /* \"#utility.yul\":13995:13996   */\n      0x08\n        /* \"#utility.yul\":13991:14004   */\n      mul\n        /* \"#utility.yul\":13962:14013   */\n      tag_132\n      jump\t// in\n    tag_278:\n        /* \"#utility.yul\":13958:14014   */\n      not\n        /* \"#utility.yul\":14043:14047   */\n      dup1\n        /* \"#utility.yul\":14037:14041   */\n      dup4\n        /* \"#utility.yul\":14033:14048   */\n      and\n        /* \"#utility.yul\":14023:14048   */\n      swap2\n      pop\n        /* \"#utility.yul\":13936:14054   */\n      pop\n        /* \"#utility.yul\":13885:14054   */\n      swap3\n      swap2\n      pop\n      pop\n      jump\t// out\n        /* \"#utility.yul\":14059:14354   */\n    tag_134:\n        /* \"#utility.yul\":14135:14139   */\n      0x00\n        /* \"#utility.yul\":14281:14310   */\n      tag_280\n        /* \"#utility.yul\":14306:14309   */\n      dup4\n        /* \"#utility.yul\":14300:14304   */\n      dup4\n        /* \"#utility.yul\":14281:14310   */\n      tag_133\n      jump\t// in\n    tag_280:\n        /* \"#utility.yul\":14273:14310   */\n      swap2\n      pop\n        /* \"#utility.yul\":14343:14346   */\n      dup3\n        /* \"#utility.yul\":14340:14341   */\n      0x02\n        /* \"#utility.yul\":14336:14347   */\n      mul\n        /* \"#utility.yul\":14330:14334   */\n      dup3\n        /* \"#utility.yul\":14327:14348   */\n      or\n        /* \"#utility.yul\":14319:14348   */\n      swap1\n      pop\n        /* \"#utility.yul\":14059:14354   */\n      swap3\n      swap2\n      pop\n      pop\n      jump\t// out\n        /* \"#utility.yul\":14359:15754   */\n    tag_41:\n        /* \"#utility.yul\":14476:14513   */\n      tag_282\n        /* \"#utility.yul\":14509:14512   */\n      dup3\n        /* \"#utility.yul\":14476:14513   */\n      tag_104\n      jump\t// in\n    tag_282:\n        /* \"#utility.yul\":14578:14596   */\n      0xffffffffffffffff\n        /* \"#utility.yul\":14570:14576   */\n      dup2\n        /* \"#utility.yul\":14567:14597   */\n      gt\n        /* \"#utility.yul\":14564:14620   */\n      iszero\n      tag_283\n      jumpi\n        /* \"#utility.yul\":14600:14618   */\n      tag_284\n      tag_61\n      jump\t// in\n    tag_284:\n        /* \"#utility.yul\":14564:14620   */\n    tag_283:\n        /* \"#utility.yul\":14644:14682   */\n      tag_285\n        /* \"#utility.yul\":14676:14680   */\n      dup3\n        /* \"#utility.yul\":14670:14681   */\n      sload\n        /* \"#utility.yul\":14644:14682   */\n      tag_47\n      jump\t// in\n    tag_285:\n        /* \"#utility.yul\":14729:14796   */\n      tag_286\n        /* \"#utility.yul\":14789:14795   */\n      dup3\n        /* \"#utility.yul\":14781:14787   */\n      dup3\n        /* \"#utility.yul\":14775:14779   */\n      dup6\n        /* \"#utility.yul\":14729:14796   */\n      tag_131\n      jump\t// in\n    tag_286:\n        /* \"#utility.yul\":14823:14824   */\n      0x00\n        /* \"#utility.yul\":14847:14851   */\n      0x20\n        /* \"#utility.yul\":14834:14851   */\n      swap1\n      pop\n        /* \"#utility.yul\":14879:14881   */\n      0x1f\n        /* \"#utility.yul\":14871:14877   */\n      dup4\n        /* \"#utility.yul\":14868:14882   */\n      gt\n        /* \"#utility.yul\":14896:14897   */\n      0x01\n        /* \"#utility.yul\":14891:15509   */\n      dup2\n      eq\n      tag_288\n      jumpi\n        /* \"#utility.yul\":15553:15554   */\n      0x00\n        /* \"#utility.yul\":15570:15576   */\n      dup5\n        /* \"#utility.yul\":15567:15644   */\n      iszero\n      tag_289\n      jumpi\n        /* \"#utility.yul\":15619:15628   */\n      dup3\n        /* \"#utility.yul\":15614:15617   */\n      dup8\n        /* \"#utility.yul\":15610:15629   */\n      add\n        /* \"#utility.yul\":15604:15630   */\n      mload\n        /* \"#utility.yul\":15595:15630   */\n      swap1\n      pop\n        /* \"#utility.yul\":15567:15644   */\n    tag_289:\n        /* \"#utility.yul\":15670:15737   */\n      tag_290\n        /* \"#utility.yul\":15730:15736   */\n      dup6\n        /* \"#utility.yul\":15723:15728   */\n      dup3\n        /* \"#utility.yul\":15670:15737   */\n      tag_134\n      jump\t// in\n    tag_290:\n        /* \"#utility.yul\":15664:15668   */\n      dup7\n        /* \"#utility.yul\":15657:15738   */\n      sstore\n        /* \"#utility.yul\":15526:15748   */\n      pop\n        /* \"#utility.yul\":14861:15748   */\n      jump(tag_287)\n        /* \"#utility.yul\":14891:15509   */\n    tag_288:\n        /* \"#utility.yul\":14943:14947   */\n      0x1f\n        /* \"#utility.yul\":14939:14948   */\n      not\n        /* \"#utility.yul\":14931:14937   */\n      dup5\n        /* \"#utility.yul\":14927:14949   */\n      and\n        /* \"#utility.yul\":14977:15014   */\n      tag_291\n        /* \"#utility.yul\":15009:15013   */\n      dup7\n        /* \"#utility.yul\":14977:15014   */\n      tag_120\n      jump\t// in\n    tag_291:\n        /* \"#utility.yul\":15036:15037   */\n      0x00\n        /* \"#utility.yul\":15050:15258   */\n    tag_292:\n        /* \"#utility.yul\":15064:15071   */\n      dup3\n        /* \"#utility.yul\":15061:15062   */\n      dup2\n        /* \"#utility.yul\":15058:15072   */\n      lt\n        /* \"#utility.yul\":15050:15258   */\n      iszero\n      tag_294\n      jumpi\n        /* \"#utility.yul\":15143:15152   */\n      dup5\n        /* \"#utility.yul\":15138:15141   */\n      dup10\n        /* \"#utility.yul\":15134:15153   */\n      add\n        /* \"#utility.yul\":15128:15154   */\n      mload\n        /* \"#utility.yul\":15120:15126   */\n      dup3\n        /* \"#utility.yul\":15113:15155   */\n      sstore\n        /* \"#utility.yul\":15194:15195   */\n      0x01\n        /* \"#utility.yul\":15186:15192   */\n      dup3\n        /* \"#utility.yul\":15182:15196   */\n      add\n        /* \"#utility.yul\":15172:15196   */\n      swap2\n      pop\n        /* \"#utility.yul\":15241:15243   */\n      0x20\n        /* \"#utility.yul\":15230:15239   */\n      dup6\n        /* \"#utility.yul\":15226:15244   */\n      add\n        /* \"#utility.yul\":15213:15244   */\n      swap5\n      pop\n        /* \"#utility.yul\":15087:15091   */\n      0x20\n        /* \"#utility.yul\":15084:15085   */\n      dup2\n        /* \"#utility.yul\":15080:15092   */\n      add\n        /* \"#utility.yul\":15075:15092   */\n      swap1\n      pop\n        /* \"#utility.yul\":15050:15258   */\n      jump(tag_292)\n    tag_294:\n        /* \"#utility.yul\":15286:15292   */\n      dup7\n        /* \"#utility.yul\":15277:15284   */\n      dup4\n        /* \"#utility.yul\":15274:15293   */\n      lt\n        /* \"#utility.yul\":15271:15450   */\n      iszero\n      tag_295\n      jumpi\n        /* \"#utility.yul\":15344:15353   */\n      dup5\n        /* \"#utility.yul\":15339:15342   */\n      dup10\n        /* \"#utility.yul\":15335:15354   */\n      add\n        /* \"#utility.yul\":15329:15355   */\n      mload\n        /* \"#utility.yul\":15387:15435   */\n      tag_296\n        /* \"#utility.yul\":15429:15433   */\n      0x1f\n        /* \"#utility.yul\":15421:15427   */\n      dup10\n        /* \"#utility.yul\":15417:15434   */\n      and\n        /* \"#utility.yul\":15406:15415   */\n      dup3\n        /* \"#utility.yul\":15387:15435   */\n      tag_133\n      jump\t// in\n    tag_296:\n        /* \"#utility.yul\":15379:15385   */\n      dup4\n        /* \"#utility.yul\":15372:15436   */\n      sstore\n        /* \"#utility.yul\":15294:15450   */\n      pop\n        /* \"#utility.yul\":15271:15450   */\n    tag_295:\n        /* \"#utility.yul\":15496:15497   */\n      0x01\n        /* \"#utility.yul\":15492:15493   */\n      0x02\n        /* \"#utility.yul\":15484:15490   */\n      dup9\n        /* \"#utility.yul\":15480:15494   */\n      mul\n        /* \"#utility.yul\":15476:15498   */\n      add\n        /* \"#utility.yul\":15470:15474   */\n      dup9\n        /* \"#utility.yul\":15463:15499   */\n      sstore\n        /* \"#utility.yul\":14898:15509   */\n      pop\n      pop\n      pop\n        /* \"#utility.yul\":14861:15748   */\n    tag_287:\n      pop\n        /* \"#utility.yul\":14451:15754   */\n      pop\n      pop\n      pop\n        /* \"#utility.yul\":14359:15754   */\n      pop\n      pop\n      jump\t// out\n        /* \"#utility.yul\":15760:15940   */\n    tag_71:\n        /* \"#utility.yul\":15808:15885   */\n      0x4e487b7100000000000000000000000000000000000000000000000000000000\n        /* \"#utility.yul\":15805:15806   */\n      0x00\n        /* \"#utility.yul\":15798:15886   */\n      mstore\n        /* \"#utility.yul\":15905:15909   */\n      0x32\n        /* \"#utility.yul\":15902:15903   */\n      0x04\n        /* \"#utility.yul\":15895:15910   */\n      mstore\n        /* \"#utility.yul\":15929:15933   */\n      0x24\n        /* \"#utility.yul\":15926:15927   */\n      0x00\n        /* \"#utility.yul\":15919:15934   */\n      revert\n\n    auxdata: 0xa2646970667358221220e1b836262a82081cb4124382066082e3d60b7341f7ddeac4236c072446d8777264736f6c634300081a0033\n}\n",
				"bytecode": {
					"linkReferences": {},
					"object": "6080604052348015600e575f80fd5b50610e6e8061001c5f395ff3fe608060405234801561000f575f80fd5b506004361061007b575f3560e01c80635203bdf9116100595780635203bdf9146100d7578063b69ef8a81461010a578063ed12e8ef14610128578063f89e29cd146101465761007b565b80630cd2890b1461007f5780630df560561461009b5780632755cd2d146100b9575b5f80fd5b610099600480360381019061009491906107cf565b610164565b005b6100a3610244565b6040516100b09190610866565b60405180910390f35b6100c1610250565b6040516100ce9190610866565b60405180910390f35b6100f160048036038101906100ec919061087f565b610255565b6040516101019493929190610949565b60405180910390f35b6101126103bb565b60405161011f9190610866565b60405180910390f35b6101306103c1565b60405161013d9190610866565b60405180910390f35b61014e6103ca565b60405161015b9190610b22565b60405180910390f35b600260405180608001604052805f73ffffffffffffffffffffffffffffffffffffffff16815260200185815260200184815260200183815250908060018154018082558091505060019003905f5260205f2090600402015f909190919091505f820151815f015f6101000a81548173ffffffffffffffffffffffffffffffffffffffff021916908373ffffffffffffffffffffffffffffffffffffffff160217905550602082015181600101908161021c9190610d3c565b5060408201518160020190816102329190610d3c565b50606082015181600301555050505050565b5f600280549050905090565b5f5481565b60028181548110610264575f80fd5b905f5260205f2090600402015f91509050805f015f9054906101000a900473ffffffffffffffffffffffffffffffffffffffff16908060010180546102a890610b6f565b80601f01602080910402602001604051908101604052809291908181526020018280546102d490610b6f565b801561031f5780601f106102f65761010080835404028352916020019161031f565b820191905f5260205f20905b81548152906001019060200180831161030257829003601f168201915b50505050509080600201805461033490610b6f565b80601f016020809104026020016040519081016040528092919081815260200182805461036090610b6f565b80156103ab5780601f10610382576101008083540402835291602001916103ab565b820191905f5260205f20905b81548152906001019060200180831161038e57829003601f168201915b5050505050908060030154905084565b60015481565b5f600154905090565b60605f60028054905067ffffffffffffffff8111156103ec576103eb610678565b5b60405190808252806020026020018201604052801561042557816020015b610412610613565b81526020019060019003908161040a5790505b5090505f5b60028054905081101561060b576002818154811061044b5761044a610e0b565b5b905f5260205f2090600402016040518060800160405290815f82015f9054906101000a900473ffffffffffffffffffffffffffffffffffffffff1673ffffffffffffffffffffffffffffffffffffffff1673ffffffffffffffffffffffffffffffffffffffff1681526020016001820180546104c690610b6f565b80601f01602080910402602001604051908101604052809291908181526020018280546104f290610b6f565b801561053d5780601f106105145761010080835404028352916020019161053d565b820191905f5260205f20905b81548152906001019060200180831161052057829003601f168201915b5050505050815260200160028201805461055690610b6f565b80601f016020809104026020016040519081016040528092919081815260200182805461058290610b6f565b80156105cd5780601f106105a4576101008083540402835291602001916105cd565b820191905f5260205f20905b8154815290600101906020018083116105b057829003601f168201915b505050505081526020016003820154815250508282815181106105f3576105f2610e0b565b5b6020026020010181905250808060010191505061042a565b508091505090565b60405180608001604052805f73ffffffffffffffffffffffffffffffffffffffff16815260200160608152602001606081526020015f81525090565b5f604051905090565b5f80fd5b5f80fd5b5f80fd5b5f80fd5b5f601f19601f8301169050919050565b7f4e487b71000000000000000000000000000000000000000000000000000000005f52604160045260245ffd5b6106ae82610668565b810181811067ffffffffffffffff821117156106cd576106cc610678565b5b80604052505050565b5f6106df61064f565b90506106eb82826106a5565b919050565b5f67ffffffffffffffff82111561070a57610709610678565b5b61071382610668565b9050602081019050919050565b828183375f83830152505050565b5f61074061073b846106f0565b6106d6565b90508281526020810184848401111561075c5761075b610664565b5b610767848285610720565b509392505050565b5f82601f83011261078357610782610660565b5b813561079384826020860161072e565b91505092915050565b5f819050919050565b6107ae8161079c565b81146107b8575f80fd5b50565b5f813590506107c9816107a5565b92915050565b5f805f606084860312156107e6576107e5610658565b5b5f84013567ffffffffffffffff8111156108035761080261065c565b5b61080f8682870161076f565b935050602084013567ffffffffffffffff8111156108305761082f61065c565b5b61083c8682870161076f565b925050604061084d868287016107bb565b9150509250925092565b6108608161079c565b82525050565b5f6020820190506108795f830184610857565b92915050565b5f6020828403121561089457610893610658565b5b5f6108a1848285016107bb565b91505092915050565b5f73ffffffffffffffffffffffffffffffffffffffff82169050919050565b5f6108d3826108aa565b9050919050565b6108e3816108c9565b82525050565b5f81519050919050565b5f82825260208201905092915050565b8281835e5f83830152505050565b5f61091b826108e9565b61092581856108f3565b9350610935818560208601610903565b61093e81610668565b840191505092915050565b5f60808201905061095c5f8301876108da565b818103602083015261096e8186610911565b905081810360408301526109828185610911565b90506109916060830184610857565b95945050505050565b5f81519050919050565b5f82825260208201905092915050565b5f819050602082019050919050565b6109cc816108c9565b82525050565b5f82825260208201905092915050565b5f6109ec826108e9565b6109f681856109d2565b9350610a06818560208601610903565b610a0f81610668565b840191505092915050565b610a238161079c565b82525050565b5f608083015f830151610a3e5f8601826109c3565b5060208301518482036020860152610a5682826109e2565b91505060408301518482036040860152610a7082826109e2565b9150506060830151610a856060860182610a1a565b508091505092915050565b5f610a9b8383610a29565b905092915050565b5f602082019050919050565b5f610ab98261099a565b610ac381856109a4565b935083602082028501610ad5856109b4565b805f5b85811015610b105784840389528151610af18582610a90565b9450610afc83610aa3565b925060208a01995050600181019050610ad8565b50829750879550505050505092915050565b5f6020820190508181035f830152610b3a8184610aaf565b905092915050565b7f4e487b71000000000000000000000000000000000000000000000000000000005f52602260045260245ffd5b5f6002820490506001821680610b8657607f821691505b602082108103610b9957610b98610b42565b5b50919050565b5f819050815f5260205f209050919050565b5f6020601f8301049050919050565b5f82821b905092915050565b5f60088302610bfb7fffffffffffffffffffffffffffffffffffffffffffffffffffffffffffffffff82610bc0565b610c058683610bc0565b95508019841693508086168417925050509392505050565b5f819050919050565b5f610c40610c3b610c368461079c565b610c1d565b61079c565b9050919050565b5f819050919050565b610c5983610c26565b610c6d610c6582610c47565b848454610bcc565b825550505050565b5f90565b610c81610c75565b610c8c818484610c50565b505050565b5b81811015610caf57610ca45f82610c79565b600181019050610c92565b5050565b601f821115610cf457610cc581610b9f565b610cce84610bb1565b81016020851015610cdd578190505b610cf1610ce985610bb1565b830182610c91565b50505b505050565b5f82821c905092915050565b5f610d145f1984600802610cf9565b1980831691505092915050565b5f610d2c8383610d05565b9150826002028217905092915050565b610d45826108e9565b67ffffffffffffffff811115610d5e57610d5d610678565b5b610d688254610b6f565b610d73828285610cb3565b5f60209050601f831160018114610da4575f8415610d92578287015190505b610d9c8582610d21565b865550610e03565b601f198416610db286610b9f565b5f5b82811015610dd957848901518255600182019150602085019450602081019050610db4565b86831015610df65784890151610df2601f891682610d05565b8355505b6001600288020188555050505b505050505050565b7f4e487b71000000000000000000000000000000000000000000000000000000005f52603260045260245ffdfea2646970667358221220e1b836262a82081cb4124382066082e3d60b7341f7ddeac4236c072446d8777264736f6c634300081a0033",
					"opcodes": "PUSH1 0x80 PUSH1 0x40 MSTORE CALLVALUE DUP1 ISZERO PUSH1 0xE JUMPI PUSH0 DUP1 REVERT JUMPDEST POP PUSH2 0xE6E DUP1 PUSH2 0x1C PUSH0 CODECOPY PUSH0 RETURN INVALID PUSH1 0x80 PUSH1 0x40 MSTORE CALLVALUE DUP1 ISZERO PUSH2 0xF JUMPI PUSH0 DUP1 REVERT JUMPDEST POP PUSH1 0x4 CALLDATASIZE LT PUSH2 0x7B JUMPI PUSH0 CALLDATALOAD PUSH1 0xE0 SHR DUP1 PUSH4 0x5203BDF9 GT PUSH2 0x59 JUMPI DUP1 PUSH4 0x5203BDF9 EQ PUSH2 0xD7 JUMPI DUP1 PUSH4 0xB69EF8A8 EQ PUSH2 0x10A JUMPI DUP1 PUSH4 0xED12E8EF EQ PUSH2 0x128 JUMPI DUP1 PUSH4 0xF89E29CD EQ PUSH2 0x146 JUMPI PUSH2 0x7B JUMP JUMPDEST DUP1 PUSH4 0xCD2890B EQ PUSH2 0x7F JUMPI DUP1 PUSH4 0xDF56056 EQ PUSH2 0x9B JUMPI DUP1 PUSH4 0x2755CD2D EQ PUSH2 0xB9 JUMPI JUMPDEST PUSH0 DUP1 REVERT JUMPDEST PUSH2 0x99 PUSH1 0x4 DUP1 CALLDATASIZE SUB DUP2 ADD SWAP1 PUSH2 0x94 SWAP2 SWAP1 PUSH2 0x7CF JUMP JUMPDEST PUSH2 0x164 JUMP JUMPDEST STOP JUMPDEST PUSH2 0xA3 PUSH2 0x244 JUMP JUMPDEST PUSH1 0x40 MLOAD PUSH2 0xB0 SWAP2 SWAP1 PUSH2 0x866 JUMP JUMPDEST PUSH1 0x40 MLOAD DUP1 SWAP2 SUB SWAP1 RETURN JUMPDEST PUSH2 0xC1 PUSH2 0x250 JUMP JUMPDEST PUSH1 0x40 MLOAD PUSH2 0xCE SWAP2 SWAP1 PUSH2 0x866 JUMP JUMPDEST PUSH1 0x40 MLOAD DUP1 SWAP2 SUB SWAP1 RETURN JUMPDEST PUSH2 0xF1 PUSH1 0x4 DUP1 CALLDATASIZE SUB DUP2 ADD SWAP1 PUSH2 0xEC SWAP2 SWAP1 PUSH2 0x87F JUMP JUMPDEST PUSH2 0x255 JUMP JUMPDEST PUSH1 0x40 MLOAD PUSH2 0x101 SWAP5 SWAP4 SWAP3 SWAP2 SWAP1 PUSH2 0x949 JUMP JUMPDEST PUSH1 0x40 MLOAD DUP1 SWAP2 SUB SWAP1 RETURN JUMPDEST PUSH2 0x112 PUSH2 0x3BB JUMP JUMPDEST PUSH1 0x40 MLOAD PUSH2 0x11F SWAP2 SWAP1 PUSH2 0x866 JUMP JUMPDEST PUSH1 0x40 MLOAD DUP1 SWAP2 SUB SWAP1 RETURN JUMPDEST PUSH2 0x130 PUSH2 0x3C1 JUMP JUMPDEST PUSH1 0x40 MLOAD PUSH2 0x13D SWAP2 SWAP1 PUSH2 0x866 JUMP JUMPDEST PUSH1 0x40 MLOAD DUP1 SWAP2 SUB SWAP1 RETURN JUMPDEST PUSH2 0x14E PUSH2 0x3CA JUMP JUMPDEST PUSH1 0x40 MLOAD PUSH2 0x15B SWAP2 SWAP1 PUSH2 0xB22 JUMP JUMPDEST PUSH1 0x40 MLOAD DUP1 SWAP2 SUB SWAP1 RETURN JUMPDEST PUSH1 0x2 PUSH1 0x40 MLOAD DUP1 PUSH1 0x80 ADD PUSH1 0x40 MSTORE DUP1 PUSH0 PUSH20 0xFFFFFFFFFFFFFFFFFFFFFFFFFFFFFFFFFFFFFFFF AND DUP2 MSTORE PUSH1 0x20 ADD DUP6 DUP2 MSTORE PUSH1 0x20 ADD DUP5 DUP2 MSTORE PUSH1 0x20 ADD DUP4 DUP2 MSTORE POP SWAP1 DUP1 PUSH1 0x1 DUP2 SLOAD ADD DUP1 DUP3 SSTORE DUP1 SWAP2 POP POP PUSH1 0x1 SWAP1 SUB SWAP1 PUSH0 MSTORE PUSH1 0x20 PUSH0 KECCAK256 SWAP1 PUSH1 0x4 MUL ADD PUSH0 SWAP1 SWAP2 SWAP1 SWAP2 SWAP1 SWAP2 POP PUSH0 DUP3 ADD MLOAD DUP2 PUSH0 ADD PUSH0 PUSH2 0x100 EXP DUP2 SLOAD DUP2 PUSH20 0xFFFFFFFFFFFFFFFFFFFFFFFFFFFFFFFFFFFFFFFF MUL NOT AND SWAP1 DUP4 PUSH20 0xFFFFFFFFFFFFFFFFFFFFFFFFFFFFFFFFFFFFFFFF AND MUL OR SWAP1 SSTORE POP PUSH1 0x20 DUP3 ADD MLOAD DUP2 PUSH1 0x1 ADD SWAP1 DUP2 PUSH2 0x21C SWAP2 SWAP1 PUSH2 0xD3C JUMP JUMPDEST POP PUSH1 0x40 DUP3 ADD MLOAD DUP2 PUSH1 0x2 ADD SWAP1 DUP2 PUSH2 0x232 SWAP2 SWAP1 PUSH2 0xD3C JUMP JUMPDEST POP PUSH1 0x60 DUP3 ADD MLOAD DUP2 PUSH1 0x3 ADD SSTORE POP POP POP POP POP JUMP JUMPDEST PUSH0 PUSH1 0x2 DUP1 SLOAD SWAP1 POP SWAP1 POP SWAP1 JUMP JUMPDEST PUSH0 SLOAD DUP2 JUMP JUMPDEST PUSH1 0x2 DUP2 DUP2 SLOAD DUP2 LT PUSH2 0x264 JUMPI PUSH0 DUP1 REVERT JUMPDEST SWAP1 PUSH0 MSTORE PUSH1 0x20 PUSH0 KECCAK256 SWAP1 PUSH1 0x4 MUL ADD PUSH0 SWAP2 POP SWAP1 POP DUP1 PUSH0 ADD PUSH0 SWAP1 SLOAD SWAP1 PUSH2 0x100 EXP SWAP1 DIV PUSH20 0xFFFFFFFFFFFFFFFFFFFFFFFFFFFFFFFFFFFFFFFF AND SWAP1 DUP1 PUSH1 0x1 ADD DUP1 SLOAD PUSH2 0x2A8 SWAP1 PUSH2 0xB6F JUMP JUMPDEST DUP1 PUSH1 0x1F ADD PUSH1 0x20 DUP1 SWAP2 DIV MUL PUSH1 0x20 ADD PUSH1 0x40 MLOAD SWAP1 DUP2 ADD PUSH1 0x40 MSTORE DUP1 SWAP3 SWAP2 SWAP1 DUP2 DUP2 MSTORE PUSH1 0x20 ADD DUP3 DUP1 SLOAD PUSH2 0x2D4 SWAP1 PUSH2 0xB6F JUMP JUMPDEST DUP1 ISZERO PUSH2 0x31F JUMPI DUP1 PUSH1 0x1F LT PUSH2 0x2F6 JUMPI PUSH2 0x100 DUP1 DUP4 SLOAD DIV MUL DUP4 MSTORE SWAP2 PUSH1 0x20 ADD SWAP2 PUSH2 0x31F JUMP JUMPDEST DUP3 ADD SWAP2 SWAP1 PUSH0 MSTORE PUSH1 0x20 PUSH0 KECCAK256 SWAP1 JUMPDEST DUP2 SLOAD DUP2 MSTORE SWAP1 PUSH1 0x1 ADD SWAP1 PUSH1 0x20 ADD DUP1 DUP4 GT PUSH2 0x302 JUMPI DUP3 SWAP1 SUB PUSH1 0x1F AND DUP3 ADD SWAP2 JUMPDEST POP POP POP POP POP SWAP1 DUP1 PUSH1 0x2 ADD DUP1 SLOAD PUSH2 0x334 SWAP1 PUSH2 0xB6F JUMP JUMPDEST DUP1 PUSH1 0x1F ADD PUSH1 0x20 DUP1 SWAP2 DIV MUL PUSH1 0x20 ADD PUSH1 0x40 MLOAD SWAP1 DUP2 ADD PUSH1 0x40 MSTORE DUP1 SWAP3 SWAP2 SWAP1 DUP2 DUP2 MSTORE PUSH1 0x20 ADD DUP3 DUP1 SLOAD PUSH2 0x360 SWAP1 PUSH2 0xB6F JUMP JUMPDEST DUP1 ISZERO PUSH2 0x3AB JUMPI DUP1 PUSH1 0x1F LT PUSH2 0x382 JUMPI PUSH2 0x100 DUP1 DUP4 SLOAD DIV MUL DUP4 MSTORE SWAP2 PUSH1 0x20 ADD SWAP2 PUSH2 0x3AB JUMP JUMPDEST DUP3 ADD SWAP2 SWAP1 PUSH0 MSTORE PUSH1 0x20 PUSH0 KECCAK256 SWAP1 JUMPDEST DUP2 SLOAD DUP2 MSTORE SWAP1 PUSH1 0x1 ADD SWAP1 PUSH1 0x20 ADD DUP1 DUP4 GT PUSH2 0x38E JUMPI DUP3 SWAP1 SUB PUSH1 0x1F AND DUP3 ADD SWAP2 JUMPDEST POP POP POP POP POP SWAP1 DUP1 PUSH1 0x3 ADD SLOAD SWAP1 POP DUP5 JUMP JUMPDEST PUSH1 0x1 SLOAD DUP2 JUMP JUMPDEST PUSH0 PUSH1 0x1 SLOAD SWAP1 POP SWAP1 JUMP JUMPDEST PUSH1 0x60 PUSH0 PUSH1 0x2 DUP1 SLOAD SWAP1 POP PUSH8 0xFFFFFFFFFFFFFFFF DUP2 GT ISZERO PUSH2 0x3EC JUMPI PUSH2 0x3EB PUSH2 0x678 JUMP JUMPDEST JUMPDEST PUSH1 0x40 MLOAD SWAP1 DUP1 DUP3 MSTORE DUP1 PUSH1 0x20 MUL PUSH1 0x20 ADD DUP3 ADD PUSH1 0x40 MSTORE DUP1 ISZERO PUSH2 0x425 JUMPI DUP2 PUSH1 0x20 ADD JUMPDEST PUSH2 0x412 PUSH2 0x613 JUMP JUMPDEST DUP2 MSTORE PUSH1 0x20 ADD SWAP1 PUSH1 0x1 SWAP1 SUB SWAP1 DUP2 PUSH2 0x40A JUMPI SWAP1 POP JUMPDEST POP SWAP1 POP PUSH0 JUMPDEST PUSH1 0x2 DUP1 SLOAD SWAP1 POP DUP2 LT ISZERO PUSH2 0x60B JUMPI PUSH1 0x2 DUP2 DUP2 SLOAD DUP2 LT PUSH2 0x44B JUMPI PUSH2 0x44A PUSH2 0xE0B JUMP JUMPDEST JUMPDEST SWAP1 PUSH0 MSTORE PUSH1 0x20 PUSH0 KECCAK256 SWAP1 PUSH1 0x4 MUL ADD PUSH1 0x40 MLOAD DUP1 PUSH1 0x80 ADD PUSH1 0x40 MSTORE SWAP1 DUP2 PUSH0 DUP3 ADD PUSH0 SWAP1 SLOAD SWAP1 PUSH2 0x100 EXP SWAP1 DIV PUSH20 0xFFFFFFFFFFFFFFFFFFFFFFFFFFFFFFFFFFFFFFFF AND PUSH20 0xFFFFFFFFFFFFFFFFFFFFFFFFFFFFFFFFFFFFFFFF AND PUSH20 0xFFFFFFFFFFFFFFFFFFFFFFFFFFFFFFFFFFFFFFFF AND DUP2 MSTORE PUSH1 0x20 ADD PUSH1 0x1 DUP3 ADD DUP1 SLOAD PUSH2 0x4C6 SWAP1 PUSH2 0xB6F JUMP JUMPDEST DUP1 PUSH1 0x1F ADD PUSH1 0x20 DUP1 SWAP2 DIV MUL PUSH1 0x20 ADD PUSH1 0x40 MLOAD SWAP1 DUP2 ADD PUSH1 0x40 MSTORE DUP1 SWAP3 SWAP2 SWAP1 DUP2 DUP2 MSTORE PUSH1 0x20 ADD DUP3 DUP1 SLOAD PUSH2 0x4F2 SWAP1 PUSH2 0xB6F JUMP JUMPDEST DUP1 ISZERO PUSH2 0x53D JUMPI DUP1 PUSH1 0x1F LT PUSH2 0x514 JUMPI PUSH2 0x100 DUP1 DUP4 SLOAD DIV MUL DUP4 MSTORE SWAP2 PUSH1 0x20 ADD SWAP2 PUSH2 0x53D JUMP JUMPDEST DUP3 ADD SWAP2 SWAP1 PUSH0 MSTORE PUSH1 0x20 PUSH0 KECCAK256 SWAP1 JUMPDEST DUP2 SLOAD DUP2 MSTORE SWAP1 PUSH1 0x1 ADD SWAP1 PUSH1 0x20 ADD DUP1 DUP4 GT PUSH2 0x520 JUMPI DUP3 SWAP1 SUB PUSH1 0x1F AND DUP3 ADD SWAP2 JUMPDEST POP POP POP POP POP DUP2 MSTORE PUSH1 0x20 ADD PUSH1 0x2 DUP3 ADD DUP1 SLOAD PUSH2 0x556 SWAP1 PUSH2 0xB6F JUMP JUMPDEST DUP1 PUSH1 0x1F ADD PUSH1 0x20 DUP1 SWAP2 DIV MUL PUSH1 0x20 ADD PUSH1 0x40 MLOAD SWAP1 DUP2 ADD PUSH1 0x40 MSTORE DUP1 SWAP3 SWAP2 SWAP1 DUP2 DUP2 MSTORE PUSH1 0x20 ADD DUP3 DUP1 SLOAD PUSH2 0x582 SWAP1 PUSH2 0xB6F JUMP JUMPDEST DUP1 ISZERO PUSH2 0x5CD JUMPI DUP1 PUSH1 0x1F LT PUSH2 0x5A4 JUMPI PUSH2 0x100 DUP1 DUP4 SLOAD DIV MUL DUP4 MSTORE SWAP2 PUSH1 0x20 ADD SWAP2 PUSH2 0x5CD JUMP JUMPDEST DUP3 ADD SWAP2 SWAP1 PUSH0 MSTORE PUSH1 0x20 PUSH0 KECCAK256 SWAP1 JUMPDEST DUP2 SLOAD DUP2 MSTORE SWAP1 PUSH1 0x1 ADD SWAP1 PUSH1 0x20 ADD DUP1 DUP4 GT PUSH2 0x5B0 JUMPI DUP3 SWAP1 SUB PUSH1 0x1F AND DUP3 ADD SWAP2 JUMPDEST POP POP POP POP POP DUP2 MSTORE PUSH1 0x20 ADD PUSH1 0x3 DUP3 ADD SLOAD DUP2 MSTORE POP POP DUP3 DUP3 DUP2 MLOAD DUP2 LT PUSH2 0x5F3 JUMPI PUSH2 0x5F2 PUSH2 0xE0B JUMP JUMPDEST JUMPDEST PUSH1 0x20 MUL PUSH1 0x20 ADD ADD DUP2 SWAP1 MSTORE POP DUP1 DUP1 PUSH1 0x1 ADD SWAP2 POP POP PUSH2 0x42A JUMP JUMPDEST POP DUP1 SWAP2 POP POP SWAP1 JUMP JUMPDEST PUSH1 0x40 MLOAD DUP1 PUSH1 0x80 ADD PUSH1 0x40 MSTORE DUP1 PUSH0 PUSH20 0xFFFFFFFFFFFFFFFFFFFFFFFFFFFFFFFFFFFFFFFF AND DUP2 MSTORE PUSH1 0x20 ADD PUSH1 0x60 DUP2 MSTORE PUSH1 0x20 ADD PUSH1 0x60 DUP2 MSTORE PUSH1 0x20 ADD PUSH0 DUP2 MSTORE POP SWAP1 JUMP JUMPDEST PUSH0 PUSH1 0x40 MLOAD SWAP1 POP SWAP1 JUMP JUMPDEST PUSH0 DUP1 REVERT JUMPDEST PUSH0 DUP1 REVERT JUMPDEST PUSH0 DUP1 REVERT JUMPDEST PUSH0 DUP1 REVERT JUMPDEST PUSH0 PUSH1 0x1F NOT PUSH1 0x1F DUP4 ADD AND SWAP1 POP SWAP2 SWAP1 POP JUMP JUMPDEST PUSH32 0x4E487B7100000000000000000000000000000000000000000000000000000000 PUSH0 MSTORE PUSH1 0x41 PUSH1 0x4 MSTORE PUSH1 0x24 PUSH0 REVERT JUMPDEST PUSH2 0x6AE DUP3 PUSH2 0x668 JUMP JUMPDEST DUP2 ADD DUP2 DUP2 LT PUSH8 0xFFFFFFFFFFFFFFFF DUP3 GT OR ISZERO PUSH2 0x6CD JUMPI PUSH2 0x6CC PUSH2 0x678 JUMP JUMPDEST JUMPDEST DUP1 PUSH1 0x40 MSTORE POP POP POP JUMP JUMPDEST PUSH0 PUSH2 0x6DF PUSH2 0x64F JUMP JUMPDEST SWAP1 POP PUSH2 0x6EB DUP3 DUP3 PUSH2 0x6A5 JUMP JUMPDEST SWAP2 SWAP1 POP JUMP JUMPDEST PUSH0 PUSH8 0xFFFFFFFFFFFFFFFF DUP3 GT ISZERO PUSH2 0x70A JUMPI PUSH2 0x709 PUSH2 0x678 JUMP JUMPDEST JUMPDEST PUSH2 0x713 DUP3 PUSH2 0x668 JUMP JUMPDEST SWAP1 POP PUSH1 0x20 DUP2 ADD SWAP1 POP SWAP2 SWAP1 POP JUMP JUMPDEST DUP3 DUP2 DUP4 CALLDATACOPY PUSH0 DUP4 DUP4 ADD MSTORE POP POP POP JUMP JUMPDEST PUSH0 PUSH2 0x740 PUSH2 0x73B DUP5 PUSH2 0x6F0 JUMP JUMPDEST PUSH2 0x6D6 JUMP JUMPDEST SWAP1 POP DUP3 DUP2 MSTORE PUSH1 0x20 DUP2 ADD DUP5 DUP5 DUP5 ADD GT ISZERO PUSH2 0x75C JUMPI PUSH2 0x75B PUSH2 0x664 JUMP JUMPDEST JUMPDEST PUSH2 0x767 DUP5 DUP3 DUP6 PUSH2 0x720 JUMP JUMPDEST POP SWAP4 SWAP3 POP POP POP JUMP JUMPDEST PUSH0 DUP3 PUSH1 0x1F DUP4 ADD SLT PUSH2 0x783 JUMPI PUSH2 0x782 PUSH2 0x660 JUMP JUMPDEST JUMPDEST DUP2 CALLDATALOAD PUSH2 0x793 DUP5 DUP3 PUSH1 0x20 DUP7 ADD PUSH2 0x72E JUMP JUMPDEST SWAP2 POP POP SWAP3 SWAP2 POP POP JUMP JUMPDEST PUSH0 DUP2 SWAP1 POP SWAP2 SWAP1 POP JUMP JUMPDEST PUSH2 0x7AE DUP2 PUSH2 0x79C JUMP JUMPDEST DUP2 EQ PUSH2 0x7B8 JUMPI PUSH0 DUP1 REVERT JUMPDEST POP JUMP JUMPDEST PUSH0 DUP2 CALLDATALOAD SWAP1 POP PUSH2 0x7C9 DUP2 PUSH2 0x7A5 JUMP JUMPDEST SWAP3 SWAP2 POP POP JUMP JUMPDEST PUSH0 DUP1 PUSH0 PUSH1 0x60 DUP5 DUP7 SUB SLT ISZERO PUSH2 0x7E6 JUMPI PUSH2 0x7E5 PUSH2 0x658 JUMP JUMPDEST JUMPDEST PUSH0 DUP5 ADD CALLDATALOAD PUSH8 0xFFFFFFFFFFFFFFFF DUP2 GT ISZERO PUSH2 0x803 JUMPI PUSH2 0x802 PUSH2 0x65C JUMP JUMPDEST JUMPDEST PUSH2 0x80F DUP7 DUP3 DUP8 ADD PUSH2 0x76F JUMP JUMPDEST SWAP4 POP POP PUSH1 0x20 DUP5 ADD CALLDATALOAD PUSH8 0xFFFFFFFFFFFFFFFF DUP2 GT ISZERO PUSH2 0x830 JUMPI PUSH2 0x82F PUSH2 0x65C JUMP JUMPDEST JUMPDEST PUSH2 0x83C DUP7 DUP3 DUP8 ADD PUSH2 0x76F JUMP JUMPDEST SWAP3 POP POP PUSH1 0x40 PUSH2 0x84D DUP7 DUP3 DUP8 ADD PUSH2 0x7BB JUMP JUMPDEST SWAP2 POP POP SWAP3 POP SWAP3 POP SWAP3 JUMP JUMPDEST PUSH2 0x860 DUP2 PUSH2 0x79C JUMP JUMPDEST DUP3 MSTORE POP POP JUMP JUMPDEST PUSH0 PUSH1 0x20 DUP3 ADD SWAP1 POP PUSH2 0x879 PUSH0 DUP4 ADD DUP5 PUSH2 0x857 JUMP JUMPDEST SWAP3 SWAP2 POP POP JUMP JUMPDEST PUSH0 PUSH1 0x20 DUP3 DUP5 SUB SLT ISZERO PUSH2 0x894 JUMPI PUSH2 0x893 PUSH2 0x658 JUMP JUMPDEST JUMPDEST PUSH0 PUSH2 0x8A1 DUP5 DUP3 DUP6 ADD PUSH2 0x7BB JUMP JUMPDEST SWAP2 POP POP SWAP3 SWAP2 POP POP JUMP JUMPDEST PUSH0 PUSH20 0xFFFFFFFFFFFFFFFFFFFFFFFFFFFFFFFFFFFFFFFF DUP3 AND SWAP1 POP SWAP2 SWAP1 POP JUMP JUMPDEST PUSH0 PUSH2 0x8D3 DUP3 PUSH2 0x8AA JUMP JUMPDEST SWAP1 POP SWAP2 SWAP1 POP JUMP JUMPDEST PUSH2 0x8E3 DUP2 PUSH2 0x8C9 JUMP JUMPDEST DUP3 MSTORE POP POP JUMP JUMPDEST PUSH0 DUP2 MLOAD SWAP1 POP SWAP2 SWAP1 POP JUMP JUMPDEST PUSH0 DUP3 DUP3 MSTORE PUSH1 0x20 DUP3 ADD SWAP1 POP SWAP3 SWAP2 POP POP JUMP JUMPDEST DUP3 DUP2 DUP4 MCOPY PUSH0 DUP4 DUP4 ADD MSTORE POP POP POP JUMP JUMPDEST PUSH0 PUSH2 0x91B DUP3 PUSH2 0x8E9 JUMP JUMPDEST PUSH2 0x925 DUP2 DUP6 PUSH2 0x8F3 JUMP JUMPDEST SWAP4 POP PUSH2 0x935 DUP2 DUP6 PUSH1 0x20 DUP7 ADD PUSH2 0x903 JUMP JUMPDEST PUSH2 0x93E DUP2 PUSH2 0x668 JUMP JUMPDEST DUP5 ADD SWAP2 POP POP SWAP3 SWAP2 POP POP JUMP JUMPDEST PUSH0 PUSH1 0x80 DUP3 ADD SWAP1 POP PUSH2 0x95C PUSH0 DUP4 ADD DUP8 PUSH2 0x8DA JUMP JUMPDEST DUP2 DUP2 SUB PUSH1 0x20 DUP4 ADD MSTORE PUSH2 0x96E DUP2 DUP7 PUSH2 0x911 JUMP JUMPDEST SWAP1 POP DUP2 DUP2 SUB PUSH1 0x40 DUP4 ADD MSTORE PUSH2 0x982 DUP2 DUP6 PUSH2 0x911 JUMP JUMPDEST SWAP1 POP PUSH2 0x991 PUSH1 0x60 DUP4 ADD DUP5 PUSH2 0x857 JUMP JUMPDEST SWAP6 SWAP5 POP POP POP POP POP JUMP JUMPDEST PUSH0 DUP2 MLOAD SWAP1 POP SWAP2 SWAP1 POP JUMP JUMPDEST PUSH0 DUP3 DUP3 MSTORE PUSH1 0x20 DUP3 ADD SWAP1 POP SWAP3 SWAP2 POP POP JUMP JUMPDEST PUSH0 DUP2 SWAP1 POP PUSH1 0x20 DUP3 ADD SWAP1 POP SWAP2 SWAP1 POP JUMP JUMPDEST PUSH2 0x9CC DUP2 PUSH2 0x8C9 JUMP JUMPDEST DUP3 MSTORE POP POP JUMP JUMPDEST PUSH0 DUP3 DUP3 MSTORE PUSH1 0x20 DUP3 ADD SWAP1 POP SWAP3 SWAP2 POP POP JUMP JUMPDEST PUSH0 PUSH2 0x9EC DUP3 PUSH2 0x8E9 JUMP JUMPDEST PUSH2 0x9F6 DUP2 DUP6 PUSH2 0x9D2 JUMP JUMPDEST SWAP4 POP PUSH2 0xA06 DUP2 DUP6 PUSH1 0x20 DUP7 ADD PUSH2 0x903 JUMP JUMPDEST PUSH2 0xA0F DUP2 PUSH2 0x668 JUMP JUMPDEST DUP5 ADD SWAP2 POP POP SWAP3 SWAP2 POP POP JUMP JUMPDEST PUSH2 0xA23 DUP2 PUSH2 0x79C JUMP JUMPDEST DUP3 MSTORE POP POP JUMP JUMPDEST PUSH0 PUSH1 0x80 DUP4 ADD PUSH0 DUP4 ADD MLOAD PUSH2 0xA3E PUSH0 DUP7 ADD DUP3 PUSH2 0x9C3 JUMP JUMPDEST POP PUSH1 0x20 DUP4 ADD MLOAD DUP5 DUP3 SUB PUSH1 0x20 DUP7 ADD MSTORE PUSH2 0xA56 DUP3 DUP3 PUSH2 0x9E2 JUMP JUMPDEST SWAP2 POP POP PUSH1 0x40 DUP4 ADD MLOAD DUP5 DUP3 SUB PUSH1 0x40 DUP7 ADD MSTORE PUSH2 0xA70 DUP3 DUP3 PUSH2 0x9E2 JUMP JUMPDEST SWAP2 POP POP PUSH1 0x60 DUP4 ADD MLOAD PUSH2 0xA85 PUSH1 0x60 DUP7 ADD DUP3 PUSH2 0xA1A JUMP JUMPDEST POP DUP1 SWAP2 POP POP SWAP3 SWAP2 POP POP JUMP JUMPDEST PUSH0 PUSH2 0xA9B DUP4 DUP4 PUSH2 0xA29 JUMP JUMPDEST SWAP1 POP SWAP3 SWAP2 POP POP JUMP JUMPDEST PUSH0 PUSH1 0x20 DUP3 ADD SWAP1 POP SWAP2 SWAP1 POP JUMP JUMPDEST PUSH0 PUSH2 0xAB9 DUP3 PUSH2 0x99A JUMP JUMPDEST PUSH2 0xAC3 DUP2 DUP6 PUSH2 0x9A4 JUMP JUMPDEST SWAP4 POP DUP4 PUSH1 0x20 DUP3 MUL DUP6 ADD PUSH2 0xAD5 DUP6 PUSH2 0x9B4 JUMP JUMPDEST DUP1 PUSH0 JUMPDEST DUP6 DUP2 LT ISZERO PUSH2 0xB10 JUMPI DUP5 DUP5 SUB DUP10 MSTORE DUP2 MLOAD PUSH2 0xAF1 DUP6 DUP3 PUSH2 0xA90 JUMP JUMPDEST SWAP5 POP PUSH2 0xAFC DUP4 PUSH2 0xAA3 JUMP JUMPDEST SWAP3 POP PUSH1 0x20 DUP11 ADD SWAP10 POP POP PUSH1 0x1 DUP2 ADD SWAP1 POP PUSH2 0xAD8 JUMP JUMPDEST POP DUP3 SWAP8 POP DUP8 SWAP6 POP POP POP POP POP POP SWAP3 SWAP2 POP POP JUMP JUMPDEST PUSH0 PUSH1 0x20 DUP3 ADD SWAP1 POP DUP2 DUP2 SUB PUSH0 DUP4 ADD MSTORE PUSH2 0xB3A DUP2 DUP5 PUSH2 0xAAF JUMP JUMPDEST SWAP1 POP SWAP3 SWAP2 POP POP JUMP JUMPDEST PUSH32 0x4E487B7100000000000000000000000000000000000000000000000000000000 PUSH0 MSTORE PUSH1 0x22 PUSH1 0x4 MSTORE PUSH1 0x24 PUSH0 REVERT JUMPDEST PUSH0 PUSH1 0x2 DUP3 DIV SWAP1 POP PUSH1 0x1 DUP3 AND DUP1 PUSH2 0xB86 JUMPI PUSH1 0x7F DUP3 AND SWAP2 POP JUMPDEST PUSH1 0x20 DUP3 LT DUP2 SUB PUSH2 0xB99 JUMPI PUSH2 0xB98 PUSH2 0xB42 JUMP JUMPDEST JUMPDEST POP SWAP2 SWAP1 POP JUMP JUMPDEST PUSH0 DUP2 SWAP1 POP DUP2 PUSH0 MSTORE PUSH1 0x20 PUSH0 KECCAK256 SWAP1 POP SWAP2 SWAP1 POP JUMP JUMPDEST PUSH0 PUSH1 0x20 PUSH1 0x1F DUP4 ADD DIV SWAP1 POP SWAP2 SWAP1 POP JUMP JUMPDEST PUSH0 DUP3 DUP3 SHL SWAP1 POP SWAP3 SWAP2 POP POP JUMP JUMPDEST PUSH0 PUSH1 0x8 DUP4 MUL PUSH2 0xBFB PUSH32 0xFFFFFFFFFFFFFFFFFFFFFFFFFFFFFFFFFFFFFFFFFFFFFFFFFFFFFFFFFFFFFFFF DUP3 PUSH2 0xBC0 JUMP JUMPDEST PUSH2 0xC05 DUP7 DUP4 PUSH2 0xBC0 JUMP JUMPDEST SWAP6 POP DUP1 NOT DUP5 AND SWAP4 POP DUP1 DUP7 AND DUP5 OR SWAP3 POP POP POP SWAP4 SWAP3 POP POP POP JUMP JUMPDEST PUSH0 DUP2 SWAP1 POP SWAP2 SWAP1 POP JUMP JUMPDEST PUSH0 PUSH2 0xC40 PUSH2 0xC3B PUSH2 0xC36 DUP5 PUSH2 0x79C JUMP JUMPDEST PUSH2 0xC1D JUMP JUMPDEST PUSH2 0x79C JUMP JUMPDEST SWAP1 POP SWAP2 SWAP1 POP JUMP JUMPDEST PUSH0 DUP2 SWAP1 POP SWAP2 SWAP1 POP JUMP JUMPDEST PUSH2 0xC59 DUP4 PUSH2 0xC26 JUMP JUMPDEST PUSH2 0xC6D PUSH2 0xC65 DUP3 PUSH2 0xC47 JUMP JUMPDEST DUP5 DUP5 SLOAD PUSH2 0xBCC JUMP JUMPDEST DUP3 SSTORE POP POP POP POP JUMP JUMPDEST PUSH0 SWAP1 JUMP JUMPDEST PUSH2 0xC81 PUSH2 0xC75 JUMP JUMPDEST PUSH2 0xC8C DUP2 DUP5 DUP5 PUSH2 0xC50 JUMP JUMPDEST POP POP POP JUMP JUMPDEST JUMPDEST DUP2 DUP2 LT ISZERO PUSH2 0xCAF JUMPI PUSH2 0xCA4 PUSH0 DUP3 PUSH2 0xC79 JUMP JUMPDEST PUSH1 0x1 DUP2 ADD SWAP1 POP PUSH2 0xC92 JUMP JUMPDEST POP POP JUMP JUMPDEST PUSH1 0x1F DUP3 GT ISZERO PUSH2 0xCF4 JUMPI PUSH2 0xCC5 DUP2 PUSH2 0xB9F JUMP JUMPDEST PUSH2 0xCCE DUP5 PUSH2 0xBB1 JUMP JUMPDEST DUP2 ADD PUSH1 0x20 DUP6 LT ISZERO PUSH2 0xCDD JUMPI DUP2 SWAP1 POP JUMPDEST PUSH2 0xCF1 PUSH2 0xCE9 DUP6 PUSH2 0xBB1 JUMP JUMPDEST DUP4 ADD DUP3 PUSH2 0xC91 JUMP JUMPDEST POP POP JUMPDEST POP POP POP JUMP JUMPDEST PUSH0 DUP3 DUP3 SHR SWAP1 POP SWAP3 SWAP2 POP POP JUMP JUMPDEST PUSH0 PUSH2 0xD14 PUSH0 NOT DUP5 PUSH1 0x8 MUL PUSH2 0xCF9 JUMP JUMPDEST NOT DUP1 DUP4 AND SWAP2 POP POP SWAP3 SWAP2 POP POP JUMP JUMPDEST PUSH0 PUSH2 0xD2C DUP4 DUP4 PUSH2 0xD05 JUMP JUMPDEST SWAP2 POP DUP3 PUSH1 0x2 MUL DUP3 OR SWAP1 POP SWAP3 SWAP2 POP POP JUMP JUMPDEST PUSH2 0xD45 DUP3 PUSH2 0x8E9 JUMP JUMPDEST PUSH8 0xFFFFFFFFFFFFFFFF DUP2 GT ISZERO PUSH2 0xD5E JUMPI PUSH2 0xD5D PUSH2 0x678 JUMP JUMPDEST JUMPDEST PUSH2 0xD68 DUP3 SLOAD PUSH2 0xB6F JUMP JUMPDEST PUSH2 0xD73 DUP3 DUP3 DUP6 PUSH2 0xCB3 JUMP JUMPDEST PUSH0 PUSH1 0x20 SWAP1 POP PUSH1 0x1F DUP4 GT PUSH1 0x1 DUP2 EQ PUSH2 0xDA4 JUMPI PUSH0 DUP5 ISZERO PUSH2 0xD92 JUMPI DUP3 DUP8 ADD MLOAD SWAP1 POP JUMPDEST PUSH2 0xD9C DUP6 DUP3 PUSH2 0xD21 JUMP JUMPDEST DUP7 SSTORE POP PUSH2 0xE03 JUMP JUMPDEST PUSH1 0x1F NOT DUP5 AND PUSH2 0xDB2 DUP7 PUSH2 0xB9F JUMP JUMPDEST PUSH0 JUMPDEST DUP3 DUP2 LT ISZERO PUSH2 0xDD9 JUMPI DUP5 DUP10 ADD MLOAD DUP3 SSTORE PUSH1 0x1 DUP3 ADD SWAP2 POP PUSH1 0x20 DUP6 ADD SWAP5 POP PUSH1 0x20 DUP2 ADD SWAP1 POP PUSH2 0xDB4 JUMP JUMPDEST DUP7 DUP4 LT ISZERO PUSH2 0xDF6 JUMPI DUP5 DUP10 ADD MLOAD PUSH2 0xDF2 PUSH1 0x1F DUP10 AND DUP3 PUSH2 0xD05 JUMP JUMPDEST DUP4 SSTORE POP JUMPDEST PUSH1 0x1 PUSH1 0x2 DUP9 MUL ADD DUP9 SSTORE POP POP POP JUMPDEST POP POP POP POP POP POP JUMP JUMPDEST PUSH32 0x4E487B7100000000000000000000000000000000000000000000000000000000 PUSH0 MSTORE PUSH1 0x32 PUSH1 0x4 MSTORE PUSH1 0x24 PUSH0 REVERT INVALID LOG2 PUSH5 0x6970667358 0x22 SLT KECCAK256 0xE1 0xB8 CALLDATASIZE 0x26 0x2A DUP3 ADDMOD SHR 0xB4 SLT NUMBER DUP3 MOD PUSH1 0x82 0xE3 0xD6 SIGNEXTEND PUSH20 0x41F7DDEAC4236C072446D8777264736F6C634300 ADDMOD BYTE STOP CALLER "
				},
				"gasEstimates": {
					"creation": {
						"codeDepositCost": "738800",
						"executionCost": "771",
						"totalCost": "739571"
					},
					"external": {
						"DummyCreatorShelter(string,string,uint256)": "infinite",
						"HomelesShelters(uint256)": "infinite",
						"balance()": "2447",
						"getSHelterQuota()": "2463",
						"getShelter()": "infinite",
						"getVaultBalance()": "2476",
						"tip()": "2469"
					}
				},
				"methodIdentifiers": {
					"DummyCreatorShelter(string,string,uint256)": "0cd2890b",
					"HomelesShelters(uint256)": "5203bdf9",
					"balance()": "b69ef8a8",
					"getSHelterQuota()": "0df56056",
					"getShelter()": "f89e29cd",
					"getVaultBalance()": "ed12e8ef",
					"tip()": "2755cd2d"
				}
			},
			"storageLayout": {
				"storage": [
					{
						"astId": 3,
						"contract": "DecentralizedLottery.sol:CharityScheme",
						"label": "tip",
						"offset": 0,
						"slot": "0",
						"type": "t_uint256"
					},
					{
						"astId": 5,
						"contract": "DecentralizedLottery.sol:CharityScheme",
						"label": "balance",
						"offset": 0,
						"slot": "1",
						"type": "t_uint256"
					},
					{
						"astId": 26,
						"contract": "DecentralizedLottery.sol:CharityScheme",
						"label": "HomelesShelters",
						"offset": 0,
						"slot": "2",
						"type": "t_array(t_struct(shelter)14_storage)dyn_storage"
					}
				],
				"types": {
					"t_address": {
						"encoding": "inplace",
						"label": "address",
						"numberOfBytes": "20"
					},
					"t_array(t_struct(shelter)14_storage)dyn_storage": {
						"base": "t_struct(shelter)14_storage",
						"encoding": "dynamic_array",
						"label": "struct CharityScheme.shelter[]",
						"numberOfBytes": "32"
					},
					"t_string_storage": {
						"encoding": "bytes",
						"label": "string",
						"numberOfBytes": "32"
					},
					"t_struct(shelter)14_storage": {
						"encoding": "inplace",
						"label": "struct CharityScheme.shelter",
						"members": [
							{
								"astId": 7,
								"contract": "DecentralizedLottery.sol:CharityScheme",
								"label": "accountID",
								"offset": 0,
								"slot": "0",
								"type": "t_address"
							},
							{
								"astId": 9,
								"contract": "DecentralizedLottery.sol:CharityScheme",
								"label": "orgName",
								"offset": 0,
								"slot": "1",
								"type": "t_string_storage"
							},
							{
								"astId": 11,
								"contract": "DecentralizedLottery.sol:CharityScheme",
								"label": "president",
								"offset": 0,
								"slot": "2",
								"type": "t_string_storage"
							},
							{
								"astId": 13,
								"contract": "DecentralizedLottery.sol:CharityScheme",
								"label": "population",
								"offset": 0,
								"slot": "3",
								"type": "t_uint256"
							}
						],
						"numberOfBytes": "128"
					},
					"t_uint256": {
						"encoding": "inplace",
						"label": "uint256",
						"numberOfBytes": "32"
					}
				}
			},
			"userdoc": {
				"kind": "user",
				"methods": {},
				"version": 1
			}
		}
	}
}